{
	"contracts/CrowdFunding.sol": {
		"CrowdFunding": {
			"abi": [
				{
					"inputs": [
						{
							"internalType": "uint256",
							"name": "",
							"type": "uint256"
						}
					],
					"name": "campaigns",
					"outputs": [
						{
							"internalType": "address",
							"name": "owner",
							"type": "address"
						},
						{
							"internalType": "string",
							"name": "title",
							"type": "string"
						},
						{
							"internalType": "string",
							"name": "description",
							"type": "string"
						},
						{
							"internalType": "uint256",
							"name": "target",
							"type": "uint256"
						},
						{
							"internalType": "uint256",
							"name": "deadline",
							"type": "uint256"
						},
						{
							"internalType": "uint256",
							"name": "amountCollected",
							"type": "uint256"
						},
						{
							"internalType": "string",
							"name": "image",
							"type": "string"
						}
					],
					"stateMutability": "view",
					"type": "function"
				},
				{
					"inputs": [
						{
							"internalType": "address",
							"name": "_owner",
							"type": "address"
						},
						{
							"internalType": "string",
							"name": "_title",
							"type": "string"
						},
						{
							"internalType": "string",
							"name": "_description",
							"type": "string"
						},
						{
							"internalType": "uint256",
							"name": "_target",
							"type": "uint256"
						},
						{
							"internalType": "uint256",
							"name": "_deadline",
							"type": "uint256"
						},
						{
							"internalType": "string",
							"name": "_image",
							"type": "string"
						}
					],
					"name": "createCampaign",
					"outputs": [
						{
							"internalType": "uint256",
							"name": "",
							"type": "uint256"
						}
					],
					"stateMutability": "nonpayable",
					"type": "function"
				},
				{
					"inputs": [
						{
							"internalType": "uint256",
							"name": "_id",
							"type": "uint256"
						}
					],
					"name": "donateToCampaign",
					"outputs": [],
					"stateMutability": "payable",
					"type": "function"
				},
				{
					"inputs": [],
					"name": "getCampaigns",
					"outputs": [
						{
							"components": [
								{
									"internalType": "address",
									"name": "owner",
									"type": "address"
								},
								{
									"internalType": "string",
									"name": "title",
									"type": "string"
								},
								{
									"internalType": "string",
									"name": "description",
									"type": "string"
								},
								{
									"internalType": "uint256",
									"name": "target",
									"type": "uint256"
								},
								{
									"internalType": "uint256",
									"name": "deadline",
									"type": "uint256"
								},
								{
									"internalType": "uint256",
									"name": "amountCollected",
									"type": "uint256"
								},
								{
									"internalType": "string",
									"name": "image",
									"type": "string"
								},
								{
									"internalType": "address[]",
									"name": "donators",
									"type": "address[]"
								},
								{
									"internalType": "uint256[]",
									"name": "donations",
									"type": "uint256[]"
								}
							],
							"internalType": "struct CrowdFunding.Campaign[]",
							"name": "",
							"type": "tuple[]"
						}
					],
					"stateMutability": "view",
					"type": "function"
				},
				{
					"inputs": [
						{
							"internalType": "uint256",
							"name": "_id",
							"type": "uint256"
						}
					],
					"name": "getDonators",
					"outputs": [
						{
							"internalType": "address[]",
							"name": "",
							"type": "address[]"
						},
						{
							"internalType": "uint256[]",
							"name": "",
							"type": "uint256[]"
						}
					],
					"stateMutability": "view",
					"type": "function"
				},
				{
					"inputs": [
						{
							"internalType": "address",
							"name": "_owner",
							"type": "address"
						}
					],
					"name": "getUserCampaigns",
					"outputs": [
						{
							"components": [
								{
									"internalType": "address",
									"name": "owner",
									"type": "address"
								},
								{
									"internalType": "string",
									"name": "title",
									"type": "string"
								},
								{
									"internalType": "string",
									"name": "description",
									"type": "string"
								},
								{
									"internalType": "uint256",
									"name": "target",
									"type": "uint256"
								},
								{
									"internalType": "uint256",
									"name": "deadline",
									"type": "uint256"
								},
								{
									"internalType": "uint256",
									"name": "amountCollected",
									"type": "uint256"
								},
								{
									"internalType": "string",
									"name": "image",
									"type": "string"
								},
								{
									"internalType": "address[]",
									"name": "donators",
									"type": "address[]"
								},
								{
									"internalType": "uint256[]",
									"name": "donations",
									"type": "uint256[]"
								}
							],
							"internalType": "struct CrowdFunding.Campaign[]",
							"name": "",
							"type": "tuple[]"
						}
					],
					"stateMutability": "view",
					"type": "function"
				},
				{
					"inputs": [],
					"name": "numberOfCampaigns",
					"outputs": [
						{
							"internalType": "uint256",
							"name": "",
							"type": "uint256"
						}
					],
					"stateMutability": "view",
					"type": "function"
				}
			],
			"devdoc": {
				"kind": "dev",
				"methods": {},
				"version": 1
			},
			"evm": {
				"assembly": "    /* \"contracts/CrowdFunding.sol\":64:2749  contract CrowdFunding {... */\n  mstore(0x40, 0x80)\n    /* \"contracts/CrowdFunding.sol\":443:444  0 */\n  0x00\n    /* \"contracts/CrowdFunding.sol\":408:444  uint256 public numberOfCampaigns = 0 */\n  0x01\n  sstore\n    /* \"contracts/CrowdFunding.sol\":64:2749  contract CrowdFunding {... */\n  callvalue\n  dup1\n  iszero\n  tag_1\n  jumpi\n  0x00\n  dup1\n  revert\ntag_1:\n  pop\n  dataSize(sub_0)\n  dup1\n  dataOffset(sub_0)\n  0x00\n  codecopy\n  0x00\n  return\nstop\n\nsub_0: assembly {\n        /* \"contracts/CrowdFunding.sol\":64:2749  contract CrowdFunding {... */\n      mstore(0x40, 0x80)\n      jumpi(tag_1, lt(calldatasize, 0x04))\n      shr(0xe0, calldataload(0x00))\n      dup1\n      0x42a4fda8\n      gt\n      tag_9\n      jumpi\n      dup1\n      0x42a4fda8\n      eq\n      tag_5\n      jumpi\n      dup1\n      0x9943e3a1\n      eq\n      tag_6\n      jumpi\n      dup1\n      0xa1e5084c\n      eq\n      tag_7\n      jumpi\n      dup1\n      0xa6b03633\n      eq\n      tag_8\n      jumpi\n      jump(tag_1)\n    tag_9:\n      dup1\n      0x07ca140d\n      eq\n      tag_2\n      jumpi\n      dup1\n      0x0fa91fa9\n      eq\n      tag_3\n      jumpi\n      dup1\n      0x141961bc\n      eq\n      tag_4\n      jumpi\n    tag_1:\n      0x00\n      dup1\n      revert\n        /* \"contracts/CrowdFunding.sol\":408:444  uint256 public numberOfCampaigns = 0 */\n    tag_2:\n      callvalue\n      dup1\n      iszero\n      tag_10\n      jumpi\n      0x00\n      dup1\n      revert\n    tag_10:\n      pop\n      tag_11\n      tag_12\n      jump\t// in\n    tag_11:\n      mload(0x40)\n      tag_13\n      swap2\n      swap1\n      tag_14\n      jump\t// in\n    tag_13:\n      mload(0x40)\n      dup1\n      swap2\n      sub\n      swap1\n      return\n        /* \"contracts/CrowdFunding.sol\":1551:1717  function getDonators(uint256 _id) view public returns (address[] memory, uint256[] memory) {... */\n    tag_3:\n      callvalue\n      dup1\n      iszero\n      tag_15\n      jumpi\n      0x00\n      dup1\n      revert\n    tag_15:\n      pop\n      tag_16\n      0x04\n      dup1\n      calldatasize\n      sub\n      dup2\n      add\n      swap1\n      tag_17\n      swap2\n      swap1\n      tag_18\n      jump\t// in\n    tag_17:\n      tag_19\n      jump\t// in\n    tag_16:\n      mload(0x40)\n      tag_20\n      swap3\n      swap2\n      swap1\n      tag_21\n      jump\t// in\n    tag_20:\n      mload(0x40)\n      dup1\n      swap2\n      sub\n      swap1\n      return\n        /* \"contracts/CrowdFunding.sol\":356:401  mapping(uint256 => Campaign) public campaigns */\n    tag_4:\n      callvalue\n      dup1\n      iszero\n      tag_22\n      jumpi\n      0x00\n      dup1\n      revert\n    tag_22:\n      pop\n      tag_23\n      0x04\n      dup1\n      calldatasize\n      sub\n      dup2\n      add\n      swap1\n      tag_24\n      swap2\n      swap1\n      tag_18\n      jump\t// in\n    tag_24:\n      tag_25\n      jump\t// in\n    tag_23:\n      mload(0x40)\n      tag_26\n      swap8\n      swap7\n      swap6\n      swap5\n      swap4\n      swap3\n      swap2\n      swap1\n      tag_27\n      jump\t// in\n    tag_26:\n      mload(0x40)\n      dup1\n      swap2\n      sub\n      swap1\n      return\n        /* \"contracts/CrowdFunding.sol\":1132:1545  function donateToCampaign(uint256 _id) public payable {... */\n    tag_5:\n      tag_28\n      0x04\n      dup1\n      calldatasize\n      sub\n      dup2\n      add\n      swap1\n      tag_29\n      swap2\n      swap1\n      tag_18\n      jump\t// in\n    tag_29:\n      tag_30\n      jump\t// in\n    tag_28:\n      stop\n        /* \"contracts/CrowdFunding.sol\":451:1126  function createCampaign(address _owner, string memory _title, string memory _description, uint256 _target, uint256 _deadline, string memory _image) public returns (uint256) {... */\n    tag_6:\n      callvalue\n      dup1\n      iszero\n      tag_31\n      jumpi\n      0x00\n      dup1\n      revert\n    tag_31:\n      pop\n      tag_32\n      0x04\n      dup1\n      calldatasize\n      sub\n      dup2\n      add\n      swap1\n      tag_33\n      swap2\n      swap1\n      tag_34\n      jump\t// in\n    tag_33:\n      tag_35\n      jump\t// in\n    tag_32:\n      mload(0x40)\n      tag_36\n      swap2\n      swap1\n      tag_14\n      jump\t// in\n    tag_36:\n      mload(0x40)\n      dup1\n      swap2\n      sub\n      swap1\n      return\n        /* \"contracts/CrowdFunding.sol\":2057:2747  function getUserCampaigns(address _owner) public view returns (Campaign[] memory) {... */\n    tag_7:\n      callvalue\n      dup1\n      iszero\n      tag_37\n      jumpi\n      0x00\n      dup1\n      revert\n    tag_37:\n      pop\n      tag_38\n      0x04\n      dup1\n      calldatasize\n      sub\n      dup2\n      add\n      swap1\n      tag_39\n      swap2\n      swap1\n      tag_40\n      jump\t// in\n    tag_39:\n      tag_41\n      jump\t// in\n    tag_38:\n      mload(0x40)\n      tag_42\n      swap2\n      swap1\n      tag_43\n      jump\t// in\n    tag_42:\n      mload(0x40)\n      dup1\n      swap2\n      sub\n      swap1\n      return\n        /* \"contracts/CrowdFunding.sol\":1723:2052  function getCampaigns() public view returns (Campaign[] memory) {... */\n    tag_8:\n      callvalue\n      dup1\n      iszero\n      tag_44\n      jumpi\n      0x00\n      dup1\n      revert\n    tag_44:\n      pop\n      tag_45\n      tag_46\n      jump\t// in\n    tag_45:\n      mload(0x40)\n      tag_47\n      swap2\n      swap1\n      tag_43\n      jump\t// in\n    tag_47:\n      mload(0x40)\n      dup1\n      swap2\n      sub\n      swap1\n      return\n        /* \"contracts/CrowdFunding.sol\":408:444  uint256 public numberOfCampaigns = 0 */\n    tag_12:\n      sload(0x01)\n      dup2\n      jump\t// out\n        /* \"contracts/CrowdFunding.sol\":1551:1717  function getDonators(uint256 _id) view public returns (address[] memory, uint256[] memory) {... */\n    tag_19:\n        /* \"contracts/CrowdFunding.sol\":1606:1622  address[] memory */\n      0x60\n        /* \"contracts/CrowdFunding.sol\":1624:1640  uint256[] memory */\n      dup1\n        /* \"contracts/CrowdFunding.sol\":1660:1669  campaigns */\n      0x00\n        /* \"contracts/CrowdFunding.sol\":1660:1674  campaigns[_id] */\n      dup1\n        /* \"contracts/CrowdFunding.sol\":1670:1673  _id */\n      dup5\n        /* \"contracts/CrowdFunding.sol\":1660:1674  campaigns[_id] */\n      dup2\n      mstore\n      0x20\n      add\n      swap1\n      dup2\n      mstore\n      0x20\n      add\n      0x00\n      keccak256\n        /* \"contracts/CrowdFunding.sol\":1660:1683  campaigns[_id].donators */\n      0x07\n      add\n        /* \"contracts/CrowdFunding.sol\":1685:1694  campaigns */\n      0x00\n        /* \"contracts/CrowdFunding.sol\":1685:1699  campaigns[_id] */\n      dup1\n        /* \"contracts/CrowdFunding.sol\":1695:1698  _id */\n      dup6\n        /* \"contracts/CrowdFunding.sol\":1685:1699  campaigns[_id] */\n      dup2\n      mstore\n      0x20\n      add\n      swap1\n      dup2\n      mstore\n      0x20\n      add\n      0x00\n      keccak256\n        /* \"contracts/CrowdFunding.sol\":1685:1709  campaigns[_id].donations */\n      0x08\n      add\n        /* \"contracts/CrowdFunding.sol\":1652:1710  return (campaigns[_id].donators, campaigns[_id].donations) */\n      dup2\n      dup1\n      sload\n      dup1\n      0x20\n      mul\n      0x20\n      add\n      mload(0x40)\n      swap1\n      dup2\n      add\n      0x40\n      mstore\n      dup1\n      swap3\n      swap2\n      swap1\n      dup2\n      dup2\n      mstore\n      0x20\n      add\n      dup3\n      dup1\n      sload\n      dup1\n      iszero\n      tag_49\n      jumpi\n      0x20\n      mul\n      dup3\n      add\n      swap2\n      swap1\n      0x00\n      mstore\n      keccak256(0x00, 0x20)\n      swap1\n    tag_50:\n      dup2\n      0x00\n      swap1\n      sload\n      swap1\n      0x0100\n      exp\n      swap1\n      div\n      0xffffffffffffffffffffffffffffffffffffffff\n      and\n      0xffffffffffffffffffffffffffffffffffffffff\n      and\n      dup2\n      mstore\n      0x20\n      add\n      swap1\n      0x01\n      add\n      swap1\n      dup1\n      dup4\n      gt\n      tag_50\n      jumpi\n    tag_49:\n      pop\n      pop\n      pop\n      pop\n      pop\n      swap2\n      pop\n      dup1\n      dup1\n      sload\n      dup1\n      0x20\n      mul\n      0x20\n      add\n      mload(0x40)\n      swap1\n      dup2\n      add\n      0x40\n      mstore\n      dup1\n      swap3\n      swap2\n      swap1\n      dup2\n      dup2\n      mstore\n      0x20\n      add\n      dup3\n      dup1\n      sload\n      dup1\n      iszero\n      tag_51\n      jumpi\n      0x20\n      mul\n      dup3\n      add\n      swap2\n      swap1\n      0x00\n      mstore\n      keccak256(0x00, 0x20)\n      swap1\n    tag_52:\n      dup2\n      sload\n      dup2\n      mstore\n      0x20\n      add\n      swap1\n      0x01\n      add\n      swap1\n      dup1\n      dup4\n      gt\n      tag_52\n      jumpi\n    tag_51:\n      pop\n      pop\n      pop\n      pop\n      pop\n      swap1\n      pop\n      swap2\n      pop\n      swap2\n      pop\n        /* \"contracts/CrowdFunding.sol\":1551:1717  function getDonators(uint256 _id) view public returns (address[] memory, uint256[] memory) {... */\n      swap2\n      pop\n      swap2\n      jump\t// out\n        /* \"contracts/CrowdFunding.sol\":356:401  mapping(uint256 => Campaign) public campaigns */\n    tag_25:\n      mstore(0x20, 0x00)\n      dup1\n      0x00\n      mstore\n      keccak256(0x00, 0x40)\n      0x00\n      swap2\n      pop\n      swap1\n      pop\n      dup1\n      0x00\n      add\n      0x00\n      swap1\n      sload\n      swap1\n      0x0100\n      exp\n      swap1\n      div\n      0xffffffffffffffffffffffffffffffffffffffff\n      and\n      swap1\n      dup1\n      0x01\n      add\n      dup1\n      sload\n      tag_53\n      swap1\n      tag_54\n      jump\t// in\n    tag_53:\n      dup1\n      0x1f\n      add\n      0x20\n      dup1\n      swap2\n      div\n      mul\n      0x20\n      add\n      mload(0x40)\n      swap1\n      dup2\n      add\n      0x40\n      mstore\n      dup1\n      swap3\n      swap2\n      swap1\n      dup2\n      dup2\n      mstore\n      0x20\n      add\n      dup3\n      dup1\n      sload\n      tag_55\n      swap1\n      tag_54\n      jump\t// in\n    tag_55:\n      dup1\n      iszero\n      tag_56\n      jumpi\n      dup1\n      0x1f\n      lt\n      tag_57\n      jumpi\n      0x0100\n      dup1\n      dup4\n      sload\n      div\n      mul\n      dup4\n      mstore\n      swap2\n      0x20\n      add\n      swap2\n      jump(tag_56)\n    tag_57:\n      dup3\n      add\n      swap2\n      swap1\n      0x00\n      mstore\n      keccak256(0x00, 0x20)\n      swap1\n    tag_58:\n      dup2\n      sload\n      dup2\n      mstore\n      swap1\n      0x01\n      add\n      swap1\n      0x20\n      add\n      dup1\n      dup4\n      gt\n      tag_58\n      jumpi\n      dup3\n      swap1\n      sub\n      0x1f\n      and\n      dup3\n      add\n      swap2\n    tag_56:\n      pop\n      pop\n      pop\n      pop\n      pop\n      swap1\n      dup1\n      0x02\n      add\n      dup1\n      sload\n      tag_59\n      swap1\n      tag_54\n      jump\t// in\n    tag_59:\n      dup1\n      0x1f\n      add\n      0x20\n      dup1\n      swap2\n      div\n      mul\n      0x20\n      add\n      mload(0x40)\n      swap1\n      dup2\n      add\n      0x40\n      mstore\n      dup1\n      swap3\n      swap2\n      swap1\n      dup2\n      dup2\n      mstore\n      0x20\n      add\n      dup3\n      dup1\n      sload\n      tag_60\n      swap1\n      tag_54\n      jump\t// in\n    tag_60:\n      dup1\n      iszero\n      tag_61\n      jumpi\n      dup1\n      0x1f\n      lt\n      tag_62\n      jumpi\n      0x0100\n      dup1\n      dup4\n      sload\n      div\n      mul\n      dup4\n      mstore\n      swap2\n      0x20\n      add\n      swap2\n      jump(tag_61)\n    tag_62:\n      dup3\n      add\n      swap2\n      swap1\n      0x00\n      mstore\n      keccak256(0x00, 0x20)\n      swap1\n    tag_63:\n      dup2\n      sload\n      dup2\n      mstore\n      swap1\n      0x01\n      add\n      swap1\n      0x20\n      add\n      dup1\n      dup4\n      gt\n      tag_63\n      jumpi\n      dup3\n      swap1\n      sub\n      0x1f\n      and\n      dup3\n      add\n      swap2\n    tag_61:\n      pop\n      pop\n      pop\n      pop\n      pop\n      swap1\n      dup1\n      0x03\n      add\n      sload\n      swap1\n      dup1\n      0x04\n      add\n      sload\n      swap1\n      dup1\n      0x05\n      add\n      sload\n      swap1\n      dup1\n      0x06\n      add\n      dup1\n      sload\n      tag_64\n      swap1\n      tag_54\n      jump\t// in\n    tag_64:\n      dup1\n      0x1f\n      add\n      0x20\n      dup1\n      swap2\n      div\n      mul\n      0x20\n      add\n      mload(0x40)\n      swap1\n      dup2\n      add\n      0x40\n      mstore\n      dup1\n      swap3\n      swap2\n      swap1\n      dup2\n      dup2\n      mstore\n      0x20\n      add\n      dup3\n      dup1\n      sload\n      tag_65\n      swap1\n      tag_54\n      jump\t// in\n    tag_65:\n      dup1\n      iszero\n      tag_66\n      jumpi\n      dup1\n      0x1f\n      lt\n      tag_67\n      jumpi\n      0x0100\n      dup1\n      dup4\n      sload\n      div\n      mul\n      dup4\n      mstore\n      swap2\n      0x20\n      add\n      swap2\n      jump(tag_66)\n    tag_67:\n      dup3\n      add\n      swap2\n      swap1\n      0x00\n      mstore\n      keccak256(0x00, 0x20)\n      swap1\n    tag_68:\n      dup2\n      sload\n      dup2\n      mstore\n      swap1\n      0x01\n      add\n      swap1\n      0x20\n      add\n      dup1\n      dup4\n      gt\n      tag_68\n      jumpi\n      dup3\n      swap1\n      sub\n      0x1f\n      and\n      dup3\n      add\n      swap2\n    tag_66:\n      pop\n      pop\n      pop\n      pop\n      pop\n      swap1\n      pop\n      dup8\n      jump\t// out\n        /* \"contracts/CrowdFunding.sol\":1132:1545  function donateToCampaign(uint256 _id) public payable {... */\n    tag_30:\n        /* \"contracts/CrowdFunding.sol\":1196:1210  uint256 amount */\n      0x00\n        /* \"contracts/CrowdFunding.sol\":1213:1222  msg.value */\n      callvalue\n        /* \"contracts/CrowdFunding.sol\":1196:1222  uint256 amount = msg.value */\n      swap1\n      pop\n        /* \"contracts/CrowdFunding.sol\":1233:1258  Campaign storage campaign */\n      0x00\n        /* \"contracts/CrowdFunding.sol\":1261:1270  campaigns */\n      dup1\n        /* \"contracts/CrowdFunding.sol\":1261:1275  campaigns[_id] */\n      0x00\n        /* \"contracts/CrowdFunding.sol\":1271:1274  _id */\n      dup5\n        /* \"contracts/CrowdFunding.sol\":1261:1275  campaigns[_id] */\n      dup2\n      mstore\n      0x20\n      add\n      swap1\n      dup2\n      mstore\n      0x20\n      add\n      0x00\n      keccak256\n        /* \"contracts/CrowdFunding.sol\":1233:1275  Campaign storage campaign = campaigns[_id] */\n      swap1\n      pop\n        /* \"contracts/CrowdFunding.sol\":1286:1294  campaign */\n      dup1\n        /* \"contracts/CrowdFunding.sol\":1286:1303  campaign.donators */\n      0x07\n      add\n        /* \"contracts/CrowdFunding.sol\":1309:1319  msg.sender */\n      caller\n        /* \"contracts/CrowdFunding.sol\":1286:1320  campaign.donators.push(msg.sender) */\n      swap1\n      dup1\n      0x01\n      dup2\n      sload\n      add\n      dup1\n      dup3\n      sstore\n      dup1\n      swap2\n      pop\n      pop\n      0x01\n      swap1\n      sub\n      swap1\n      0x00\n      mstore\n      keccak256(0x00, 0x20)\n      add\n      0x00\n      swap1\n      swap2\n      swap1\n      swap2\n      swap1\n      swap2\n      0x0100\n      exp\n      dup2\n      sload\n      dup2\n      0xffffffffffffffffffffffffffffffffffffffff\n      mul\n      not\n      and\n      swap1\n      dup4\n      0xffffffffffffffffffffffffffffffffffffffff\n      and\n      mul\n      or\n      swap1\n      sstore\n      pop\n        /* \"contracts/CrowdFunding.sol\":1330:1338  campaign */\n      dup1\n        /* \"contracts/CrowdFunding.sol\":1330:1348  campaign.donations */\n      0x08\n      add\n        /* \"contracts/CrowdFunding.sol\":1354:1360  amount */\n      dup3\n        /* \"contracts/CrowdFunding.sol\":1330:1361  campaign.donations.push(amount) */\n      swap1\n      dup1\n      0x01\n      dup2\n      sload\n      add\n      dup1\n      dup3\n      sstore\n      dup1\n      swap2\n      pop\n      pop\n      0x01\n      swap1\n      sub\n      swap1\n      0x00\n      mstore\n      keccak256(0x00, 0x20)\n      add\n      0x00\n      swap1\n      swap2\n      swap1\n      swap2\n      swap1\n      swap2\n      pop\n      sstore\n        /* \"contracts/CrowdFunding.sol\":1373:1382  bool sent */\n      0x00\n        /* \"contracts/CrowdFunding.sol\":1395:1403  campaign */\n      dup2\n        /* \"contracts/CrowdFunding.sol\":1395:1409  campaign.owner */\n      0x00\n      add\n      0x00\n      swap1\n      sload\n      swap1\n      0x0100\n      exp\n      swap1\n      div\n      0xffffffffffffffffffffffffffffffffffffffff\n      and\n        /* \"contracts/CrowdFunding.sol\":1387:1415  payable(campaign.owner).call */\n      0xffffffffffffffffffffffffffffffffffffffff\n      and\n        /* \"contracts/CrowdFunding.sol\":1423:1429  amount */\n      dup4\n        /* \"contracts/CrowdFunding.sol\":1387:1434  payable(campaign.owner).call{value: amount}(\"\") */\n      mload(0x40)\n      tag_72\n      swap1\n      tag_73\n      jump\t// in\n    tag_72:\n      0x00\n      mload(0x40)\n      dup1\n      dup4\n      sub\n      dup2\n      dup6\n      dup8\n      gas\n      call\n      swap3\n      pop\n      pop\n      pop\n      returndatasize\n      dup1\n      0x00\n      dup2\n      eq\n      tag_76\n      jumpi\n      mload(0x40)\n      swap2\n      pop\n      and(add(returndatasize, 0x3f), not(0x1f))\n      dup3\n      add\n      0x40\n      mstore\n      returndatasize\n      dup3\n      mstore\n      returndatasize\n      0x00\n      0x20\n      dup5\n      add\n      returndatacopy\n      jump(tag_75)\n    tag_76:\n      0x60\n      swap2\n      pop\n    tag_75:\n      pop\n        /* \"contracts/CrowdFunding.sol\":1372:1434  (bool sent,) = payable(campaign.owner).call{value: amount}(\"\") */\n      pop\n      swap1\n      pop\n        /* \"contracts/CrowdFunding.sol\":1448:1452  sent */\n      dup1\n        /* \"contracts/CrowdFunding.sol\":1445:1539  if(sent) {... */\n      iszero\n      tag_77\n      jumpi\n        /* \"contracts/CrowdFunding.sol\":1522:1528  amount */\n      dup3\n        /* \"contracts/CrowdFunding.sol\":1495:1503  campaign */\n      dup3\n        /* \"contracts/CrowdFunding.sol\":1495:1519  campaign.amountCollected */\n      0x05\n      add\n      sload\n        /* \"contracts/CrowdFunding.sol\":1495:1528  campaign.amountCollected + amount */\n      tag_78\n      swap2\n      swap1\n      tag_79\n      jump\t// in\n    tag_78:\n        /* \"contracts/CrowdFunding.sol\":1468:1476  campaign */\n      dup3\n        /* \"contracts/CrowdFunding.sol\":1468:1492  campaign.amountCollected */\n      0x05\n      add\n        /* \"contracts/CrowdFunding.sol\":1468:1528  campaign.amountCollected = campaign.amountCollected + amount */\n      dup2\n      swap1\n      sstore\n      pop\n        /* \"contracts/CrowdFunding.sol\":1445:1539  if(sent) {... */\n    tag_77:\n        /* \"contracts/CrowdFunding.sol\":1186:1545  {... */\n      pop\n      pop\n      pop\n        /* \"contracts/CrowdFunding.sol\":1132:1545  function donateToCampaign(uint256 _id) public payable {... */\n      pop\n      jump\t// out\n        /* \"contracts/CrowdFunding.sol\":451:1126  function createCampaign(address _owner, string memory _title, string memory _description, uint256 _target, uint256 _deadline, string memory _image) public returns (uint256) {... */\n    tag_35:\n        /* \"contracts/CrowdFunding.sol\":615:622  uint256 */\n      0x00\n        /* \"contracts/CrowdFunding.sol\":634:659  Campaign storage campaign */\n      dup1\n        /* \"contracts/CrowdFunding.sol\":662:671  campaigns */\n      0x00\n        /* \"contracts/CrowdFunding.sol\":662:690  campaigns[numberOfCampaigns] */\n      dup1\n        /* \"contracts/CrowdFunding.sol\":672:689  numberOfCampaigns */\n      sload(0x01)\n        /* \"contracts/CrowdFunding.sol\":662:690  campaigns[numberOfCampaigns] */\n      dup2\n      mstore\n      0x20\n      add\n      swap1\n      dup2\n      mstore\n      0x20\n      add\n      0x00\n      keccak256\n        /* \"contracts/CrowdFunding.sol\":634:690  Campaign storage campaign = campaigns[numberOfCampaigns] */\n      swap1\n      pop\n        /* \"contracts/CrowdFunding.sol\":729:744  block.timestamp */\n      timestamp\n        /* \"contracts/CrowdFunding.sol\":709:717  campaign */\n      dup2\n        /* \"contracts/CrowdFunding.sol\":709:726  campaign.deadline */\n      0x04\n      add\n      sload\n        /* \"contracts/CrowdFunding.sol\":709:744  campaign.deadline < block.timestamp */\n      lt\n        /* \"contracts/CrowdFunding.sol\":701:793  require(campaign.deadline < block.timestamp, \"The deadline should be a date in the future.\") */\n      tag_81\n      jumpi\n      mload(0x40)\n      0x08c379a000000000000000000000000000000000000000000000000000000000\n      dup2\n      mstore\n      0x04\n      add\n      tag_82\n      swap1\n      tag_83\n      jump\t// in\n    tag_82:\n      mload(0x40)\n      dup1\n      swap2\n      sub\n      swap1\n      revert\n    tag_81:\n        /* \"contracts/CrowdFunding.sol\":821:827  _owner */\n      dup8\n        /* \"contracts/CrowdFunding.sol\":804:812  campaign */\n      dup2\n        /* \"contracts/CrowdFunding.sol\":804:818  campaign.owner */\n      0x00\n      add\n      0x00\n        /* \"contracts/CrowdFunding.sol\":804:827  campaign.owner = _owner */\n      0x0100\n      exp\n      dup2\n      sload\n      dup2\n      0xffffffffffffffffffffffffffffffffffffffff\n      mul\n      not\n      and\n      swap1\n      dup4\n      0xffffffffffffffffffffffffffffffffffffffff\n      and\n      mul\n      or\n      swap1\n      sstore\n      pop\n        /* \"contracts/CrowdFunding.sol\":854:860  _title */\n      dup7\n        /* \"contracts/CrowdFunding.sol\":837:845  campaign */\n      dup2\n        /* \"contracts/CrowdFunding.sol\":837:851  campaign.title */\n      0x01\n      add\n        /* \"contracts/CrowdFunding.sol\":837:860  campaign.title = _title */\n      swap1\n      dup2\n      tag_84\n      swap2\n      swap1\n      tag_85\n      jump\t// in\n    tag_84:\n      pop\n        /* \"contracts/CrowdFunding.sol\":893:905  _description */\n      dup6\n        /* \"contracts/CrowdFunding.sol\":870:878  campaign */\n      dup2\n        /* \"contracts/CrowdFunding.sol\":870:890  campaign.description */\n      0x02\n      add\n        /* \"contracts/CrowdFunding.sol\":870:905  campaign.description = _description */\n      swap1\n      dup2\n      tag_86\n      swap2\n      swap1\n      tag_85\n      jump\t// in\n    tag_86:\n      pop\n        /* \"contracts/CrowdFunding.sol\":933:940  _target */\n      dup5\n        /* \"contracts/CrowdFunding.sol\":915:923  campaign */\n      dup2\n        /* \"contracts/CrowdFunding.sol\":915:930  campaign.target */\n      0x03\n      add\n        /* \"contracts/CrowdFunding.sol\":915:940  campaign.target = _target */\n      dup2\n      swap1\n      sstore\n      pop\n        /* \"contracts/CrowdFunding.sol\":970:979  _deadline */\n      dup4\n        /* \"contracts/CrowdFunding.sol\":950:958  campaign */\n      dup2\n        /* \"contracts/CrowdFunding.sol\":950:967  campaign.deadline */\n      0x04\n      add\n        /* \"contracts/CrowdFunding.sol\":950:979  campaign.deadline = _deadline */\n      dup2\n      swap1\n      sstore\n      pop\n        /* \"contracts/CrowdFunding.sol\":1016:1017  0 */\n      0x00\n        /* \"contracts/CrowdFunding.sol\":989:997  campaign */\n      dup2\n        /* \"contracts/CrowdFunding.sol\":989:1013  campaign.amountCollected */\n      0x05\n      add\n        /* \"contracts/CrowdFunding.sol\":989:1017  campaign.amountCollected = 0 */\n      dup2\n      swap1\n      sstore\n      pop\n        /* \"contracts/CrowdFunding.sol\":1044:1050  _image */\n      dup3\n        /* \"contracts/CrowdFunding.sol\":1027:1035  campaign */\n      dup2\n        /* \"contracts/CrowdFunding.sol\":1027:1041  campaign.image */\n      0x06\n      add\n        /* \"contracts/CrowdFunding.sol\":1027:1050  campaign.image = _image */\n      swap1\n      dup2\n      tag_87\n      swap2\n      swap1\n      tag_85\n      jump\t// in\n    tag_87:\n      pop\n        /* \"contracts/CrowdFunding.sol\":1061:1078  numberOfCampaigns */\n      0x01\n      0x00\n        /* \"contracts/CrowdFunding.sol\":1061:1080  numberOfCampaigns++ */\n      dup2\n      sload\n      dup1\n      swap3\n      swap2\n      swap1\n      tag_88\n      swap1\n      tag_89\n      jump\t// in\n    tag_88:\n      swap2\n      swap1\n      pop\n      sstore\n      pop\n        /* \"contracts/CrowdFunding.sol\":1118:1119  1 */\n      0x01\n        /* \"contracts/CrowdFunding.sol\":1098:1115  numberOfCampaigns */\n      dup1\n      sload\n        /* \"contracts/CrowdFunding.sol\":1098:1119  numberOfCampaigns - 1 */\n      tag_90\n      swap2\n      swap1\n      tag_91\n      jump\t// in\n    tag_90:\n        /* \"contracts/CrowdFunding.sol\":1091:1119  return numberOfCampaigns - 1 */\n      swap2\n      pop\n      pop\n        /* \"contracts/CrowdFunding.sol\":451:1126  function createCampaign(address _owner, string memory _title, string memory _description, uint256 _target, uint256 _deadline, string memory _image) public returns (uint256) {... */\n      swap7\n      swap6\n      pop\n      pop\n      pop\n      pop\n      pop\n      pop\n      jump\t// out\n        /* \"contracts/CrowdFunding.sol\":2057:2747  function getUserCampaigns(address _owner) public view returns (Campaign[] memory) {... */\n    tag_41:\n        /* \"contracts/CrowdFunding.sol\":2120:2137  Campaign[] memory */\n      0x60\n        /* \"contracts/CrowdFunding.sol\":2200:2213  uint256 count */\n      0x00\n        /* \"contracts/CrowdFunding.sol\":2232:2241  uint256 i */\n      dup1\n        /* \"contracts/CrowdFunding.sol\":2227:2373  for (uint256 i = 0; i < numberOfCampaigns; i++) {... */\n    tag_93:\n        /* \"contracts/CrowdFunding.sol\":2251:2268  numberOfCampaigns */\n      sload(0x01)\n        /* \"contracts/CrowdFunding.sol\":2247:2248  i */\n      dup2\n        /* \"contracts/CrowdFunding.sol\":2247:2268  i < numberOfCampaigns */\n      lt\n        /* \"contracts/CrowdFunding.sol\":2227:2373  for (uint256 i = 0; i < numberOfCampaigns; i++) {... */\n      iszero\n      tag_94\n      jumpi\n        /* \"contracts/CrowdFunding.sol\":2315:2321  _owner */\n      dup4\n        /* \"contracts/CrowdFunding.sol\":2293:2321  campaigns[i].owner == _owner */\n      0xffffffffffffffffffffffffffffffffffffffff\n      and\n        /* \"contracts/CrowdFunding.sol\":2293:2302  campaigns */\n      0x00\n        /* \"contracts/CrowdFunding.sol\":2293:2305  campaigns[i] */\n      dup1\n        /* \"contracts/CrowdFunding.sol\":2303:2304  i */\n      dup4\n        /* \"contracts/CrowdFunding.sol\":2293:2305  campaigns[i] */\n      dup2\n      mstore\n      0x20\n      add\n      swap1\n      dup2\n      mstore\n      0x20\n      add\n      0x00\n      keccak256\n        /* \"contracts/CrowdFunding.sol\":2293:2311  campaigns[i].owner */\n      0x00\n      add\n      0x00\n      swap1\n      sload\n      swap1\n      0x0100\n      exp\n      swap1\n      div\n      0xffffffffffffffffffffffffffffffffffffffff\n      and\n        /* \"contracts/CrowdFunding.sol\":2293:2321  campaigns[i].owner == _owner */\n      0xffffffffffffffffffffffffffffffffffffffff\n      and\n      sub\n        /* \"contracts/CrowdFunding.sol\":2289:2363  if (campaigns[i].owner == _owner) {... */\n      tag_96\n      jumpi\n        /* \"contracts/CrowdFunding.sol\":2341:2348  count++ */\n      dup2\n      dup1\n      tag_97\n      swap1\n      tag_89\n      jump\t// in\n    tag_97:\n      swap3\n      pop\n      pop\n        /* \"contracts/CrowdFunding.sol\":2289:2363  if (campaigns[i].owner == _owner) {... */\n    tag_96:\n        /* \"contracts/CrowdFunding.sol\":2270:2273  i++ */\n      dup1\n      dup1\n      0x01\n      add\n      swap2\n      pop\n      pop\n        /* \"contracts/CrowdFunding.sol\":2227:2373  for (uint256 i = 0; i < numberOfCampaigns; i++) {... */\n      jump(tag_93)\n    tag_94:\n      pop\n        /* \"contracts/CrowdFunding.sol\":2419:2450  Campaign[] memory userCampaigns */\n      0x00\n        /* \"contracts/CrowdFunding.sol\":2468:2473  count */\n      dup2\n        /* \"contracts/CrowdFunding.sol\":2453:2474  new Campaign[](count) */\n      0xffffffffffffffff\n      dup2\n      gt\n      iszero\n      tag_98\n      jumpi\n      tag_99\n      tag_100\n      jump\t// in\n    tag_99:\n    tag_98:\n      mload(0x40)\n      swap1\n      dup1\n      dup3\n      mstore\n      dup1\n      0x20\n      mul\n      0x20\n      add\n      dup3\n      add\n      0x40\n      mstore\n      dup1\n      iszero\n      tag_101\n      jumpi\n      dup2\n      0x20\n      add\n    tag_102:\n      tag_103\n      tag_104\n      jump\t// in\n    tag_103:\n      dup2\n      mstore\n      0x20\n      add\n      swap1\n      0x01\n      swap1\n      sub\n      swap1\n      dup2\n      tag_102\n      jumpi\n      swap1\n      pop\n    tag_101:\n      pop\n        /* \"contracts/CrowdFunding.sol\":2419:2474  Campaign[] memory userCampaigns = new Campaign[](count) */\n      swap1\n      pop\n        /* \"contracts/CrowdFunding.sol\":2484:2497  uint256 index */\n      0x00\n        /* \"contracts/CrowdFunding.sol\":2516:2525  uint256 i */\n      dup1\n        /* \"contracts/CrowdFunding.sol\":2511:2710  for (uint256 i = 0; i < numberOfCampaigns; i++) {... */\n    tag_105:\n        /* \"contracts/CrowdFunding.sol\":2535:2552  numberOfCampaigns */\n      sload(0x01)\n        /* \"contracts/CrowdFunding.sol\":2531:2532  i */\n      dup2\n        /* \"contracts/CrowdFunding.sol\":2531:2552  i < numberOfCampaigns */\n      lt\n        /* \"contracts/CrowdFunding.sol\":2511:2710  for (uint256 i = 0; i < numberOfCampaigns; i++) {... */\n      iszero\n      tag_106\n      jumpi\n        /* \"contracts/CrowdFunding.sol\":2599:2605  _owner */\n      dup6\n        /* \"contracts/CrowdFunding.sol\":2577:2605  campaigns[i].owner == _owner */\n      0xffffffffffffffffffffffffffffffffffffffff\n      and\n        /* \"contracts/CrowdFunding.sol\":2577:2586  campaigns */\n      0x00\n        /* \"contracts/CrowdFunding.sol\":2577:2589  campaigns[i] */\n      dup1\n        /* \"contracts/CrowdFunding.sol\":2587:2588  i */\n      dup4\n        /* \"contracts/CrowdFunding.sol\":2577:2589  campaigns[i] */\n      dup2\n      mstore\n      0x20\n      add\n      swap1\n      dup2\n      mstore\n      0x20\n      add\n      0x00\n      keccak256\n        /* \"contracts/CrowdFunding.sol\":2577:2595  campaigns[i].owner */\n      0x00\n      add\n      0x00\n      swap1\n      sload\n      swap1\n      0x0100\n      exp\n      swap1\n      div\n      0xffffffffffffffffffffffffffffffffffffffff\n      and\n        /* \"contracts/CrowdFunding.sol\":2577:2605  campaigns[i].owner == _owner */\n      0xffffffffffffffffffffffffffffffffffffffff\n      and\n      sub\n        /* \"contracts/CrowdFunding.sol\":2573:2700  if (campaigns[i].owner == _owner) {... */\n      tag_108\n      jumpi\n        /* \"contracts/CrowdFunding.sol\":2648:2657  campaigns */\n      0x00\n        /* \"contracts/CrowdFunding.sol\":2648:2660  campaigns[i] */\n      dup1\n        /* \"contracts/CrowdFunding.sol\":2658:2659  i */\n      dup3\n        /* \"contracts/CrowdFunding.sol\":2648:2660  campaigns[i] */\n      dup2\n      mstore\n      0x20\n      add\n      swap1\n      dup2\n      mstore\n      0x20\n      add\n      0x00\n      keccak256\n        /* \"contracts/CrowdFunding.sol\":2625:2660  userCampaigns[index] = campaigns[i] */\n      mload(0x40)\n      dup1\n      0x0120\n      add\n      0x40\n      mstore\n      swap1\n      dup2\n      0x00\n      dup3\n      add\n      0x00\n      swap1\n      sload\n      swap1\n      0x0100\n      exp\n      swap1\n      div\n      0xffffffffffffffffffffffffffffffffffffffff\n      and\n      0xffffffffffffffffffffffffffffffffffffffff\n      and\n      0xffffffffffffffffffffffffffffffffffffffff\n      and\n      dup2\n      mstore\n      0x20\n      add\n      0x01\n      dup3\n      add\n      dup1\n      sload\n      tag_109\n      swap1\n      tag_54\n      jump\t// in\n    tag_109:\n      dup1\n      0x1f\n      add\n      0x20\n      dup1\n      swap2\n      div\n      mul\n      0x20\n      add\n      mload(0x40)\n      swap1\n      dup2\n      add\n      0x40\n      mstore\n      dup1\n      swap3\n      swap2\n      swap1\n      dup2\n      dup2\n      mstore\n      0x20\n      add\n      dup3\n      dup1\n      sload\n      tag_110\n      swap1\n      tag_54\n      jump\t// in\n    tag_110:\n      dup1\n      iszero\n      tag_111\n      jumpi\n      dup1\n      0x1f\n      lt\n      tag_112\n      jumpi\n      0x0100\n      dup1\n      dup4\n      sload\n      div\n      mul\n      dup4\n      mstore\n      swap2\n      0x20\n      add\n      swap2\n      jump(tag_111)\n    tag_112:\n      dup3\n      add\n      swap2\n      swap1\n      0x00\n      mstore\n      keccak256(0x00, 0x20)\n      swap1\n    tag_113:\n      dup2\n      sload\n      dup2\n      mstore\n      swap1\n      0x01\n      add\n      swap1\n      0x20\n      add\n      dup1\n      dup4\n      gt\n      tag_113\n      jumpi\n      dup3\n      swap1\n      sub\n      0x1f\n      and\n      dup3\n      add\n      swap2\n    tag_111:\n      pop\n      pop\n      pop\n      pop\n      pop\n      dup2\n      mstore\n      0x20\n      add\n      0x02\n      dup3\n      add\n      dup1\n      sload\n      tag_114\n      swap1\n      tag_54\n      jump\t// in\n    tag_114:\n      dup1\n      0x1f\n      add\n      0x20\n      dup1\n      swap2\n      div\n      mul\n      0x20\n      add\n      mload(0x40)\n      swap1\n      dup2\n      add\n      0x40\n      mstore\n      dup1\n      swap3\n      swap2\n      swap1\n      dup2\n      dup2\n      mstore\n      0x20\n      add\n      dup3\n      dup1\n      sload\n      tag_115\n      swap1\n      tag_54\n      jump\t// in\n    tag_115:\n      dup1\n      iszero\n      tag_116\n      jumpi\n      dup1\n      0x1f\n      lt\n      tag_117\n      jumpi\n      0x0100\n      dup1\n      dup4\n      sload\n      div\n      mul\n      dup4\n      mstore\n      swap2\n      0x20\n      add\n      swap2\n      jump(tag_116)\n    tag_117:\n      dup3\n      add\n      swap2\n      swap1\n      0x00\n      mstore\n      keccak256(0x00, 0x20)\n      swap1\n    tag_118:\n      dup2\n      sload\n      dup2\n      mstore\n      swap1\n      0x01\n      add\n      swap1\n      0x20\n      add\n      dup1\n      dup4\n      gt\n      tag_118\n      jumpi\n      dup3\n      swap1\n      sub\n      0x1f\n      and\n      dup3\n      add\n      swap2\n    tag_116:\n      pop\n      pop\n      pop\n      pop\n      pop\n      dup2\n      mstore\n      0x20\n      add\n      0x03\n      dup3\n      add\n      sload\n      dup2\n      mstore\n      0x20\n      add\n      0x04\n      dup3\n      add\n      sload\n      dup2\n      mstore\n      0x20\n      add\n      0x05\n      dup3\n      add\n      sload\n      dup2\n      mstore\n      0x20\n      add\n      0x06\n      dup3\n      add\n      dup1\n      sload\n      tag_119\n      swap1\n      tag_54\n      jump\t// in\n    tag_119:\n      dup1\n      0x1f\n      add\n      0x20\n      dup1\n      swap2\n      div\n      mul\n      0x20\n      add\n      mload(0x40)\n      swap1\n      dup2\n      add\n      0x40\n      mstore\n      dup1\n      swap3\n      swap2\n      swap1\n      dup2\n      dup2\n      mstore\n      0x20\n      add\n      dup3\n      dup1\n      sload\n      tag_120\n      swap1\n      tag_54\n      jump\t// in\n    tag_120:\n      dup1\n      iszero\n      tag_121\n      jumpi\n      dup1\n      0x1f\n      lt\n      tag_122\n      jumpi\n      0x0100\n      dup1\n      dup4\n      sload\n      div\n      mul\n      dup4\n      mstore\n      swap2\n      0x20\n      add\n      swap2\n      jump(tag_121)\n    tag_122:\n      dup3\n      add\n      swap2\n      swap1\n      0x00\n      mstore\n      keccak256(0x00, 0x20)\n      swap1\n    tag_123:\n      dup2\n      sload\n      dup2\n      mstore\n      swap1\n      0x01\n      add\n      swap1\n      0x20\n      add\n      dup1\n      dup4\n      gt\n      tag_123\n      jumpi\n      dup3\n      swap1\n      sub\n      0x1f\n      and\n      dup3\n      add\n      swap2\n    tag_121:\n      pop\n      pop\n      pop\n      pop\n      pop\n      dup2\n      mstore\n      0x20\n      add\n      0x07\n      dup3\n      add\n      dup1\n      sload\n      dup1\n      0x20\n      mul\n      0x20\n      add\n      mload(0x40)\n      swap1\n      dup2\n      add\n      0x40\n      mstore\n      dup1\n      swap3\n      swap2\n      swap1\n      dup2\n      dup2\n      mstore\n      0x20\n      add\n      dup3\n      dup1\n      sload\n      dup1\n      iszero\n      tag_124\n      jumpi\n      0x20\n      mul\n      dup3\n      add\n      swap2\n      swap1\n      0x00\n      mstore\n      keccak256(0x00, 0x20)\n      swap1\n    tag_125:\n      dup2\n      0x00\n      swap1\n      sload\n      swap1\n      0x0100\n      exp\n      swap1\n      div\n      0xffffffffffffffffffffffffffffffffffffffff\n      and\n      0xffffffffffffffffffffffffffffffffffffffff\n      and\n      dup2\n      mstore\n      0x20\n      add\n      swap1\n      0x01\n      add\n      swap1\n      dup1\n      dup4\n      gt\n      tag_125\n      jumpi\n    tag_124:\n      pop\n      pop\n      pop\n      pop\n      pop\n      dup2\n      mstore\n      0x20\n      add\n      0x08\n      dup3\n      add\n      dup1\n      sload\n      dup1\n      0x20\n      mul\n      0x20\n      add\n      mload(0x40)\n      swap1\n      dup2\n      add\n      0x40\n      mstore\n      dup1\n      swap3\n      swap2\n      swap1\n      dup2\n      dup2\n      mstore\n      0x20\n      add\n      dup3\n      dup1\n      sload\n      dup1\n      iszero\n      tag_126\n      jumpi\n      0x20\n      mul\n      dup3\n      add\n      swap2\n      swap1\n      0x00\n      mstore\n      keccak256(0x00, 0x20)\n      swap1\n    tag_127:\n      dup2\n      sload\n      dup2\n      mstore\n      0x20\n      add\n      swap1\n      0x01\n      add\n      swap1\n      dup1\n      dup4\n      gt\n      tag_127\n      jumpi\n    tag_126:\n      pop\n      pop\n      pop\n      pop\n      pop\n      dup2\n      mstore\n      pop\n      pop\n        /* \"contracts/CrowdFunding.sol\":2625:2638  userCampaigns */\n      dup4\n        /* \"contracts/CrowdFunding.sol\":2639:2644  index */\n      dup4\n        /* \"contracts/CrowdFunding.sol\":2625:2645  userCampaigns[index] */\n      dup2\n      mload\n      dup2\n      lt\n      tag_128\n      jumpi\n      tag_129\n      tag_130\n      jump\t// in\n    tag_129:\n    tag_128:\n      0x20\n      mul\n      0x20\n      add\n      add\n        /* \"contracts/CrowdFunding.sol\":2625:2660  userCampaigns[index] = campaigns[i] */\n      dup2\n      swap1\n      mstore\n      pop\n        /* \"contracts/CrowdFunding.sol\":2678:2685  index++ */\n      dup2\n      dup1\n      tag_131\n      swap1\n      tag_89\n      jump\t// in\n    tag_131:\n      swap3\n      pop\n      pop\n        /* \"contracts/CrowdFunding.sol\":2573:2700  if (campaigns[i].owner == _owner) {... */\n    tag_108:\n        /* \"contracts/CrowdFunding.sol\":2554:2557  i++ */\n      dup1\n      dup1\n      0x01\n      add\n      swap2\n      pop\n      pop\n        /* \"contracts/CrowdFunding.sol\":2511:2710  for (uint256 i = 0; i < numberOfCampaigns; i++) {... */\n      jump(tag_105)\n    tag_106:\n      pop\n        /* \"contracts/CrowdFunding.sol\":2727:2740  userCampaigns */\n      dup2\n        /* \"contracts/CrowdFunding.sol\":2720:2740  return userCampaigns */\n      swap4\n      pop\n      pop\n      pop\n      pop\n        /* \"contracts/CrowdFunding.sol\":2057:2747  function getUserCampaigns(address _owner) public view returns (Campaign[] memory) {... */\n      swap2\n      swap1\n      pop\n      jump\t// out\n        /* \"contracts/CrowdFunding.sol\":1723:2052  function getCampaigns() public view returns (Campaign[] memory) {... */\n    tag_46:\n        /* \"contracts/CrowdFunding.sol\":1768:1785  Campaign[] memory */\n      0x60\n        /* \"contracts/CrowdFunding.sol\":1797:1827  Campaign[] memory allCampaigns */\n      0x00\n        /* \"contracts/CrowdFunding.sol\":1845:1862  numberOfCampaigns */\n      sload(0x01)\n        /* \"contracts/CrowdFunding.sol\":1830:1863  new Campaign[](numberOfCampaigns) */\n      0xffffffffffffffff\n      dup2\n      gt\n      iszero\n      tag_133\n      jumpi\n      tag_134\n      tag_100\n      jump\t// in\n    tag_134:\n    tag_133:\n      mload(0x40)\n      swap1\n      dup1\n      dup3\n      mstore\n      dup1\n      0x20\n      mul\n      0x20\n      add\n      dup3\n      add\n      0x40\n      mstore\n      dup1\n      iszero\n      tag_135\n      jumpi\n      dup2\n      0x20\n      add\n    tag_136:\n      tag_137\n      tag_104\n      jump\t// in\n    tag_137:\n      dup2\n      mstore\n      0x20\n      add\n      swap1\n      0x01\n      swap1\n      sub\n      swap1\n      dup2\n      tag_136\n      jumpi\n      swap1\n      pop\n    tag_135:\n      pop\n        /* \"contracts/CrowdFunding.sol\":1797:1863  Campaign[] memory allCampaigns = new Campaign[](numberOfCampaigns) */\n      swap1\n      pop\n        /* \"contracts/CrowdFunding.sol\":1878:1884  uint i */\n      0x00\n        /* \"contracts/CrowdFunding.sol\":1874:2016  for(uint i = 0; i < numberOfCampaigns; i++) {... */\n    tag_138:\n        /* \"contracts/CrowdFunding.sol\":1894:1911  numberOfCampaigns */\n      sload(0x01)\n        /* \"contracts/CrowdFunding.sol\":1890:1891  i */\n      dup2\n        /* \"contracts/CrowdFunding.sol\":1890:1911  i < numberOfCampaigns */\n      lt\n        /* \"contracts/CrowdFunding.sol\":1874:2016  for(uint i = 0; i < numberOfCampaigns; i++) {... */\n      iszero\n      tag_139\n      jumpi\n        /* \"contracts/CrowdFunding.sol\":1932:1953  Campaign storage item */\n      0x00\n        /* \"contracts/CrowdFunding.sol\":1956:1965  campaigns */\n      dup1\n        /* \"contracts/CrowdFunding.sol\":1956:1968  campaigns[i] */\n      0x00\n        /* \"contracts/CrowdFunding.sol\":1966:1967  i */\n      dup4\n        /* \"contracts/CrowdFunding.sol\":1956:1968  campaigns[i] */\n      dup2\n      mstore\n      0x20\n      add\n      swap1\n      dup2\n      mstore\n      0x20\n      add\n      0x00\n      keccak256\n        /* \"contracts/CrowdFunding.sol\":1932:1968  Campaign storage item = campaigns[i] */\n      swap1\n      pop\n        /* \"contracts/CrowdFunding.sol\":2001:2005  item */\n      dup1\n        /* \"contracts/CrowdFunding.sol\":1983:2005  allCampaigns[i] = item */\n      mload(0x40)\n      dup1\n      0x0120\n      add\n      0x40\n      mstore\n      swap1\n      dup2\n      0x00\n      dup3\n      add\n      0x00\n      swap1\n      sload\n      swap1\n      0x0100\n      exp\n      swap1\n      div\n      0xffffffffffffffffffffffffffffffffffffffff\n      and\n      0xffffffffffffffffffffffffffffffffffffffff\n      and\n      0xffffffffffffffffffffffffffffffffffffffff\n      and\n      dup2\n      mstore\n      0x20\n      add\n      0x01\n      dup3\n      add\n      dup1\n      sload\n      tag_141\n      swap1\n      tag_54\n      jump\t// in\n    tag_141:\n      dup1\n      0x1f\n      add\n      0x20\n      dup1\n      swap2\n      div\n      mul\n      0x20\n      add\n      mload(0x40)\n      swap1\n      dup2\n      add\n      0x40\n      mstore\n      dup1\n      swap3\n      swap2\n      swap1\n      dup2\n      dup2\n      mstore\n      0x20\n      add\n      dup3\n      dup1\n      sload\n      tag_142\n      swap1\n      tag_54\n      jump\t// in\n    tag_142:\n      dup1\n      iszero\n      tag_143\n      jumpi\n      dup1\n      0x1f\n      lt\n      tag_144\n      jumpi\n      0x0100\n      dup1\n      dup4\n      sload\n      div\n      mul\n      dup4\n      mstore\n      swap2\n      0x20\n      add\n      swap2\n      jump(tag_143)\n    tag_144:\n      dup3\n      add\n      swap2\n      swap1\n      0x00\n      mstore\n      keccak256(0x00, 0x20)\n      swap1\n    tag_145:\n      dup2\n      sload\n      dup2\n      mstore\n      swap1\n      0x01\n      add\n      swap1\n      0x20\n      add\n      dup1\n      dup4\n      gt\n      tag_145\n      jumpi\n      dup3\n      swap1\n      sub\n      0x1f\n      and\n      dup3\n      add\n      swap2\n    tag_143:\n      pop\n      pop\n      pop\n      pop\n      pop\n      dup2\n      mstore\n      0x20\n      add\n      0x02\n      dup3\n      add\n      dup1\n      sload\n      tag_146\n      swap1\n      tag_54\n      jump\t// in\n    tag_146:\n      dup1\n      0x1f\n      add\n      0x20\n      dup1\n      swap2\n      div\n      mul\n      0x20\n      add\n      mload(0x40)\n      swap1\n      dup2\n      add\n      0x40\n      mstore\n      dup1\n      swap3\n      swap2\n      swap1\n      dup2\n      dup2\n      mstore\n      0x20\n      add\n      dup3\n      dup1\n      sload\n      tag_147\n      swap1\n      tag_54\n      jump\t// in\n    tag_147:\n      dup1\n      iszero\n      tag_148\n      jumpi\n      dup1\n      0x1f\n      lt\n      tag_149\n      jumpi\n      0x0100\n      dup1\n      dup4\n      sload\n      div\n      mul\n      dup4\n      mstore\n      swap2\n      0x20\n      add\n      swap2\n      jump(tag_148)\n    tag_149:\n      dup3\n      add\n      swap2\n      swap1\n      0x00\n      mstore\n      keccak256(0x00, 0x20)\n      swap1\n    tag_150:\n      dup2\n      sload\n      dup2\n      mstore\n      swap1\n      0x01\n      add\n      swap1\n      0x20\n      add\n      dup1\n      dup4\n      gt\n      tag_150\n      jumpi\n      dup3\n      swap1\n      sub\n      0x1f\n      and\n      dup3\n      add\n      swap2\n    tag_148:\n      pop\n      pop\n      pop\n      pop\n      pop\n      dup2\n      mstore\n      0x20\n      add\n      0x03\n      dup3\n      add\n      sload\n      dup2\n      mstore\n      0x20\n      add\n      0x04\n      dup3\n      add\n      sload\n      dup2\n      mstore\n      0x20\n      add\n      0x05\n      dup3\n      add\n      sload\n      dup2\n      mstore\n      0x20\n      add\n      0x06\n      dup3\n      add\n      dup1\n      sload\n      tag_151\n      swap1\n      tag_54\n      jump\t// in\n    tag_151:\n      dup1\n      0x1f\n      add\n      0x20\n      dup1\n      swap2\n      div\n      mul\n      0x20\n      add\n      mload(0x40)\n      swap1\n      dup2\n      add\n      0x40\n      mstore\n      dup1\n      swap3\n      swap2\n      swap1\n      dup2\n      dup2\n      mstore\n      0x20\n      add\n      dup3\n      dup1\n      sload\n      tag_152\n      swap1\n      tag_54\n      jump\t// in\n    tag_152:\n      dup1\n      iszero\n      tag_153\n      jumpi\n      dup1\n      0x1f\n      lt\n      tag_154\n      jumpi\n      0x0100\n      dup1\n      dup4\n      sload\n      div\n      mul\n      dup4\n      mstore\n      swap2\n      0x20\n      add\n      swap2\n      jump(tag_153)\n    tag_154:\n      dup3\n      add\n      swap2\n      swap1\n      0x00\n      mstore\n      keccak256(0x00, 0x20)\n      swap1\n    tag_155:\n      dup2\n      sload\n      dup2\n      mstore\n      swap1\n      0x01\n      add\n      swap1\n      0x20\n      add\n      dup1\n      dup4\n      gt\n      tag_155\n      jumpi\n      dup3\n      swap1\n      sub\n      0x1f\n      and\n      dup3\n      add\n      swap2\n    tag_153:\n      pop\n      pop\n      pop\n      pop\n      pop\n      dup2\n      mstore\n      0x20\n      add\n      0x07\n      dup3\n      add\n      dup1\n      sload\n      dup1\n      0x20\n      mul\n      0x20\n      add\n      mload(0x40)\n      swap1\n      dup2\n      add\n      0x40\n      mstore\n      dup1\n      swap3\n      swap2\n      swap1\n      dup2\n      dup2\n      mstore\n      0x20\n      add\n      dup3\n      dup1\n      sload\n      dup1\n      iszero\n      tag_156\n      jumpi\n      0x20\n      mul\n      dup3\n      add\n      swap2\n      swap1\n      0x00\n      mstore\n      keccak256(0x00, 0x20)\n      swap1\n    tag_157:\n      dup2\n      0x00\n      swap1\n      sload\n      swap1\n      0x0100\n      exp\n      swap1\n      div\n      0xffffffffffffffffffffffffffffffffffffffff\n      and\n      0xffffffffffffffffffffffffffffffffffffffff\n      and\n      dup2\n      mstore\n      0x20\n      add\n      swap1\n      0x01\n      add\n      swap1\n      dup1\n      dup4\n      gt\n      tag_157\n      jumpi\n    tag_156:\n      pop\n      pop\n      pop\n      pop\n      pop\n      dup2\n      mstore\n      0x20\n      add\n      0x08\n      dup3\n      add\n      dup1\n      sload\n      dup1\n      0x20\n      mul\n      0x20\n      add\n      mload(0x40)\n      swap1\n      dup2\n      add\n      0x40\n      mstore\n      dup1\n      swap3\n      swap2\n      swap1\n      dup2\n      dup2\n      mstore\n      0x20\n      add\n      dup3\n      dup1\n      sload\n      dup1\n      iszero\n      tag_158\n      jumpi\n      0x20\n      mul\n      dup3\n      add\n      swap2\n      swap1\n      0x00\n      mstore\n      keccak256(0x00, 0x20)\n      swap1\n    tag_159:\n      dup2\n      sload\n      dup2\n      mstore\n      0x20\n      add\n      swap1\n      0x01\n      add\n      swap1\n      dup1\n      dup4\n      gt\n      tag_159\n      jumpi\n    tag_158:\n      pop\n      pop\n      pop\n      pop\n      pop\n      dup2\n      mstore\n      pop\n      pop\n        /* \"contracts/CrowdFunding.sol\":1983:1995  allCampaigns */\n      dup4\n        /* \"contracts/CrowdFunding.sol\":1996:1997  i */\n      dup4\n        /* \"contracts/CrowdFunding.sol\":1983:1998  allCampaigns[i] */\n      dup2\n      mload\n      dup2\n      lt\n      tag_160\n      jumpi\n      tag_161\n      tag_130\n      jump\t// in\n    tag_161:\n    tag_160:\n      0x20\n      mul\n      0x20\n      add\n      add\n        /* \"contracts/CrowdFunding.sol\":1983:2005  allCampaigns[i] = item */\n      dup2\n      swap1\n      mstore\n      pop\n        /* \"contracts/CrowdFunding.sol\":1918:2016  {... */\n      pop\n        /* \"contracts/CrowdFunding.sol\":1913:1916  i++ */\n      dup1\n      dup1\n      0x01\n      add\n      swap2\n      pop\n      pop\n        /* \"contracts/CrowdFunding.sol\":1874:2016  for(uint i = 0; i < numberOfCampaigns; i++) {... */\n      jump(tag_138)\n    tag_139:\n      pop\n        /* \"contracts/CrowdFunding.sol\":2033:2045  allCampaigns */\n      dup1\n        /* \"contracts/CrowdFunding.sol\":2026:2045  return allCampaigns */\n      swap2\n      pop\n      pop\n        /* \"contracts/CrowdFunding.sol\":1723:2052  function getCampaigns() public view returns (Campaign[] memory) {... */\n      swap1\n      jump\t// out\n    tag_104:\n      mload(0x40)\n      dup1\n      0x0120\n      add\n      0x40\n      mstore\n      dup1\n      and(0xffffffffffffffffffffffffffffffffffffffff, 0x00)\n      dup2\n      mstore\n      0x20\n      add\n      0x60\n      dup2\n      mstore\n      0x20\n      add\n      0x60\n      dup2\n      mstore\n      0x20\n      add\n      0x00\n      dup2\n      mstore\n      0x20\n      add\n      0x00\n      dup2\n      mstore\n      0x20\n      add\n      0x00\n      dup2\n      mstore\n      0x20\n      add\n      0x60\n      dup2\n      mstore\n      0x20\n      add\n      0x60\n      dup2\n      mstore\n      0x20\n      add\n      0x60\n      dup2\n      mstore\n      pop\n      swap1\n      jump\t// out\n        /* \"#utility.yul\":7:84   */\n    tag_162:\n        /* \"#utility.yul\":44:51   */\n      0x00\n        /* \"#utility.yul\":73:78   */\n      dup2\n        /* \"#utility.yul\":62:78   */\n      swap1\n      pop\n        /* \"#utility.yul\":7:84   */\n      swap2\n      swap1\n      pop\n      jump\t// out\n        /* \"#utility.yul\":90:208   */\n    tag_163:\n        /* \"#utility.yul\":177:201   */\n      tag_239\n        /* \"#utility.yul\":195:200   */\n      dup2\n        /* \"#utility.yul\":177:201   */\n      tag_162\n      jump\t// in\n    tag_239:\n        /* \"#utility.yul\":172:175   */\n      dup3\n        /* \"#utility.yul\":165:202   */\n      mstore\n        /* \"#utility.yul\":90:208   */\n      pop\n      pop\n      jump\t// out\n        /* \"#utility.yul\":214:436   */\n    tag_14:\n        /* \"#utility.yul\":307:311   */\n      0x00\n        /* \"#utility.yul\":345:347   */\n      0x20\n        /* \"#utility.yul\":334:343   */\n      dup3\n        /* \"#utility.yul\":330:348   */\n      add\n        /* \"#utility.yul\":322:348   */\n      swap1\n      pop\n        /* \"#utility.yul\":358:429   */\n      tag_241\n        /* \"#utility.yul\":426:427   */\n      0x00\n        /* \"#utility.yul\":415:424   */\n      dup4\n        /* \"#utility.yul\":411:428   */\n      add\n        /* \"#utility.yul\":402:408   */\n      dup5\n        /* \"#utility.yul\":358:429   */\n      tag_163\n      jump\t// in\n    tag_241:\n        /* \"#utility.yul\":214:436   */\n      swap3\n      swap2\n      pop\n      pop\n      jump\t// out\n        /* \"#utility.yul\":442:517   */\n    tag_164:\n        /* \"#utility.yul\":475:481   */\n      0x00\n        /* \"#utility.yul\":508:510   */\n      0x40\n        /* \"#utility.yul\":502:511   */\n      mload\n        /* \"#utility.yul\":492:511   */\n      swap1\n      pop\n        /* \"#utility.yul\":442:517   */\n      swap1\n      jump\t// out\n        /* \"#utility.yul\":523:640   */\n    tag_165:\n        /* \"#utility.yul\":632:633   */\n      0x00\n        /* \"#utility.yul\":629:630   */\n      dup1\n        /* \"#utility.yul\":622:634   */\n      revert\n        /* \"#utility.yul\":646:763   */\n    tag_166:\n        /* \"#utility.yul\":755:756   */\n      0x00\n        /* \"#utility.yul\":752:753   */\n      dup1\n        /* \"#utility.yul\":745:757   */\n      revert\n        /* \"#utility.yul\":769:891   */\n    tag_167:\n        /* \"#utility.yul\":842:866   */\n      tag_246\n        /* \"#utility.yul\":860:865   */\n      dup2\n        /* \"#utility.yul\":842:866   */\n      tag_162\n      jump\t// in\n    tag_246:\n        /* \"#utility.yul\":835:840   */\n      dup2\n        /* \"#utility.yul\":832:867   */\n      eq\n        /* \"#utility.yul\":822:885   */\n      tag_247\n      jumpi\n        /* \"#utility.yul\":881:882   */\n      0x00\n        /* \"#utility.yul\":878:879   */\n      dup1\n        /* \"#utility.yul\":871:883   */\n      revert\n        /* \"#utility.yul\":822:885   */\n    tag_247:\n        /* \"#utility.yul\":769:891   */\n      pop\n      jump\t// out\n        /* \"#utility.yul\":897:1036   */\n    tag_168:\n        /* \"#utility.yul\":943:948   */\n      0x00\n        /* \"#utility.yul\":981:987   */\n      dup2\n        /* \"#utility.yul\":968:988   */\n      calldataload\n        /* \"#utility.yul\":959:988   */\n      swap1\n      pop\n        /* \"#utility.yul\":997:1030   */\n      tag_249\n        /* \"#utility.yul\":1024:1029   */\n      dup2\n        /* \"#utility.yul\":997:1030   */\n      tag_167\n      jump\t// in\n    tag_249:\n        /* \"#utility.yul\":897:1036   */\n      swap3\n      swap2\n      pop\n      pop\n      jump\t// out\n        /* \"#utility.yul\":1042:1371   */\n    tag_18:\n        /* \"#utility.yul\":1101:1107   */\n      0x00\n        /* \"#utility.yul\":1150:1152   */\n      0x20\n        /* \"#utility.yul\":1138:1147   */\n      dup3\n        /* \"#utility.yul\":1129:1136   */\n      dup5\n        /* \"#utility.yul\":1125:1148   */\n      sub\n        /* \"#utility.yul\":1121:1153   */\n      slt\n        /* \"#utility.yul\":1118:1237   */\n      iszero\n      tag_251\n      jumpi\n        /* \"#utility.yul\":1156:1235   */\n      tag_252\n      tag_165\n      jump\t// in\n    tag_252:\n        /* \"#utility.yul\":1118:1237   */\n    tag_251:\n        /* \"#utility.yul\":1276:1277   */\n      0x00\n        /* \"#utility.yul\":1301:1354   */\n      tag_253\n        /* \"#utility.yul\":1346:1353   */\n      dup5\n        /* \"#utility.yul\":1337:1343   */\n      dup3\n        /* \"#utility.yul\":1326:1335   */\n      dup6\n        /* \"#utility.yul\":1322:1344   */\n      add\n        /* \"#utility.yul\":1301:1354   */\n      tag_168\n      jump\t// in\n    tag_253:\n        /* \"#utility.yul\":1291:1354   */\n      swap2\n      pop\n        /* \"#utility.yul\":1247:1364   */\n      pop\n        /* \"#utility.yul\":1042:1371   */\n      swap3\n      swap2\n      pop\n      pop\n      jump\t// out\n        /* \"#utility.yul\":1377:1491   */\n    tag_169:\n        /* \"#utility.yul\":1444:1450   */\n      0x00\n        /* \"#utility.yul\":1478:1483   */\n      dup2\n        /* \"#utility.yul\":1472:1484   */\n      mload\n        /* \"#utility.yul\":1462:1484   */\n      swap1\n      pop\n        /* \"#utility.yul\":1377:1491   */\n      swap2\n      swap1\n      pop\n      jump\t// out\n        /* \"#utility.yul\":1497:1681   */\n    tag_170:\n        /* \"#utility.yul\":1596:1607   */\n      0x00\n        /* \"#utility.yul\":1630:1636   */\n      dup3\n        /* \"#utility.yul\":1625:1628   */\n      dup3\n        /* \"#utility.yul\":1618:1637   */\n      mstore\n        /* \"#utility.yul\":1670:1674   */\n      0x20\n        /* \"#utility.yul\":1665:1668   */\n      dup3\n        /* \"#utility.yul\":1661:1675   */\n      add\n        /* \"#utility.yul\":1646:1675   */\n      swap1\n      pop\n        /* \"#utility.yul\":1497:1681   */\n      swap3\n      swap2\n      pop\n      pop\n      jump\t// out\n        /* \"#utility.yul\":1687:1819   */\n    tag_171:\n        /* \"#utility.yul\":1754:1758   */\n      0x00\n        /* \"#utility.yul\":1777:1780   */\n      dup2\n        /* \"#utility.yul\":1769:1780   */\n      swap1\n      pop\n        /* \"#utility.yul\":1807:1811   */\n      0x20\n        /* \"#utility.yul\":1802:1805   */\n      dup3\n        /* \"#utility.yul\":1798:1812   */\n      add\n        /* \"#utility.yul\":1790:1812   */\n      swap1\n      pop\n        /* \"#utility.yul\":1687:1819   */\n      swap2\n      swap1\n      pop\n      jump\t// out\n        /* \"#utility.yul\":1825:1951   */\n    tag_172:\n        /* \"#utility.yul\":1862:1869   */\n      0x00\n        /* \"#utility.yul\":1902:1944   */\n      0xffffffffffffffffffffffffffffffffffffffff\n        /* \"#utility.yul\":1895:1900   */\n      dup3\n        /* \"#utility.yul\":1891:1945   */\n      and\n        /* \"#utility.yul\":1880:1945   */\n      swap1\n      pop\n        /* \"#utility.yul\":1825:1951   */\n      swap2\n      swap1\n      pop\n      jump\t// out\n        /* \"#utility.yul\":1957:2053   */\n    tag_173:\n        /* \"#utility.yul\":1994:2001   */\n      0x00\n        /* \"#utility.yul\":2023:2047   */\n      tag_259\n        /* \"#utility.yul\":2041:2046   */\n      dup3\n        /* \"#utility.yul\":2023:2047   */\n      tag_172\n      jump\t// in\n    tag_259:\n        /* \"#utility.yul\":2012:2047   */\n      swap1\n      pop\n        /* \"#utility.yul\":1957:2053   */\n      swap2\n      swap1\n      pop\n      jump\t// out\n        /* \"#utility.yul\":2059:2167   */\n    tag_174:\n        /* \"#utility.yul\":2136:2160   */\n      tag_261\n        /* \"#utility.yul\":2154:2159   */\n      dup2\n        /* \"#utility.yul\":2136:2160   */\n      tag_173\n      jump\t// in\n    tag_261:\n        /* \"#utility.yul\":2131:2134   */\n      dup3\n        /* \"#utility.yul\":2124:2161   */\n      mstore\n        /* \"#utility.yul\":2059:2167   */\n      pop\n      pop\n      jump\t// out\n        /* \"#utility.yul\":2173:2352   */\n    tag_175:\n        /* \"#utility.yul\":2242:2252   */\n      0x00\n        /* \"#utility.yul\":2263:2309   */\n      tag_263\n        /* \"#utility.yul\":2305:2308   */\n      dup4\n        /* \"#utility.yul\":2297:2303   */\n      dup4\n        /* \"#utility.yul\":2263:2309   */\n      tag_174\n      jump\t// in\n    tag_263:\n        /* \"#utility.yul\":2341:2345   */\n      0x20\n        /* \"#utility.yul\":2336:2339   */\n      dup4\n        /* \"#utility.yul\":2332:2346   */\n      add\n        /* \"#utility.yul\":2318:2346   */\n      swap1\n      pop\n        /* \"#utility.yul\":2173:2352   */\n      swap3\n      swap2\n      pop\n      pop\n      jump\t// out\n        /* \"#utility.yul\":2358:2471   */\n    tag_176:\n        /* \"#utility.yul\":2428:2432   */\n      0x00\n        /* \"#utility.yul\":2460:2464   */\n      0x20\n        /* \"#utility.yul\":2455:2458   */\n      dup3\n        /* \"#utility.yul\":2451:2465   */\n      add\n        /* \"#utility.yul\":2443:2465   */\n      swap1\n      pop\n        /* \"#utility.yul\":2358:2471   */\n      swap2\n      swap1\n      pop\n      jump\t// out\n        /* \"#utility.yul\":2507:3239   */\n    tag_177:\n        /* \"#utility.yul\":2626:2629   */\n      0x00\n        /* \"#utility.yul\":2655:2709   */\n      tag_266\n        /* \"#utility.yul\":2703:2708   */\n      dup3\n        /* \"#utility.yul\":2655:2709   */\n      tag_169\n      jump\t// in\n    tag_266:\n        /* \"#utility.yul\":2725:2811   */\n      tag_267\n        /* \"#utility.yul\":2804:2810   */\n      dup2\n        /* \"#utility.yul\":2799:2802   */\n      dup6\n        /* \"#utility.yul\":2725:2811   */\n      tag_170\n      jump\t// in\n    tag_267:\n        /* \"#utility.yul\":2718:2811   */\n      swap4\n      pop\n        /* \"#utility.yul\":2835:2891   */\n      tag_268\n        /* \"#utility.yul\":2885:2890   */\n      dup4\n        /* \"#utility.yul\":2835:2891   */\n      tag_171\n      jump\t// in\n    tag_268:\n        /* \"#utility.yul\":2914:2921   */\n      dup1\n        /* \"#utility.yul\":2945:2946   */\n      0x00\n        /* \"#utility.yul\":2930:3214   */\n    tag_269:\n        /* \"#utility.yul\":2955:2961   */\n      dup4\n        /* \"#utility.yul\":2952:2953   */\n      dup2\n        /* \"#utility.yul\":2949:2962   */\n      lt\n        /* \"#utility.yul\":2930:3214   */\n      iszero\n      tag_271\n      jumpi\n        /* \"#utility.yul\":3031:3037   */\n      dup2\n        /* \"#utility.yul\":3025:3038   */\n      mload\n        /* \"#utility.yul\":3058:3121   */\n      tag_272\n        /* \"#utility.yul\":3117:3120   */\n      dup9\n        /* \"#utility.yul\":3102:3115   */\n      dup3\n        /* \"#utility.yul\":3058:3121   */\n      tag_175\n      jump\t// in\n    tag_272:\n        /* \"#utility.yul\":3051:3121   */\n      swap8\n      pop\n        /* \"#utility.yul\":3144:3204   */\n      tag_273\n        /* \"#utility.yul\":3197:3203   */\n      dup4\n        /* \"#utility.yul\":3144:3204   */\n      tag_176\n      jump\t// in\n    tag_273:\n        /* \"#utility.yul\":3134:3204   */\n      swap3\n      pop\n        /* \"#utility.yul\":2990:3214   */\n      pop\n        /* \"#utility.yul\":2977:2978   */\n      0x01\n        /* \"#utility.yul\":2974:2975   */\n      dup2\n        /* \"#utility.yul\":2970:2979   */\n      add\n        /* \"#utility.yul\":2965:2979   */\n      swap1\n      pop\n        /* \"#utility.yul\":2930:3214   */\n      jump(tag_269)\n    tag_271:\n        /* \"#utility.yul\":2934:2948   */\n      pop\n        /* \"#utility.yul\":3230:3233   */\n      dup6\n        /* \"#utility.yul\":3223:3233   */\n      swap4\n      pop\n        /* \"#utility.yul\":2631:3239   */\n      pop\n      pop\n      pop\n        /* \"#utility.yul\":2507:3239   */\n      swap3\n      swap2\n      pop\n      pop\n      jump\t// out\n        /* \"#utility.yul\":3245:3359   */\n    tag_178:\n        /* \"#utility.yul\":3312:3318   */\n      0x00\n        /* \"#utility.yul\":3346:3351   */\n      dup2\n        /* \"#utility.yul\":3340:3352   */\n      mload\n        /* \"#utility.yul\":3330:3352   */\n      swap1\n      pop\n        /* \"#utility.yul\":3245:3359   */\n      swap2\n      swap1\n      pop\n      jump\t// out\n        /* \"#utility.yul\":3365:3549   */\n    tag_179:\n        /* \"#utility.yul\":3464:3475   */\n      0x00\n        /* \"#utility.yul\":3498:3504   */\n      dup3\n        /* \"#utility.yul\":3493:3496   */\n      dup3\n        /* \"#utility.yul\":3486:3505   */\n      mstore\n        /* \"#utility.yul\":3538:3542   */\n      0x20\n        /* \"#utility.yul\":3533:3536   */\n      dup3\n        /* \"#utility.yul\":3529:3543   */\n      add\n        /* \"#utility.yul\":3514:3543   */\n      swap1\n      pop\n        /* \"#utility.yul\":3365:3549   */\n      swap3\n      swap2\n      pop\n      pop\n      jump\t// out\n        /* \"#utility.yul\":3555:3687   */\n    tag_180:\n        /* \"#utility.yul\":3622:3626   */\n      0x00\n        /* \"#utility.yul\":3645:3648   */\n      dup2\n        /* \"#utility.yul\":3637:3648   */\n      swap1\n      pop\n        /* \"#utility.yul\":3675:3679   */\n      0x20\n        /* \"#utility.yul\":3670:3673   */\n      dup3\n        /* \"#utility.yul\":3666:3680   */\n      add\n        /* \"#utility.yul\":3658:3680   */\n      swap1\n      pop\n        /* \"#utility.yul\":3555:3687   */\n      swap2\n      swap1\n      pop\n      jump\t// out\n        /* \"#utility.yul\":3693:3801   */\n    tag_181:\n        /* \"#utility.yul\":3770:3794   */\n      tag_278\n        /* \"#utility.yul\":3788:3793   */\n      dup2\n        /* \"#utility.yul\":3770:3794   */\n      tag_162\n      jump\t// in\n    tag_278:\n        /* \"#utility.yul\":3765:3768   */\n      dup3\n        /* \"#utility.yul\":3758:3795   */\n      mstore\n        /* \"#utility.yul\":3693:3801   */\n      pop\n      pop\n      jump\t// out\n        /* \"#utility.yul\":3807:3986   */\n    tag_182:\n        /* \"#utility.yul\":3876:3886   */\n      0x00\n        /* \"#utility.yul\":3897:3943   */\n      tag_280\n        /* \"#utility.yul\":3939:3942   */\n      dup4\n        /* \"#utility.yul\":3931:3937   */\n      dup4\n        /* \"#utility.yul\":3897:3943   */\n      tag_181\n      jump\t// in\n    tag_280:\n        /* \"#utility.yul\":3975:3979   */\n      0x20\n        /* \"#utility.yul\":3970:3973   */\n      dup4\n        /* \"#utility.yul\":3966:3980   */\n      add\n        /* \"#utility.yul\":3952:3980   */\n      swap1\n      pop\n        /* \"#utility.yul\":3807:3986   */\n      swap3\n      swap2\n      pop\n      pop\n      jump\t// out\n        /* \"#utility.yul\":3992:4105   */\n    tag_183:\n        /* \"#utility.yul\":4062:4066   */\n      0x00\n        /* \"#utility.yul\":4094:4098   */\n      0x20\n        /* \"#utility.yul\":4089:4092   */\n      dup3\n        /* \"#utility.yul\":4085:4099   */\n      add\n        /* \"#utility.yul\":4077:4099   */\n      swap1\n      pop\n        /* \"#utility.yul\":3992:4105   */\n      swap2\n      swap1\n      pop\n      jump\t// out\n        /* \"#utility.yul\":4141:4873   */\n    tag_184:\n        /* \"#utility.yul\":4260:4263   */\n      0x00\n        /* \"#utility.yul\":4289:4343   */\n      tag_283\n        /* \"#utility.yul\":4337:4342   */\n      dup3\n        /* \"#utility.yul\":4289:4343   */\n      tag_178\n      jump\t// in\n    tag_283:\n        /* \"#utility.yul\":4359:4445   */\n      tag_284\n        /* \"#utility.yul\":4438:4444   */\n      dup2\n        /* \"#utility.yul\":4433:4436   */\n      dup6\n        /* \"#utility.yul\":4359:4445   */\n      tag_179\n      jump\t// in\n    tag_284:\n        /* \"#utility.yul\":4352:4445   */\n      swap4\n      pop\n        /* \"#utility.yul\":4469:4525   */\n      tag_285\n        /* \"#utility.yul\":4519:4524   */\n      dup4\n        /* \"#utility.yul\":4469:4525   */\n      tag_180\n      jump\t// in\n    tag_285:\n        /* \"#utility.yul\":4548:4555   */\n      dup1\n        /* \"#utility.yul\":4579:4580   */\n      0x00\n        /* \"#utility.yul\":4564:4848   */\n    tag_286:\n        /* \"#utility.yul\":4589:4595   */\n      dup4\n        /* \"#utility.yul\":4586:4587   */\n      dup2\n        /* \"#utility.yul\":4583:4596   */\n      lt\n        /* \"#utility.yul\":4564:4848   */\n      iszero\n      tag_288\n      jumpi\n        /* \"#utility.yul\":4665:4671   */\n      dup2\n        /* \"#utility.yul\":4659:4672   */\n      mload\n        /* \"#utility.yul\":4692:4755   */\n      tag_289\n        /* \"#utility.yul\":4751:4754   */\n      dup9\n        /* \"#utility.yul\":4736:4749   */\n      dup3\n        /* \"#utility.yul\":4692:4755   */\n      tag_182\n      jump\t// in\n    tag_289:\n        /* \"#utility.yul\":4685:4755   */\n      swap8\n      pop\n        /* \"#utility.yul\":4778:4838   */\n      tag_290\n        /* \"#utility.yul\":4831:4837   */\n      dup4\n        /* \"#utility.yul\":4778:4838   */\n      tag_183\n      jump\t// in\n    tag_290:\n        /* \"#utility.yul\":4768:4838   */\n      swap3\n      pop\n        /* \"#utility.yul\":4624:4848   */\n      pop\n        /* \"#utility.yul\":4611:4612   */\n      0x01\n        /* \"#utility.yul\":4608:4609   */\n      dup2\n        /* \"#utility.yul\":4604:4613   */\n      add\n        /* \"#utility.yul\":4599:4613   */\n      swap1\n      pop\n        /* \"#utility.yul\":4564:4848   */\n      jump(tag_286)\n    tag_288:\n        /* \"#utility.yul\":4568:4582   */\n      pop\n        /* \"#utility.yul\":4864:4867   */\n      dup6\n        /* \"#utility.yul\":4857:4867   */\n      swap4\n      pop\n        /* \"#utility.yul\":4265:4873   */\n      pop\n      pop\n      pop\n        /* \"#utility.yul\":4141:4873   */\n      swap3\n      swap2\n      pop\n      pop\n      jump\t// out\n        /* \"#utility.yul\":4879:5513   */\n    tag_21:\n        /* \"#utility.yul\":5100:5104   */\n      0x00\n        /* \"#utility.yul\":5138:5140   */\n      0x40\n        /* \"#utility.yul\":5127:5136   */\n      dup3\n        /* \"#utility.yul\":5123:5141   */\n      add\n        /* \"#utility.yul\":5115:5141   */\n      swap1\n      pop\n        /* \"#utility.yul\":5187:5196   */\n      dup2\n        /* \"#utility.yul\":5181:5185   */\n      dup2\n        /* \"#utility.yul\":5177:5197   */\n      sub\n        /* \"#utility.yul\":5173:5174   */\n      0x00\n        /* \"#utility.yul\":5162:5171   */\n      dup4\n        /* \"#utility.yul\":5158:5175   */\n      add\n        /* \"#utility.yul\":5151:5198   */\n      mstore\n        /* \"#utility.yul\":5215:5323   */\n      tag_292\n        /* \"#utility.yul\":5318:5322   */\n      dup2\n        /* \"#utility.yul\":5309:5315   */\n      dup6\n        /* \"#utility.yul\":5215:5323   */\n      tag_177\n      jump\t// in\n    tag_292:\n        /* \"#utility.yul\":5207:5323   */\n      swap1\n      pop\n        /* \"#utility.yul\":5370:5379   */\n      dup2\n        /* \"#utility.yul\":5364:5368   */\n      dup2\n        /* \"#utility.yul\":5360:5380   */\n      sub\n        /* \"#utility.yul\":5355:5357   */\n      0x20\n        /* \"#utility.yul\":5344:5353   */\n      dup4\n        /* \"#utility.yul\":5340:5358   */\n      add\n        /* \"#utility.yul\":5333:5381   */\n      mstore\n        /* \"#utility.yul\":5398:5506   */\n      tag_293\n        /* \"#utility.yul\":5501:5505   */\n      dup2\n        /* \"#utility.yul\":5492:5498   */\n      dup5\n        /* \"#utility.yul\":5398:5506   */\n      tag_184\n      jump\t// in\n    tag_293:\n        /* \"#utility.yul\":5390:5506   */\n      swap1\n      pop\n        /* \"#utility.yul\":4879:5513   */\n      swap4\n      swap3\n      pop\n      pop\n      pop\n      jump\t// out\n        /* \"#utility.yul\":5519:5637   */\n    tag_185:\n        /* \"#utility.yul\":5606:5630   */\n      tag_295\n        /* \"#utility.yul\":5624:5629   */\n      dup2\n        /* \"#utility.yul\":5606:5630   */\n      tag_173\n      jump\t// in\n    tag_295:\n        /* \"#utility.yul\":5601:5604   */\n      dup3\n        /* \"#utility.yul\":5594:5631   */\n      mstore\n        /* \"#utility.yul\":5519:5637   */\n      pop\n      pop\n      jump\t// out\n        /* \"#utility.yul\":5643:5742   */\n    tag_186:\n        /* \"#utility.yul\":5695:5701   */\n      0x00\n        /* \"#utility.yul\":5729:5734   */\n      dup2\n        /* \"#utility.yul\":5723:5735   */\n      mload\n        /* \"#utility.yul\":5713:5735   */\n      swap1\n      pop\n        /* \"#utility.yul\":5643:5742   */\n      swap2\n      swap1\n      pop\n      jump\t// out\n        /* \"#utility.yul\":5748:5917   */\n    tag_187:\n        /* \"#utility.yul\":5832:5843   */\n      0x00\n        /* \"#utility.yul\":5866:5872   */\n      dup3\n        /* \"#utility.yul\":5861:5864   */\n      dup3\n        /* \"#utility.yul\":5854:5873   */\n      mstore\n        /* \"#utility.yul\":5906:5910   */\n      0x20\n        /* \"#utility.yul\":5901:5904   */\n      dup3\n        /* \"#utility.yul\":5897:5911   */\n      add\n        /* \"#utility.yul\":5882:5911   */\n      swap1\n      pop\n        /* \"#utility.yul\":5748:5917   */\n      swap3\n      swap2\n      pop\n      pop\n      jump\t// out\n        /* \"#utility.yul\":5923:6062   */\n    tag_188:\n        /* \"#utility.yul\":6012:6018   */\n      dup3\n        /* \"#utility.yul\":6007:6010   */\n      dup2\n        /* \"#utility.yul\":6002:6005   */\n      dup4\n        /* \"#utility.yul\":5996:6019   */\n      mcopy\n        /* \"#utility.yul\":6053:6054   */\n      0x00\n        /* \"#utility.yul\":6044:6050   */\n      dup4\n        /* \"#utility.yul\":6039:6042   */\n      dup4\n        /* \"#utility.yul\":6035:6051   */\n      add\n        /* \"#utility.yul\":6028:6055   */\n      mstore\n        /* \"#utility.yul\":5923:6062   */\n      pop\n      pop\n      pop\n      jump\t// out\n        /* \"#utility.yul\":6068:6170   */\n    tag_189:\n        /* \"#utility.yul\":6109:6115   */\n      0x00\n        /* \"#utility.yul\":6160:6162   */\n      0x1f\n        /* \"#utility.yul\":6156:6163   */\n      not\n        /* \"#utility.yul\":6151:6153   */\n      0x1f\n        /* \"#utility.yul\":6144:6149   */\n      dup4\n        /* \"#utility.yul\":6140:6154   */\n      add\n        /* \"#utility.yul\":6136:6164   */\n      and\n        /* \"#utility.yul\":6126:6164   */\n      swap1\n      pop\n        /* \"#utility.yul\":6068:6170   */\n      swap2\n      swap1\n      pop\n      jump\t// out\n        /* \"#utility.yul\":6176:6553   */\n    tag_190:\n        /* \"#utility.yul\":6264:6267   */\n      0x00\n        /* \"#utility.yul\":6292:6331   */\n      tag_301\n        /* \"#utility.yul\":6325:6330   */\n      dup3\n        /* \"#utility.yul\":6292:6331   */\n      tag_186\n      jump\t// in\n    tag_301:\n        /* \"#utility.yul\":6347:6418   */\n      tag_302\n        /* \"#utility.yul\":6411:6417   */\n      dup2\n        /* \"#utility.yul\":6406:6409   */\n      dup6\n        /* \"#utility.yul\":6347:6418   */\n      tag_187\n      jump\t// in\n    tag_302:\n        /* \"#utility.yul\":6340:6418   */\n      swap4\n      pop\n        /* \"#utility.yul\":6427:6492   */\n      tag_303\n        /* \"#utility.yul\":6485:6491   */\n      dup2\n        /* \"#utility.yul\":6480:6483   */\n      dup6\n        /* \"#utility.yul\":6473:6477   */\n      0x20\n        /* \"#utility.yul\":6466:6471   */\n      dup7\n        /* \"#utility.yul\":6462:6478   */\n      add\n        /* \"#utility.yul\":6427:6492   */\n      tag_188\n      jump\t// in\n    tag_303:\n        /* \"#utility.yul\":6517:6546   */\n      tag_304\n        /* \"#utility.yul\":6539:6545   */\n      dup2\n        /* \"#utility.yul\":6517:6546   */\n      tag_189\n      jump\t// in\n    tag_304:\n        /* \"#utility.yul\":6512:6515   */\n      dup5\n        /* \"#utility.yul\":6508:6547   */\n      add\n        /* \"#utility.yul\":6501:6547   */\n      swap2\n      pop\n        /* \"#utility.yul\":6268:6553   */\n      pop\n        /* \"#utility.yul\":6176:6553   */\n      swap3\n      swap2\n      pop\n      pop\n      jump\t// out\n        /* \"#utility.yul\":6559:7718   */\n    tag_27:\n        /* \"#utility.yul\":6880:6884   */\n      0x00\n        /* \"#utility.yul\":6918:6921   */\n      0xe0\n        /* \"#utility.yul\":6907:6916   */\n      dup3\n        /* \"#utility.yul\":6903:6922   */\n      add\n        /* \"#utility.yul\":6895:6922   */\n      swap1\n      pop\n        /* \"#utility.yul\":6932:7003   */\n      tag_306\n        /* \"#utility.yul\":7000:7001   */\n      0x00\n        /* \"#utility.yul\":6989:6998   */\n      dup4\n        /* \"#utility.yul\":6985:7002   */\n      add\n        /* \"#utility.yul\":6976:6982   */\n      dup11\n        /* \"#utility.yul\":6932:7003   */\n      tag_185\n      jump\t// in\n    tag_306:\n        /* \"#utility.yul\":7050:7059   */\n      dup2\n        /* \"#utility.yul\":7044:7048   */\n      dup2\n        /* \"#utility.yul\":7040:7060   */\n      sub\n        /* \"#utility.yul\":7035:7037   */\n      0x20\n        /* \"#utility.yul\":7024:7033   */\n      dup4\n        /* \"#utility.yul\":7020:7038   */\n      add\n        /* \"#utility.yul\":7013:7061   */\n      mstore\n        /* \"#utility.yul\":7078:7156   */\n      tag_307\n        /* \"#utility.yul\":7151:7155   */\n      dup2\n        /* \"#utility.yul\":7142:7148   */\n      dup10\n        /* \"#utility.yul\":7078:7156   */\n      tag_190\n      jump\t// in\n    tag_307:\n        /* \"#utility.yul\":7070:7156   */\n      swap1\n      pop\n        /* \"#utility.yul\":7203:7212   */\n      dup2\n        /* \"#utility.yul\":7197:7201   */\n      dup2\n        /* \"#utility.yul\":7193:7213   */\n      sub\n        /* \"#utility.yul\":7188:7190   */\n      0x40\n        /* \"#utility.yul\":7177:7186   */\n      dup4\n        /* \"#utility.yul\":7173:7191   */\n      add\n        /* \"#utility.yul\":7166:7214   */\n      mstore\n        /* \"#utility.yul\":7231:7309   */\n      tag_308\n        /* \"#utility.yul\":7304:7308   */\n      dup2\n        /* \"#utility.yul\":7295:7301   */\n      dup9\n        /* \"#utility.yul\":7231:7309   */\n      tag_190\n      jump\t// in\n    tag_308:\n        /* \"#utility.yul\":7223:7309   */\n      swap1\n      pop\n        /* \"#utility.yul\":7319:7391   */\n      tag_309\n        /* \"#utility.yul\":7387:7389   */\n      0x60\n        /* \"#utility.yul\":7376:7385   */\n      dup4\n        /* \"#utility.yul\":7372:7390   */\n      add\n        /* \"#utility.yul\":7363:7369   */\n      dup8\n        /* \"#utility.yul\":7319:7391   */\n      tag_163\n      jump\t// in\n    tag_309:\n        /* \"#utility.yul\":7401:7474   */\n      tag_310\n        /* \"#utility.yul\":7469:7472   */\n      0x80\n        /* \"#utility.yul\":7458:7467   */\n      dup4\n        /* \"#utility.yul\":7454:7473   */\n      add\n        /* \"#utility.yul\":7445:7451   */\n      dup7\n        /* \"#utility.yul\":7401:7474   */\n      tag_163\n      jump\t// in\n    tag_310:\n        /* \"#utility.yul\":7484:7557   */\n      tag_311\n        /* \"#utility.yul\":7552:7555   */\n      0xa0\n        /* \"#utility.yul\":7541:7550   */\n      dup4\n        /* \"#utility.yul\":7537:7556   */\n      add\n        /* \"#utility.yul\":7528:7534   */\n      dup6\n        /* \"#utility.yul\":7484:7557   */\n      tag_163\n      jump\t// in\n    tag_311:\n        /* \"#utility.yul\":7605:7614   */\n      dup2\n        /* \"#utility.yul\":7599:7603   */\n      dup2\n        /* \"#utility.yul\":7595:7615   */\n      sub\n        /* \"#utility.yul\":7589:7592   */\n      0xc0\n        /* \"#utility.yul\":7578:7587   */\n      dup4\n        /* \"#utility.yul\":7574:7593   */\n      add\n        /* \"#utility.yul\":7567:7616   */\n      mstore\n        /* \"#utility.yul\":7633:7711   */\n      tag_312\n        /* \"#utility.yul\":7706:7710   */\n      dup2\n        /* \"#utility.yul\":7697:7703   */\n      dup5\n        /* \"#utility.yul\":7633:7711   */\n      tag_190\n      jump\t// in\n    tag_312:\n        /* \"#utility.yul\":7625:7711   */\n      swap1\n      pop\n        /* \"#utility.yul\":6559:7718   */\n      swap9\n      swap8\n      pop\n      pop\n      pop\n      pop\n      pop\n      pop\n      pop\n      pop\n      jump\t// out\n        /* \"#utility.yul\":7724:7846   */\n    tag_191:\n        /* \"#utility.yul\":7797:7821   */\n      tag_314\n        /* \"#utility.yul\":7815:7820   */\n      dup2\n        /* \"#utility.yul\":7797:7821   */\n      tag_173\n      jump\t// in\n    tag_314:\n        /* \"#utility.yul\":7790:7795   */\n      dup2\n        /* \"#utility.yul\":7787:7822   */\n      eq\n        /* \"#utility.yul\":7777:7840   */\n      tag_315\n      jumpi\n        /* \"#utility.yul\":7836:7837   */\n      0x00\n        /* \"#utility.yul\":7833:7834   */\n      dup1\n        /* \"#utility.yul\":7826:7838   */\n      revert\n        /* \"#utility.yul\":7777:7840   */\n    tag_315:\n        /* \"#utility.yul\":7724:7846   */\n      pop\n      jump\t// out\n        /* \"#utility.yul\":7852:7991   */\n    tag_192:\n        /* \"#utility.yul\":7898:7903   */\n      0x00\n        /* \"#utility.yul\":7936:7942   */\n      dup2\n        /* \"#utility.yul\":7923:7943   */\n      calldataload\n        /* \"#utility.yul\":7914:7943   */\n      swap1\n      pop\n        /* \"#utility.yul\":7952:7985   */\n      tag_317\n        /* \"#utility.yul\":7979:7984   */\n      dup2\n        /* \"#utility.yul\":7952:7985   */\n      tag_191\n      jump\t// in\n    tag_317:\n        /* \"#utility.yul\":7852:7991   */\n      swap3\n      swap2\n      pop\n      pop\n      jump\t// out\n        /* \"#utility.yul\":7997:8114   */\n    tag_193:\n        /* \"#utility.yul\":8106:8107   */\n      0x00\n        /* \"#utility.yul\":8103:8104   */\n      dup1\n        /* \"#utility.yul\":8096:8108   */\n      revert\n        /* \"#utility.yul\":8120:8237   */\n    tag_194:\n        /* \"#utility.yul\":8229:8230   */\n      0x00\n        /* \"#utility.yul\":8226:8227   */\n      dup1\n        /* \"#utility.yul\":8219:8231   */\n      revert\n        /* \"#utility.yul\":8243:8423   */\n    tag_100:\n        /* \"#utility.yul\":8291:8368   */\n      0x4e487b7100000000000000000000000000000000000000000000000000000000\n        /* \"#utility.yul\":8288:8289   */\n      0x00\n        /* \"#utility.yul\":8281:8369   */\n      mstore\n        /* \"#utility.yul\":8388:8392   */\n      0x41\n        /* \"#utility.yul\":8385:8386   */\n      0x04\n        /* \"#utility.yul\":8378:8393   */\n      mstore\n        /* \"#utility.yul\":8412:8416   */\n      0x24\n        /* \"#utility.yul\":8409:8410   */\n      0x00\n        /* \"#utility.yul\":8402:8417   */\n      revert\n        /* \"#utility.yul\":8429:8710   */\n    tag_195:\n        /* \"#utility.yul\":8512:8539   */\n      tag_322\n        /* \"#utility.yul\":8534:8538   */\n      dup3\n        /* \"#utility.yul\":8512:8539   */\n      tag_189\n      jump\t// in\n    tag_322:\n        /* \"#utility.yul\":8504:8510   */\n      dup2\n        /* \"#utility.yul\":8500:8540   */\n      add\n        /* \"#utility.yul\":8642:8648   */\n      dup2\n        /* \"#utility.yul\":8630:8640   */\n      dup2\n        /* \"#utility.yul\":8627:8649   */\n      lt\n        /* \"#utility.yul\":8606:8624   */\n      0xffffffffffffffff\n        /* \"#utility.yul\":8594:8604   */\n      dup3\n        /* \"#utility.yul\":8591:8625   */\n      gt\n        /* \"#utility.yul\":8588:8650   */\n      or\n        /* \"#utility.yul\":8585:8673   */\n      iszero\n      tag_323\n      jumpi\n        /* \"#utility.yul\":8653:8671   */\n      tag_324\n      tag_100\n      jump\t// in\n    tag_324:\n        /* \"#utility.yul\":8585:8673   */\n    tag_323:\n        /* \"#utility.yul\":8693:8703   */\n      dup1\n        /* \"#utility.yul\":8689:8691   */\n      0x40\n        /* \"#utility.yul\":8682:8704   */\n      mstore\n        /* \"#utility.yul\":8472:8710   */\n      pop\n        /* \"#utility.yul\":8429:8710   */\n      pop\n      pop\n      jump\t// out\n        /* \"#utility.yul\":8716:8845   */\n    tag_196:\n        /* \"#utility.yul\":8750:8756   */\n      0x00\n        /* \"#utility.yul\":8777:8797   */\n      tag_326\n      tag_164\n      jump\t// in\n    tag_326:\n        /* \"#utility.yul\":8767:8797   */\n      swap1\n      pop\n        /* \"#utility.yul\":8806:8839   */\n      tag_327\n        /* \"#utility.yul\":8834:8838   */\n      dup3\n        /* \"#utility.yul\":8826:8832   */\n      dup3\n        /* \"#utility.yul\":8806:8839   */\n      tag_195\n      jump\t// in\n    tag_327:\n        /* \"#utility.yul\":8716:8845   */\n      swap2\n      swap1\n      pop\n      jump\t// out\n        /* \"#utility.yul\":8851:9159   */\n    tag_197:\n        /* \"#utility.yul\":8913:8917   */\n      0x00\n        /* \"#utility.yul\":9003:9021   */\n      0xffffffffffffffff\n        /* \"#utility.yul\":8995:9001   */\n      dup3\n        /* \"#utility.yul\":8992:9022   */\n      gt\n        /* \"#utility.yul\":8989:9045   */\n      iszero\n      tag_329\n      jumpi\n        /* \"#utility.yul\":9025:9043   */\n      tag_330\n      tag_100\n      jump\t// in\n    tag_330:\n        /* \"#utility.yul\":8989:9045   */\n    tag_329:\n        /* \"#utility.yul\":9063:9092   */\n      tag_331\n        /* \"#utility.yul\":9085:9091   */\n      dup3\n        /* \"#utility.yul\":9063:9092   */\n      tag_189\n      jump\t// in\n    tag_331:\n        /* \"#utility.yul\":9055:9092   */\n      swap1\n      pop\n        /* \"#utility.yul\":9147:9151   */\n      0x20\n        /* \"#utility.yul\":9141:9145   */\n      dup2\n        /* \"#utility.yul\":9137:9152   */\n      add\n        /* \"#utility.yul\":9129:9152   */\n      swap1\n      pop\n        /* \"#utility.yul\":8851:9159   */\n      swap2\n      swap1\n      pop\n      jump\t// out\n        /* \"#utility.yul\":9165:9313   */\n    tag_198:\n        /* \"#utility.yul\":9263:9269   */\n      dup3\n        /* \"#utility.yul\":9258:9261   */\n      dup2\n        /* \"#utility.yul\":9253:9256   */\n      dup4\n        /* \"#utility.yul\":9240:9270   */\n      calldatacopy\n        /* \"#utility.yul\":9304:9305   */\n      0x00\n        /* \"#utility.yul\":9295:9301   */\n      dup4\n        /* \"#utility.yul\":9290:9293   */\n      dup4\n        /* \"#utility.yul\":9286:9302   */\n      add\n        /* \"#utility.yul\":9279:9306   */\n      mstore\n        /* \"#utility.yul\":9165:9313   */\n      pop\n      pop\n      pop\n      jump\t// out\n        /* \"#utility.yul\":9319:9744   */\n    tag_199:\n        /* \"#utility.yul\":9397:9402   */\n      0x00\n        /* \"#utility.yul\":9422:9488   */\n      tag_334\n        /* \"#utility.yul\":9438:9487   */\n      tag_335\n        /* \"#utility.yul\":9480:9486   */\n      dup5\n        /* \"#utility.yul\":9438:9487   */\n      tag_197\n      jump\t// in\n    tag_335:\n        /* \"#utility.yul\":9422:9488   */\n      tag_196\n      jump\t// in\n    tag_334:\n        /* \"#utility.yul\":9413:9488   */\n      swap1\n      pop\n        /* \"#utility.yul\":9511:9517   */\n      dup3\n        /* \"#utility.yul\":9504:9509   */\n      dup2\n        /* \"#utility.yul\":9497:9518   */\n      mstore\n        /* \"#utility.yul\":9549:9553   */\n      0x20\n        /* \"#utility.yul\":9542:9547   */\n      dup2\n        /* \"#utility.yul\":9538:9554   */\n      add\n        /* \"#utility.yul\":9587:9590   */\n      dup5\n        /* \"#utility.yul\":9578:9584   */\n      dup5\n        /* \"#utility.yul\":9573:9576   */\n      dup5\n        /* \"#utility.yul\":9569:9585   */\n      add\n        /* \"#utility.yul\":9566:9591   */\n      gt\n        /* \"#utility.yul\":9563:9675   */\n      iszero\n      tag_336\n      jumpi\n        /* \"#utility.yul\":9594:9673   */\n      tag_337\n      tag_194\n      jump\t// in\n    tag_337:\n        /* \"#utility.yul\":9563:9675   */\n    tag_336:\n        /* \"#utility.yul\":9684:9738   */\n      tag_338\n        /* \"#utility.yul\":9731:9737   */\n      dup5\n        /* \"#utility.yul\":9726:9729   */\n      dup3\n        /* \"#utility.yul\":9721:9724   */\n      dup6\n        /* \"#utility.yul\":9684:9738   */\n      tag_198\n      jump\t// in\n    tag_338:\n        /* \"#utility.yul\":9403:9744   */\n      pop\n        /* \"#utility.yul\":9319:9744   */\n      swap4\n      swap3\n      pop\n      pop\n      pop\n      jump\t// out\n        /* \"#utility.yul\":9764:10104   */\n    tag_200:\n        /* \"#utility.yul\":9820:9825   */\n      0x00\n        /* \"#utility.yul\":9869:9872   */\n      dup3\n        /* \"#utility.yul\":9862:9866   */\n      0x1f\n        /* \"#utility.yul\":9854:9860   */\n      dup4\n        /* \"#utility.yul\":9850:9867   */\n      add\n        /* \"#utility.yul\":9846:9873   */\n      slt\n        /* \"#utility.yul\":9836:9958   */\n      tag_340\n      jumpi\n        /* \"#utility.yul\":9877:9956   */\n      tag_341\n      tag_193\n      jump\t// in\n    tag_341:\n        /* \"#utility.yul\":9836:9958   */\n    tag_340:\n        /* \"#utility.yul\":9994:10000   */\n      dup2\n        /* \"#utility.yul\":9981:10001   */\n      calldataload\n        /* \"#utility.yul\":10019:10098   */\n      tag_342\n        /* \"#utility.yul\":10094:10097   */\n      dup5\n        /* \"#utility.yul\":10086:10092   */\n      dup3\n        /* \"#utility.yul\":10079:10083   */\n      0x20\n        /* \"#utility.yul\":10071:10077   */\n      dup7\n        /* \"#utility.yul\":10067:10084   */\n      add\n        /* \"#utility.yul\":10019:10098   */\n      tag_199\n      jump\t// in\n    tag_342:\n        /* \"#utility.yul\":10010:10098   */\n      swap2\n      pop\n        /* \"#utility.yul\":9826:10104   */\n      pop\n        /* \"#utility.yul\":9764:10104   */\n      swap3\n      swap2\n      pop\n      pop\n      jump\t// out\n        /* \"#utility.yul\":10110:11707   */\n    tag_34:\n        /* \"#utility.yul\":10244:10250   */\n      0x00\n        /* \"#utility.yul\":10252:10258   */\n      dup1\n        /* \"#utility.yul\":10260:10266   */\n      0x00\n        /* \"#utility.yul\":10268:10274   */\n      dup1\n        /* \"#utility.yul\":10276:10282   */\n      0x00\n        /* \"#utility.yul\":10284:10290   */\n      dup1\n        /* \"#utility.yul\":10333:10336   */\n      0xc0\n        /* \"#utility.yul\":10321:10330   */\n      dup8\n        /* \"#utility.yul\":10312:10319   */\n      dup10\n        /* \"#utility.yul\":10308:10331   */\n      sub\n        /* \"#utility.yul\":10304:10337   */\n      slt\n        /* \"#utility.yul\":10301:10421   */\n      iszero\n      tag_344\n      jumpi\n        /* \"#utility.yul\":10340:10419   */\n      tag_345\n      tag_165\n      jump\t// in\n    tag_345:\n        /* \"#utility.yul\":10301:10421   */\n    tag_344:\n        /* \"#utility.yul\":10460:10461   */\n      0x00\n        /* \"#utility.yul\":10485:10538   */\n      tag_346\n        /* \"#utility.yul\":10530:10537   */\n      dup10\n        /* \"#utility.yul\":10521:10527   */\n      dup3\n        /* \"#utility.yul\":10510:10519   */\n      dup11\n        /* \"#utility.yul\":10506:10528   */\n      add\n        /* \"#utility.yul\":10485:10538   */\n      tag_192\n      jump\t// in\n    tag_346:\n        /* \"#utility.yul\":10475:10538   */\n      swap7\n      pop\n        /* \"#utility.yul\":10431:10548   */\n      pop\n        /* \"#utility.yul\":10615:10617   */\n      0x20\n        /* \"#utility.yul\":10604:10613   */\n      dup8\n        /* \"#utility.yul\":10600:10618   */\n      add\n        /* \"#utility.yul\":10587:10619   */\n      calldataload\n        /* \"#utility.yul\":10646:10664   */\n      0xffffffffffffffff\n        /* \"#utility.yul\":10638:10644   */\n      dup2\n        /* \"#utility.yul\":10635:10665   */\n      gt\n        /* \"#utility.yul\":10632:10749   */\n      iszero\n      tag_347\n      jumpi\n        /* \"#utility.yul\":10668:10747   */\n      tag_348\n      tag_166\n      jump\t// in\n    tag_348:\n        /* \"#utility.yul\":10632:10749   */\n    tag_347:\n        /* \"#utility.yul\":10773:10836   */\n      tag_349\n        /* \"#utility.yul\":10828:10835   */\n      dup10\n        /* \"#utility.yul\":10819:10825   */\n      dup3\n        /* \"#utility.yul\":10808:10817   */\n      dup11\n        /* \"#utility.yul\":10804:10826   */\n      add\n        /* \"#utility.yul\":10773:10836   */\n      tag_200\n      jump\t// in\n    tag_349:\n        /* \"#utility.yul\":10763:10836   */\n      swap6\n      pop\n        /* \"#utility.yul\":10558:10846   */\n      pop\n        /* \"#utility.yul\":10913:10915   */\n      0x40\n        /* \"#utility.yul\":10902:10911   */\n      dup8\n        /* \"#utility.yul\":10898:10916   */\n      add\n        /* \"#utility.yul\":10885:10917   */\n      calldataload\n        /* \"#utility.yul\":10944:10962   */\n      0xffffffffffffffff\n        /* \"#utility.yul\":10936:10942   */\n      dup2\n        /* \"#utility.yul\":10933:10963   */\n      gt\n        /* \"#utility.yul\":10930:11047   */\n      iszero\n      tag_350\n      jumpi\n        /* \"#utility.yul\":10966:11045   */\n      tag_351\n      tag_166\n      jump\t// in\n    tag_351:\n        /* \"#utility.yul\":10930:11047   */\n    tag_350:\n        /* \"#utility.yul\":11071:11134   */\n      tag_352\n        /* \"#utility.yul\":11126:11133   */\n      dup10\n        /* \"#utility.yul\":11117:11123   */\n      dup3\n        /* \"#utility.yul\":11106:11115   */\n      dup11\n        /* \"#utility.yul\":11102:11124   */\n      add\n        /* \"#utility.yul\":11071:11134   */\n      tag_200\n      jump\t// in\n    tag_352:\n        /* \"#utility.yul\":11061:11134   */\n      swap5\n      pop\n        /* \"#utility.yul\":10856:11144   */\n      pop\n        /* \"#utility.yul\":11183:11185   */\n      0x60\n        /* \"#utility.yul\":11209:11262   */\n      tag_353\n        /* \"#utility.yul\":11254:11261   */\n      dup10\n        /* \"#utility.yul\":11245:11251   */\n      dup3\n        /* \"#utility.yul\":11234:11243   */\n      dup11\n        /* \"#utility.yul\":11230:11252   */\n      add\n        /* \"#utility.yul\":11209:11262   */\n      tag_168\n      jump\t// in\n    tag_353:\n        /* \"#utility.yul\":11199:11262   */\n      swap4\n      pop\n        /* \"#utility.yul\":11154:11272   */\n      pop\n        /* \"#utility.yul\":11311:11314   */\n      0x80\n        /* \"#utility.yul\":11338:11391   */\n      tag_354\n        /* \"#utility.yul\":11383:11390   */\n      dup10\n        /* \"#utility.yul\":11374:11380   */\n      dup3\n        /* \"#utility.yul\":11363:11372   */\n      dup11\n        /* \"#utility.yul\":11359:11381   */\n      add\n        /* \"#utility.yul\":11338:11391   */\n      tag_168\n      jump\t// in\n    tag_354:\n        /* \"#utility.yul\":11328:11391   */\n      swap3\n      pop\n        /* \"#utility.yul\":11282:11401   */\n      pop\n        /* \"#utility.yul\":11468:11471   */\n      0xa0\n        /* \"#utility.yul\":11457:11466   */\n      dup8\n        /* \"#utility.yul\":11453:11472   */\n      add\n        /* \"#utility.yul\":11440:11473   */\n      calldataload\n        /* \"#utility.yul\":11500:11518   */\n      0xffffffffffffffff\n        /* \"#utility.yul\":11492:11498   */\n      dup2\n        /* \"#utility.yul\":11489:11519   */\n      gt\n        /* \"#utility.yul\":11486:11603   */\n      iszero\n      tag_355\n      jumpi\n        /* \"#utility.yul\":11522:11601   */\n      tag_356\n      tag_166\n      jump\t// in\n    tag_356:\n        /* \"#utility.yul\":11486:11603   */\n    tag_355:\n        /* \"#utility.yul\":11627:11690   */\n      tag_357\n        /* \"#utility.yul\":11682:11689   */\n      dup10\n        /* \"#utility.yul\":11673:11679   */\n      dup3\n        /* \"#utility.yul\":11662:11671   */\n      dup11\n        /* \"#utility.yul\":11658:11680   */\n      add\n        /* \"#utility.yul\":11627:11690   */\n      tag_200\n      jump\t// in\n    tag_357:\n        /* \"#utility.yul\":11617:11690   */\n      swap2\n      pop\n        /* \"#utility.yul\":11411:11700   */\n      pop\n        /* \"#utility.yul\":10110:11707   */\n      swap3\n      swap6\n      pop\n      swap3\n      swap6\n      pop\n      swap3\n      swap6\n      jump\t// out\n        /* \"#utility.yul\":11713:12042   */\n    tag_40:\n        /* \"#utility.yul\":11772:11778   */\n      0x00\n        /* \"#utility.yul\":11821:11823   */\n      0x20\n        /* \"#utility.yul\":11809:11818   */\n      dup3\n        /* \"#utility.yul\":11800:11807   */\n      dup5\n        /* \"#utility.yul\":11796:11819   */\n      sub\n        /* \"#utility.yul\":11792:11824   */\n      slt\n        /* \"#utility.yul\":11789:11908   */\n      iszero\n      tag_359\n      jumpi\n        /* \"#utility.yul\":11827:11906   */\n      tag_360\n      tag_165\n      jump\t// in\n    tag_360:\n        /* \"#utility.yul\":11789:11908   */\n    tag_359:\n        /* \"#utility.yul\":11947:11948   */\n      0x00\n        /* \"#utility.yul\":11972:12025   */\n      tag_361\n        /* \"#utility.yul\":12017:12024   */\n      dup5\n        /* \"#utility.yul\":12008:12014   */\n      dup3\n        /* \"#utility.yul\":11997:12006   */\n      dup6\n        /* \"#utility.yul\":11993:12015   */\n      add\n        /* \"#utility.yul\":11972:12025   */\n      tag_192\n      jump\t// in\n    tag_361:\n        /* \"#utility.yul\":11962:12025   */\n      swap2\n      pop\n        /* \"#utility.yul\":11918:12035   */\n      pop\n        /* \"#utility.yul\":11713:12042   */\n      swap3\n      swap2\n      pop\n      pop\n      jump\t// out\n        /* \"#utility.yul\":12048:12186   */\n    tag_201:\n        /* \"#utility.yul\":12139:12145   */\n      0x00\n        /* \"#utility.yul\":12173:12178   */\n      dup2\n        /* \"#utility.yul\":12167:12179   */\n      mload\n        /* \"#utility.yul\":12157:12179   */\n      swap1\n      pop\n        /* \"#utility.yul\":12048:12186   */\n      swap2\n      swap1\n      pop\n      jump\t// out\n        /* \"#utility.yul\":12192:12400   */\n    tag_202:\n        /* \"#utility.yul\":12315:12326   */\n      0x00\n        /* \"#utility.yul\":12349:12355   */\n      dup3\n        /* \"#utility.yul\":12344:12347   */\n      dup3\n        /* \"#utility.yul\":12337:12356   */\n      mstore\n        /* \"#utility.yul\":12389:12393   */\n      0x20\n        /* \"#utility.yul\":12384:12387   */\n      dup3\n        /* \"#utility.yul\":12380:12394   */\n      add\n        /* \"#utility.yul\":12365:12394   */\n      swap1\n      pop\n        /* \"#utility.yul\":12192:12400   */\n      swap3\n      swap2\n      pop\n      pop\n      jump\t// out\n        /* \"#utility.yul\":12406:12562   */\n    tag_203:\n        /* \"#utility.yul\":12497:12501   */\n      0x00\n        /* \"#utility.yul\":12520:12523   */\n      dup2\n        /* \"#utility.yul\":12512:12523   */\n      swap1\n      pop\n        /* \"#utility.yul\":12550:12554   */\n      0x20\n        /* \"#utility.yul\":12545:12548   */\n      dup3\n        /* \"#utility.yul\":12541:12555   */\n      add\n        /* \"#utility.yul\":12533:12555   */\n      swap1\n      pop\n        /* \"#utility.yul\":12406:12562   */\n      swap2\n      swap1\n      pop\n      jump\t// out\n        /* \"#utility.yul\":12568:12727   */\n    tag_204:\n        /* \"#utility.yul\":12642:12653   */\n      0x00\n        /* \"#utility.yul\":12676:12682   */\n      dup3\n        /* \"#utility.yul\":12671:12674   */\n      dup3\n        /* \"#utility.yul\":12664:12683   */\n      mstore\n        /* \"#utility.yul\":12716:12720   */\n      0x20\n        /* \"#utility.yul\":12711:12714   */\n      dup3\n        /* \"#utility.yul\":12707:12721   */\n      add\n        /* \"#utility.yul\":12692:12721   */\n      swap1\n      pop\n        /* \"#utility.yul\":12568:12727   */\n      swap3\n      swap2\n      pop\n      pop\n      jump\t// out\n        /* \"#utility.yul\":12733:13090   */\n    tag_205:\n        /* \"#utility.yul\":12811:12814   */\n      0x00\n        /* \"#utility.yul\":12839:12878   */\n      tag_367\n        /* \"#utility.yul\":12872:12877   */\n      dup3\n        /* \"#utility.yul\":12839:12878   */\n      tag_186\n      jump\t// in\n    tag_367:\n        /* \"#utility.yul\":12894:12955   */\n      tag_368\n        /* \"#utility.yul\":12948:12954   */\n      dup2\n        /* \"#utility.yul\":12943:12946   */\n      dup6\n        /* \"#utility.yul\":12894:12955   */\n      tag_204\n      jump\t// in\n    tag_368:\n        /* \"#utility.yul\":12887:12955   */\n      swap4\n      pop\n        /* \"#utility.yul\":12964:13029   */\n      tag_369\n        /* \"#utility.yul\":13022:13028   */\n      dup2\n        /* \"#utility.yul\":13017:13020   */\n      dup6\n        /* \"#utility.yul\":13010:13014   */\n      0x20\n        /* \"#utility.yul\":13003:13008   */\n      dup7\n        /* \"#utility.yul\":12999:13015   */\n      add\n        /* \"#utility.yul\":12964:13029   */\n      tag_188\n      jump\t// in\n    tag_369:\n        /* \"#utility.yul\":13054:13083   */\n      tag_370\n        /* \"#utility.yul\":13076:13082   */\n      dup2\n        /* \"#utility.yul\":13054:13083   */\n      tag_189\n      jump\t// in\n    tag_370:\n        /* \"#utility.yul\":13049:13052   */\n      dup5\n        /* \"#utility.yul\":13045:13084   */\n      add\n        /* \"#utility.yul\":13038:13084   */\n      swap2\n      pop\n        /* \"#utility.yul\":12815:13090   */\n      pop\n        /* \"#utility.yul\":12733:13090   */\n      swap3\n      swap2\n      pop\n      pop\n      jump\t// out\n        /* \"#utility.yul\":13096:13270   */\n    tag_206:\n        /* \"#utility.yul\":13185:13196   */\n      0x00\n        /* \"#utility.yul\":13219:13225   */\n      dup3\n        /* \"#utility.yul\":13214:13217   */\n      dup3\n        /* \"#utility.yul\":13207:13226   */\n      mstore\n        /* \"#utility.yul\":13259:13263   */\n      0x20\n        /* \"#utility.yul\":13254:13257   */\n      dup3\n        /* \"#utility.yul\":13250:13264   */\n      add\n        /* \"#utility.yul\":13235:13264   */\n      swap1\n      pop\n        /* \"#utility.yul\":13096:13270   */\n      swap3\n      swap2\n      pop\n      pop\n      jump\t// out\n        /* \"#utility.yul\":13306:14018   */\n    tag_207:\n        /* \"#utility.yul\":13415:13418   */\n      0x00\n        /* \"#utility.yul\":13444:13498   */\n      tag_373\n        /* \"#utility.yul\":13492:13497   */\n      dup3\n        /* \"#utility.yul\":13444:13498   */\n      tag_169\n      jump\t// in\n    tag_373:\n        /* \"#utility.yul\":13514:13590   */\n      tag_374\n        /* \"#utility.yul\":13583:13589   */\n      dup2\n        /* \"#utility.yul\":13578:13581   */\n      dup6\n        /* \"#utility.yul\":13514:13590   */\n      tag_206\n      jump\t// in\n    tag_374:\n        /* \"#utility.yul\":13507:13590   */\n      swap4\n      pop\n        /* \"#utility.yul\":13614:13670   */\n      tag_375\n        /* \"#utility.yul\":13664:13669   */\n      dup4\n        /* \"#utility.yul\":13614:13670   */\n      tag_171\n      jump\t// in\n    tag_375:\n        /* \"#utility.yul\":13693:13700   */\n      dup1\n        /* \"#utility.yul\":13724:13725   */\n      0x00\n        /* \"#utility.yul\":13709:13993   */\n    tag_376:\n        /* \"#utility.yul\":13734:13740   */\n      dup4\n        /* \"#utility.yul\":13731:13732   */\n      dup2\n        /* \"#utility.yul\":13728:13741   */\n      lt\n        /* \"#utility.yul\":13709:13993   */\n      iszero\n      tag_378\n      jumpi\n        /* \"#utility.yul\":13810:13816   */\n      dup2\n        /* \"#utility.yul\":13804:13817   */\n      mload\n        /* \"#utility.yul\":13837:13900   */\n      tag_379\n        /* \"#utility.yul\":13896:13899   */\n      dup9\n        /* \"#utility.yul\":13881:13894   */\n      dup3\n        /* \"#utility.yul\":13837:13900   */\n      tag_175\n      jump\t// in\n    tag_379:\n        /* \"#utility.yul\":13830:13900   */\n      swap8\n      pop\n        /* \"#utility.yul\":13923:13983   */\n      tag_380\n        /* \"#utility.yul\":13976:13982   */\n      dup4\n        /* \"#utility.yul\":13923:13983   */\n      tag_176\n      jump\t// in\n    tag_380:\n        /* \"#utility.yul\":13913:13983   */\n      swap3\n      pop\n        /* \"#utility.yul\":13769:13993   */\n      pop\n        /* \"#utility.yul\":13756:13757   */\n      0x01\n        /* \"#utility.yul\":13753:13754   */\n      dup2\n        /* \"#utility.yul\":13749:13758   */\n      add\n        /* \"#utility.yul\":13744:13758   */\n      swap1\n      pop\n        /* \"#utility.yul\":13709:13993   */\n      jump(tag_376)\n    tag_378:\n        /* \"#utility.yul\":13713:13727   */\n      pop\n        /* \"#utility.yul\":14009:14012   */\n      dup6\n        /* \"#utility.yul\":14002:14012   */\n      swap4\n      pop\n        /* \"#utility.yul\":13420:14018   */\n      pop\n      pop\n      pop\n        /* \"#utility.yul\":13306:14018   */\n      swap3\n      swap2\n      pop\n      pop\n      jump\t// out\n        /* \"#utility.yul\":14024:14198   */\n    tag_208:\n        /* \"#utility.yul\":14113:14124   */\n      0x00\n        /* \"#utility.yul\":14147:14153   */\n      dup3\n        /* \"#utility.yul\":14142:14145   */\n      dup3\n        /* \"#utility.yul\":14135:14154   */\n      mstore\n        /* \"#utility.yul\":14187:14191   */\n      0x20\n        /* \"#utility.yul\":14182:14185   */\n      dup3\n        /* \"#utility.yul\":14178:14192   */\n      add\n        /* \"#utility.yul\":14163:14192   */\n      swap1\n      pop\n        /* \"#utility.yul\":14024:14198   */\n      swap3\n      swap2\n      pop\n      pop\n      jump\t// out\n        /* \"#utility.yul\":14234:14946   */\n    tag_209:\n        /* \"#utility.yul\":14343:14346   */\n      0x00\n        /* \"#utility.yul\":14372:14426   */\n      tag_383\n        /* \"#utility.yul\":14420:14425   */\n      dup3\n        /* \"#utility.yul\":14372:14426   */\n      tag_178\n      jump\t// in\n    tag_383:\n        /* \"#utility.yul\":14442:14518   */\n      tag_384\n        /* \"#utility.yul\":14511:14517   */\n      dup2\n        /* \"#utility.yul\":14506:14509   */\n      dup6\n        /* \"#utility.yul\":14442:14518   */\n      tag_208\n      jump\t// in\n    tag_384:\n        /* \"#utility.yul\":14435:14518   */\n      swap4\n      pop\n        /* \"#utility.yul\":14542:14598   */\n      tag_385\n        /* \"#utility.yul\":14592:14597   */\n      dup4\n        /* \"#utility.yul\":14542:14598   */\n      tag_180\n      jump\t// in\n    tag_385:\n        /* \"#utility.yul\":14621:14628   */\n      dup1\n        /* \"#utility.yul\":14652:14653   */\n      0x00\n        /* \"#utility.yul\":14637:14921   */\n    tag_386:\n        /* \"#utility.yul\":14662:14668   */\n      dup4\n        /* \"#utility.yul\":14659:14660   */\n      dup2\n        /* \"#utility.yul\":14656:14669   */\n      lt\n        /* \"#utility.yul\":14637:14921   */\n      iszero\n      tag_388\n      jumpi\n        /* \"#utility.yul\":14738:14744   */\n      dup2\n        /* \"#utility.yul\":14732:14745   */\n      mload\n        /* \"#utility.yul\":14765:14828   */\n      tag_389\n        /* \"#utility.yul\":14824:14827   */\n      dup9\n        /* \"#utility.yul\":14809:14822   */\n      dup3\n        /* \"#utility.yul\":14765:14828   */\n      tag_182\n      jump\t// in\n    tag_389:\n        /* \"#utility.yul\":14758:14828   */\n      swap8\n      pop\n        /* \"#utility.yul\":14851:14911   */\n      tag_390\n        /* \"#utility.yul\":14904:14910   */\n      dup4\n        /* \"#utility.yul\":14851:14911   */\n      tag_183\n      jump\t// in\n    tag_390:\n        /* \"#utility.yul\":14841:14911   */\n      swap3\n      pop\n        /* \"#utility.yul\":14697:14921   */\n      pop\n        /* \"#utility.yul\":14684:14685   */\n      0x01\n        /* \"#utility.yul\":14681:14682   */\n      dup2\n        /* \"#utility.yul\":14677:14686   */\n      add\n        /* \"#utility.yul\":14672:14686   */\n      swap1\n      pop\n        /* \"#utility.yul\":14637:14921   */\n      jump(tag_386)\n    tag_388:\n        /* \"#utility.yul\":14641:14655   */\n      pop\n        /* \"#utility.yul\":14937:14940   */\n      dup6\n        /* \"#utility.yul\":14930:14940   */\n      swap4\n      pop\n        /* \"#utility.yul\":14348:14946   */\n      pop\n      pop\n      pop\n        /* \"#utility.yul\":14234:14946   */\n      swap3\n      swap2\n      pop\n      pop\n      jump\t// out\n        /* \"#utility.yul\":15020:17218   */\n    tag_210:\n        /* \"#utility.yul\":15127:15130   */\n      0x00\n        /* \"#utility.yul\":15163:15169   */\n      0x0120\n        /* \"#utility.yul\":15158:15161   */\n      dup4\n        /* \"#utility.yul\":15154:15170   */\n      add\n        /* \"#utility.yul\":15253:15257   */\n      0x00\n        /* \"#utility.yul\":15246:15251   */\n      dup4\n        /* \"#utility.yul\":15242:15258   */\n      add\n        /* \"#utility.yul\":15236:15259   */\n      mload\n        /* \"#utility.yul\":15272:15335   */\n      tag_392\n        /* \"#utility.yul\":15329:15333   */\n      0x00\n        /* \"#utility.yul\":15324:15327   */\n      dup7\n        /* \"#utility.yul\":15320:15334   */\n      add\n        /* \"#utility.yul\":15306:15318   */\n      dup3\n        /* \"#utility.yul\":15272:15335   */\n      tag_174\n      jump\t// in\n    tag_392:\n        /* \"#utility.yul\":15180:15345   */\n      pop\n        /* \"#utility.yul\":15428:15432   */\n      0x20\n        /* \"#utility.yul\":15421:15426   */\n      dup4\n        /* \"#utility.yul\":15417:15433   */\n      add\n        /* \"#utility.yul\":15411:15434   */\n      mload\n        /* \"#utility.yul\":15481:15484   */\n      dup5\n        /* \"#utility.yul\":15475:15479   */\n      dup3\n        /* \"#utility.yul\":15471:15485   */\n      sub\n        /* \"#utility.yul\":15464:15468   */\n      0x20\n        /* \"#utility.yul\":15459:15462   */\n      dup7\n        /* \"#utility.yul\":15455:15469   */\n      add\n        /* \"#utility.yul\":15448:15486   */\n      mstore\n        /* \"#utility.yul\":15507:15580   */\n      tag_393\n        /* \"#utility.yul\":15575:15579   */\n      dup3\n        /* \"#utility.yul\":15561:15573   */\n      dup3\n        /* \"#utility.yul\":15507:15580   */\n      tag_205\n      jump\t// in\n    tag_393:\n        /* \"#utility.yul\":15499:15580   */\n      swap2\n      pop\n        /* \"#utility.yul\":15355:15591   */\n      pop\n        /* \"#utility.yul\":15680:15684   */\n      0x40\n        /* \"#utility.yul\":15673:15678   */\n      dup4\n        /* \"#utility.yul\":15669:15685   */\n      add\n        /* \"#utility.yul\":15663:15686   */\n      mload\n        /* \"#utility.yul\":15733:15736   */\n      dup5\n        /* \"#utility.yul\":15727:15731   */\n      dup3\n        /* \"#utility.yul\":15723:15737   */\n      sub\n        /* \"#utility.yul\":15716:15720   */\n      0x40\n        /* \"#utility.yul\":15711:15714   */\n      dup7\n        /* \"#utility.yul\":15707:15721   */\n      add\n        /* \"#utility.yul\":15700:15738   */\n      mstore\n        /* \"#utility.yul\":15759:15832   */\n      tag_394\n        /* \"#utility.yul\":15827:15831   */\n      dup3\n        /* \"#utility.yul\":15813:15825   */\n      dup3\n        /* \"#utility.yul\":15759:15832   */\n      tag_205\n      jump\t// in\n    tag_394:\n        /* \"#utility.yul\":15751:15832   */\n      swap2\n      pop\n        /* \"#utility.yul\":15601:15843   */\n      pop\n        /* \"#utility.yul\":15927:15931   */\n      0x60\n        /* \"#utility.yul\":15920:15925   */\n      dup4\n        /* \"#utility.yul\":15916:15932   */\n      add\n        /* \"#utility.yul\":15910:15933   */\n      mload\n        /* \"#utility.yul\":15946:16009   */\n      tag_395\n        /* \"#utility.yul\":16003:16007   */\n      0x60\n        /* \"#utility.yul\":15998:16001   */\n      dup7\n        /* \"#utility.yul\":15994:16008   */\n      add\n        /* \"#utility.yul\":15980:15992   */\n      dup3\n        /* \"#utility.yul\":15946:16009   */\n      tag_181\n      jump\t// in\n    tag_395:\n        /* \"#utility.yul\":15853:16019   */\n      pop\n        /* \"#utility.yul\":16105:16109   */\n      0x80\n        /* \"#utility.yul\":16098:16103   */\n      dup4\n        /* \"#utility.yul\":16094:16110   */\n      add\n        /* \"#utility.yul\":16088:16111   */\n      mload\n        /* \"#utility.yul\":16124:16187   */\n      tag_396\n        /* \"#utility.yul\":16181:16185   */\n      0x80\n        /* \"#utility.yul\":16176:16179   */\n      dup7\n        /* \"#utility.yul\":16172:16186   */\n      add\n        /* \"#utility.yul\":16158:16170   */\n      dup3\n        /* \"#utility.yul\":16124:16187   */\n      tag_181\n      jump\t// in\n    tag_396:\n        /* \"#utility.yul\":16029:16197   */\n      pop\n        /* \"#utility.yul\":16290:16294   */\n      0xa0\n        /* \"#utility.yul\":16283:16288   */\n      dup4\n        /* \"#utility.yul\":16279:16295   */\n      add\n        /* \"#utility.yul\":16273:16296   */\n      mload\n        /* \"#utility.yul\":16309:16372   */\n      tag_397\n        /* \"#utility.yul\":16366:16370   */\n      0xa0\n        /* \"#utility.yul\":16361:16364   */\n      dup7\n        /* \"#utility.yul\":16357:16371   */\n      add\n        /* \"#utility.yul\":16343:16355   */\n      dup3\n        /* \"#utility.yul\":16309:16372   */\n      tag_181\n      jump\t// in\n    tag_397:\n        /* \"#utility.yul\":16207:16382   */\n      pop\n        /* \"#utility.yul\":16465:16469   */\n      0xc0\n        /* \"#utility.yul\":16458:16463   */\n      dup4\n        /* \"#utility.yul\":16454:16470   */\n      add\n        /* \"#utility.yul\":16448:16471   */\n      mload\n        /* \"#utility.yul\":16518:16521   */\n      dup5\n        /* \"#utility.yul\":16512:16516   */\n      dup3\n        /* \"#utility.yul\":16508:16522   */\n      sub\n        /* \"#utility.yul\":16501:16505   */\n      0xc0\n        /* \"#utility.yul\":16496:16499   */\n      dup7\n        /* \"#utility.yul\":16492:16506   */\n      add\n        /* \"#utility.yul\":16485:16523   */\n      mstore\n        /* \"#utility.yul\":16544:16617   */\n      tag_398\n        /* \"#utility.yul\":16612:16616   */\n      dup3\n        /* \"#utility.yul\":16598:16610   */\n      dup3\n        /* \"#utility.yul\":16544:16617   */\n      tag_205\n      jump\t// in\n    tag_398:\n        /* \"#utility.yul\":16536:16617   */\n      swap2\n      pop\n        /* \"#utility.yul\":16392:16628   */\n      pop\n        /* \"#utility.yul\":16714:16718   */\n      0xe0\n        /* \"#utility.yul\":16707:16712   */\n      dup4\n        /* \"#utility.yul\":16703:16719   */\n      add\n        /* \"#utility.yul\":16697:16720   */\n      mload\n        /* \"#utility.yul\":16767:16770   */\n      dup5\n        /* \"#utility.yul\":16761:16765   */\n      dup3\n        /* \"#utility.yul\":16757:16771   */\n      sub\n        /* \"#utility.yul\":16750:16754   */\n      0xe0\n        /* \"#utility.yul\":16745:16748   */\n      dup7\n        /* \"#utility.yul\":16741:16755   */\n      add\n        /* \"#utility.yul\":16734:16772   */\n      mstore\n        /* \"#utility.yul\":16793:16896   */\n      tag_399\n        /* \"#utility.yul\":16891:16895   */\n      dup3\n        /* \"#utility.yul\":16877:16889   */\n      dup3\n        /* \"#utility.yul\":16793:16896   */\n      tag_207\n      jump\t// in\n    tag_399:\n        /* \"#utility.yul\":16785:16896   */\n      swap2\n      pop\n        /* \"#utility.yul\":16638:16907   */\n      pop\n        /* \"#utility.yul\":16994:17000   */\n      0x0100\n        /* \"#utility.yul\":16987:16992   */\n      dup4\n        /* \"#utility.yul\":16983:17001   */\n      add\n        /* \"#utility.yul\":16977:17002   */\n      mload\n        /* \"#utility.yul\":17051:17054   */\n      dup5\n        /* \"#utility.yul\":17045:17049   */\n      dup3\n        /* \"#utility.yul\":17041:17055   */\n      sub\n        /* \"#utility.yul\":17032:17038   */\n      0x0100\n        /* \"#utility.yul\":17027:17030   */\n      dup7\n        /* \"#utility.yul\":17023:17039   */\n      add\n        /* \"#utility.yul\":17016:17056   */\n      mstore\n        /* \"#utility.yul\":17077:17180   */\n      tag_400\n        /* \"#utility.yul\":17175:17179   */\n      dup3\n        /* \"#utility.yul\":17161:17173   */\n      dup3\n        /* \"#utility.yul\":17077:17180   */\n      tag_209\n      jump\t// in\n    tag_400:\n        /* \"#utility.yul\":17069:17180   */\n      swap2\n      pop\n        /* \"#utility.yul\":16917:17191   */\n      pop\n        /* \"#utility.yul\":17208:17212   */\n      dup1\n        /* \"#utility.yul\":17201:17212   */\n      swap2\n      pop\n        /* \"#utility.yul\":15132:17218   */\n      pop\n        /* \"#utility.yul\":15020:17218   */\n      swap3\n      swap2\n      pop\n      pop\n      jump\t// out\n        /* \"#utility.yul\":17224:17476   */\n    tag_211:\n        /* \"#utility.yul\":17341:17351   */\n      0x00\n        /* \"#utility.yul\":17376:17470   */\n      tag_402\n        /* \"#utility.yul\":17466:17469   */\n      dup4\n        /* \"#utility.yul\":17458:17464   */\n      dup4\n        /* \"#utility.yul\":17376:17470   */\n      tag_210\n      jump\t// in\n    tag_402:\n        /* \"#utility.yul\":17362:17470   */\n      swap1\n      pop\n        /* \"#utility.yul\":17224:17476   */\n      swap3\n      swap2\n      pop\n      pop\n      jump\t// out\n        /* \"#utility.yul\":17482:17619   */\n    tag_212:\n        /* \"#utility.yul\":17576:17580   */\n      0x00\n        /* \"#utility.yul\":17608:17612   */\n      0x20\n        /* \"#utility.yul\":17603:17606   */\n      dup3\n        /* \"#utility.yul\":17599:17613   */\n      add\n        /* \"#utility.yul\":17591:17613   */\n      swap1\n      pop\n        /* \"#utility.yul\":17482:17619   */\n      swap2\n      swap1\n      pop\n      jump\t// out\n        /* \"#utility.yul\":17697:18800   */\n    tag_213:\n        /* \"#utility.yul\":17864:17867   */\n      0x00\n        /* \"#utility.yul\":17893:17971   */\n      tag_405\n        /* \"#utility.yul\":17965:17970   */\n      dup3\n        /* \"#utility.yul\":17893:17971   */\n      tag_201\n      jump\t// in\n    tag_405:\n        /* \"#utility.yul\":17987:18097   */\n      tag_406\n        /* \"#utility.yul\":18090:18096   */\n      dup2\n        /* \"#utility.yul\":18085:18088   */\n      dup6\n        /* \"#utility.yul\":17987:18097   */\n      tag_202\n      jump\t// in\n    tag_406:\n        /* \"#utility.yul\":17980:18097   */\n      swap4\n      pop\n        /* \"#utility.yul\":18123:18126   */\n      dup4\n        /* \"#utility.yul\":18168:18172   */\n      0x20\n        /* \"#utility.yul\":18160:18166   */\n      dup3\n        /* \"#utility.yul\":18156:18173   */\n      mul\n        /* \"#utility.yul\":18151:18154   */\n      dup6\n        /* \"#utility.yul\":18147:18174   */\n      add\n        /* \"#utility.yul\":18198:18278   */\n      tag_407\n        /* \"#utility.yul\":18272:18277   */\n      dup6\n        /* \"#utility.yul\":18198:18278   */\n      tag_203\n      jump\t// in\n    tag_407:\n        /* \"#utility.yul\":18301:18308   */\n      dup1\n        /* \"#utility.yul\":18332:18333   */\n      0x00\n        /* \"#utility.yul\":18317:18755   */\n    tag_408:\n        /* \"#utility.yul\":18342:18348   */\n      dup6\n        /* \"#utility.yul\":18339:18340   */\n      dup2\n        /* \"#utility.yul\":18336:18349   */\n      lt\n        /* \"#utility.yul\":18317:18755   */\n      iszero\n      tag_410\n      jumpi\n        /* \"#utility.yul\":18413:18422   */\n      dup5\n        /* \"#utility.yul\":18407:18411   */\n      dup5\n        /* \"#utility.yul\":18403:18423   */\n      sub\n        /* \"#utility.yul\":18398:18401   */\n      dup10\n        /* \"#utility.yul\":18391:18424   */\n      mstore\n        /* \"#utility.yul\":18464:18470   */\n      dup2\n        /* \"#utility.yul\":18458:18471   */\n      mload\n        /* \"#utility.yul\":18492:18604   */\n      tag_411\n        /* \"#utility.yul\":18599:18603   */\n      dup6\n        /* \"#utility.yul\":18584:18597   */\n      dup3\n        /* \"#utility.yul\":18492:18604   */\n      tag_211\n      jump\t// in\n    tag_411:\n        /* \"#utility.yul\":18484:18604   */\n      swap5\n      pop\n        /* \"#utility.yul\":18627:18711   */\n      tag_412\n        /* \"#utility.yul\":18704:18710   */\n      dup4\n        /* \"#utility.yul\":18627:18711   */\n      tag_212\n      jump\t// in\n    tag_412:\n        /* \"#utility.yul\":18617:18711   */\n      swap3\n      pop\n        /* \"#utility.yul\":18740:18744   */\n      0x20\n        /* \"#utility.yul\":18735:18738   */\n      dup11\n        /* \"#utility.yul\":18731:18745   */\n      add\n        /* \"#utility.yul\":18724:18745   */\n      swap10\n      pop\n        /* \"#utility.yul\":18377:18755   */\n      pop\n        /* \"#utility.yul\":18364:18365   */\n      0x01\n        /* \"#utility.yul\":18361:18362   */\n      dup2\n        /* \"#utility.yul\":18357:18366   */\n      add\n        /* \"#utility.yul\":18352:18366   */\n      swap1\n      pop\n        /* \"#utility.yul\":18317:18755   */\n      jump(tag_408)\n    tag_410:\n        /* \"#utility.yul\":18321:18335   */\n      pop\n        /* \"#utility.yul\":18771:18775   */\n      dup3\n        /* \"#utility.yul\":18764:18775   */\n      swap8\n      pop\n        /* \"#utility.yul\":18791:18794   */\n      dup8\n        /* \"#utility.yul\":18784:18794   */\n      swap6\n      pop\n        /* \"#utility.yul\":17869:18800   */\n      pop\n      pop\n      pop\n      pop\n      pop\n        /* \"#utility.yul\":17697:18800   */\n      swap3\n      swap2\n      pop\n      pop\n      jump\t// out\n        /* \"#utility.yul\":18806:19275   */\n    tag_43:\n        /* \"#utility.yul\":18997:19001   */\n      0x00\n        /* \"#utility.yul\":19035:19037   */\n      0x20\n        /* \"#utility.yul\":19024:19033   */\n      dup3\n        /* \"#utility.yul\":19020:19038   */\n      add\n        /* \"#utility.yul\":19012:19038   */\n      swap1\n      pop\n        /* \"#utility.yul\":19084:19093   */\n      dup2\n        /* \"#utility.yul\":19078:19082   */\n      dup2\n        /* \"#utility.yul\":19074:19094   */\n      sub\n        /* \"#utility.yul\":19070:19071   */\n      0x00\n        /* \"#utility.yul\":19059:19068   */\n      dup4\n        /* \"#utility.yul\":19055:19072   */\n      add\n        /* \"#utility.yul\":19048:19095   */\n      mstore\n        /* \"#utility.yul\":19112:19268   */\n      tag_414\n        /* \"#utility.yul\":19263:19267   */\n      dup2\n        /* \"#utility.yul\":19254:19260   */\n      dup5\n        /* \"#utility.yul\":19112:19268   */\n      tag_213\n      jump\t// in\n    tag_414:\n        /* \"#utility.yul\":19104:19268   */\n      swap1\n      pop\n        /* \"#utility.yul\":18806:19275   */\n      swap3\n      swap2\n      pop\n      pop\n      jump\t// out\n        /* \"#utility.yul\":19281:19461   */\n    tag_214:\n        /* \"#utility.yul\":19329:19406   */\n      0x4e487b7100000000000000000000000000000000000000000000000000000000\n        /* \"#utility.yul\":19326:19327   */\n      0x00\n        /* \"#utility.yul\":19319:19407   */\n      mstore\n        /* \"#utility.yul\":19426:19430   */\n      0x22\n        /* \"#utility.yul\":19423:19424   */\n      0x04\n        /* \"#utility.yul\":19416:19431   */\n      mstore\n        /* \"#utility.yul\":19450:19454   */\n      0x24\n        /* \"#utility.yul\":19447:19448   */\n      0x00\n        /* \"#utility.yul\":19440:19455   */\n      revert\n        /* \"#utility.yul\":19467:19787   */\n    tag_54:\n        /* \"#utility.yul\":19511:19517   */\n      0x00\n        /* \"#utility.yul\":19548:19549   */\n      0x02\n        /* \"#utility.yul\":19542:19546   */\n      dup3\n        /* \"#utility.yul\":19538:19550   */\n      div\n        /* \"#utility.yul\":19528:19550   */\n      swap1\n      pop\n        /* \"#utility.yul\":19595:19596   */\n      0x01\n        /* \"#utility.yul\":19589:19593   */\n      dup3\n        /* \"#utility.yul\":19585:19597   */\n      and\n        /* \"#utility.yul\":19616:19634   */\n      dup1\n        /* \"#utility.yul\":19606:19687   */\n      tag_417\n      jumpi\n        /* \"#utility.yul\":19672:19676   */\n      0x7f\n        /* \"#utility.yul\":19664:19670   */\n      dup3\n        /* \"#utility.yul\":19660:19677   */\n      and\n        /* \"#utility.yul\":19650:19677   */\n      swap2\n      pop\n        /* \"#utility.yul\":19606:19687   */\n    tag_417:\n        /* \"#utility.yul\":19734:19736   */\n      0x20\n        /* \"#utility.yul\":19726:19732   */\n      dup3\n        /* \"#utility.yul\":19723:19737   */\n      lt\n        /* \"#utility.yul\":19703:19721   */\n      dup2\n        /* \"#utility.yul\":19700:19738   */\n      sub\n        /* \"#utility.yul\":19697:19781   */\n      tag_418\n      jumpi\n        /* \"#utility.yul\":19753:19771   */\n      tag_419\n      tag_214\n      jump\t// in\n    tag_419:\n        /* \"#utility.yul\":19697:19781   */\n    tag_418:\n        /* \"#utility.yul\":19518:19787   */\n      pop\n        /* \"#utility.yul\":19467:19787   */\n      swap2\n      swap1\n      pop\n      jump\t// out\n        /* \"#utility.yul\":19793:19940   */\n    tag_215:\n        /* \"#utility.yul\":19894:19905   */\n      0x00\n        /* \"#utility.yul\":19931:19934   */\n      dup2\n        /* \"#utility.yul\":19916:19934   */\n      swap1\n      pop\n        /* \"#utility.yul\":19793:19940   */\n      swap3\n      swap2\n      pop\n      pop\n      jump\t// out\n        /* \"#utility.yul\":19946:20060   */\n    tag_216:\n      pop\n      jump\t// out\n        /* \"#utility.yul\":20066:20464   */\n    tag_217:\n        /* \"#utility.yul\":20225:20228   */\n      0x00\n        /* \"#utility.yul\":20246:20329   */\n      tag_423\n        /* \"#utility.yul\":20327:20328   */\n      0x00\n        /* \"#utility.yul\":20322:20325   */\n      dup4\n        /* \"#utility.yul\":20246:20329   */\n      tag_215\n      jump\t// in\n    tag_423:\n        /* \"#utility.yul\":20239:20329   */\n      swap2\n      pop\n        /* \"#utility.yul\":20338:20431   */\n      tag_424\n        /* \"#utility.yul\":20427:20430   */\n      dup3\n        /* \"#utility.yul\":20338:20431   */\n      tag_216\n      jump\t// in\n    tag_424:\n        /* \"#utility.yul\":20456:20457   */\n      0x00\n        /* \"#utility.yul\":20451:20454   */\n      dup3\n        /* \"#utility.yul\":20447:20458   */\n      add\n        /* \"#utility.yul\":20440:20458   */\n      swap1\n      pop\n        /* \"#utility.yul\":20066:20464   */\n      swap2\n      swap1\n      pop\n      jump\t// out\n        /* \"#utility.yul\":20470:20849   */\n    tag_73:\n        /* \"#utility.yul\":20654:20657   */\n      0x00\n        /* \"#utility.yul\":20676:20823   */\n      tag_426\n        /* \"#utility.yul\":20819:20822   */\n      dup3\n        /* \"#utility.yul\":20676:20823   */\n      tag_217\n      jump\t// in\n    tag_426:\n        /* \"#utility.yul\":20669:20823   */\n      swap2\n      pop\n        /* \"#utility.yul\":20840:20843   */\n      dup2\n        /* \"#utility.yul\":20833:20843   */\n      swap1\n      pop\n        /* \"#utility.yul\":20470:20849   */\n      swap2\n      swap1\n      pop\n      jump\t// out\n        /* \"#utility.yul\":20855:21035   */\n    tag_218:\n        /* \"#utility.yul\":20903:20980   */\n      0x4e487b7100000000000000000000000000000000000000000000000000000000\n        /* \"#utility.yul\":20900:20901   */\n      0x00\n        /* \"#utility.yul\":20893:20981   */\n      mstore\n        /* \"#utility.yul\":21000:21004   */\n      0x11\n        /* \"#utility.yul\":20997:20998   */\n      0x04\n        /* \"#utility.yul\":20990:21005   */\n      mstore\n        /* \"#utility.yul\":21024:21028   */\n      0x24\n        /* \"#utility.yul\":21021:21022   */\n      0x00\n        /* \"#utility.yul\":21014:21029   */\n      revert\n        /* \"#utility.yul\":21041:21232   */\n    tag_79:\n        /* \"#utility.yul\":21081:21084   */\n      0x00\n        /* \"#utility.yul\":21100:21120   */\n      tag_429\n        /* \"#utility.yul\":21118:21119   */\n      dup3\n        /* \"#utility.yul\":21100:21120   */\n      tag_162\n      jump\t// in\n    tag_429:\n        /* \"#utility.yul\":21095:21120   */\n      swap2\n      pop\n        /* \"#utility.yul\":21134:21154   */\n      tag_430\n        /* \"#utility.yul\":21152:21153   */\n      dup4\n        /* \"#utility.yul\":21134:21154   */\n      tag_162\n      jump\t// in\n    tag_430:\n        /* \"#utility.yul\":21129:21154   */\n      swap3\n      pop\n        /* \"#utility.yul\":21177:21178   */\n      dup3\n        /* \"#utility.yul\":21174:21175   */\n      dup3\n        /* \"#utility.yul\":21170:21179   */\n      add\n        /* \"#utility.yul\":21163:21179   */\n      swap1\n      pop\n        /* \"#utility.yul\":21198:21201   */\n      dup1\n        /* \"#utility.yul\":21195:21196   */\n      dup3\n        /* \"#utility.yul\":21192:21202   */\n      gt\n        /* \"#utility.yul\":21189:21225   */\n      iszero\n      tag_431\n      jumpi\n        /* \"#utility.yul\":21205:21223   */\n      tag_432\n      tag_218\n      jump\t// in\n    tag_432:\n        /* \"#utility.yul\":21189:21225   */\n    tag_431:\n        /* \"#utility.yul\":21041:21232   */\n      swap3\n      swap2\n      pop\n      pop\n      jump\t// out\n        /* \"#utility.yul\":21238:21469   */\n    tag_219:\n        /* \"#utility.yul\":21378:21412   */\n      0x54686520646561646c696e652073686f756c642062652061206461746520696e\n        /* \"#utility.yul\":21374:21375   */\n      0x00\n        /* \"#utility.yul\":21366:21372   */\n      dup3\n        /* \"#utility.yul\":21362:21376   */\n      add\n        /* \"#utility.yul\":21355:21413   */\n      mstore\n        /* \"#utility.yul\":21447:21461   */\n      0x20746865206675747572652e0000000000000000000000000000000000000000\n        /* \"#utility.yul\":21442:21444   */\n      0x20\n        /* \"#utility.yul\":21434:21440   */\n      dup3\n        /* \"#utility.yul\":21430:21445   */\n      add\n        /* \"#utility.yul\":21423:21462   */\n      mstore\n        /* \"#utility.yul\":21238:21469   */\n      pop\n      jump\t// out\n        /* \"#utility.yul\":21475:21841   */\n    tag_220:\n        /* \"#utility.yul\":21617:21620   */\n      0x00\n        /* \"#utility.yul\":21638:21705   */\n      tag_435\n        /* \"#utility.yul\":21702:21704   */\n      0x2c\n        /* \"#utility.yul\":21697:21700   */\n      dup4\n        /* \"#utility.yul\":21638:21705   */\n      tag_187\n      jump\t// in\n    tag_435:\n        /* \"#utility.yul\":21631:21705   */\n      swap2\n      pop\n        /* \"#utility.yul\":21714:21807   */\n      tag_436\n        /* \"#utility.yul\":21803:21806   */\n      dup3\n        /* \"#utility.yul\":21714:21807   */\n      tag_219\n      jump\t// in\n    tag_436:\n        /* \"#utility.yul\":21832:21834   */\n      0x40\n        /* \"#utility.yul\":21827:21830   */\n      dup3\n        /* \"#utility.yul\":21823:21835   */\n      add\n        /* \"#utility.yul\":21816:21835   */\n      swap1\n      pop\n        /* \"#utility.yul\":21475:21841   */\n      swap2\n      swap1\n      pop\n      jump\t// out\n        /* \"#utility.yul\":21847:22266   */\n    tag_83:\n        /* \"#utility.yul\":22013:22017   */\n      0x00\n        /* \"#utility.yul\":22051:22053   */\n      0x20\n        /* \"#utility.yul\":22040:22049   */\n      dup3\n        /* \"#utility.yul\":22036:22054   */\n      add\n        /* \"#utility.yul\":22028:22054   */\n      swap1\n      pop\n        /* \"#utility.yul\":22100:22109   */\n      dup2\n        /* \"#utility.yul\":22094:22098   */\n      dup2\n        /* \"#utility.yul\":22090:22110   */\n      sub\n        /* \"#utility.yul\":22086:22087   */\n      0x00\n        /* \"#utility.yul\":22075:22084   */\n      dup4\n        /* \"#utility.yul\":22071:22088   */\n      add\n        /* \"#utility.yul\":22064:22111   */\n      mstore\n        /* \"#utility.yul\":22128:22259   */\n      tag_438\n        /* \"#utility.yul\":22254:22258   */\n      dup2\n        /* \"#utility.yul\":22128:22259   */\n      tag_220\n      jump\t// in\n    tag_438:\n        /* \"#utility.yul\":22120:22259   */\n      swap1\n      pop\n        /* \"#utility.yul\":21847:22266   */\n      swap2\n      swap1\n      pop\n      jump\t// out\n        /* \"#utility.yul\":22272:22413   */\n    tag_221:\n        /* \"#utility.yul\":22321:22325   */\n      0x00\n        /* \"#utility.yul\":22344:22347   */\n      dup2\n        /* \"#utility.yul\":22336:22347   */\n      swap1\n      pop\n        /* \"#utility.yul\":22367:22370   */\n      dup2\n        /* \"#utility.yul\":22364:22365   */\n      0x00\n        /* \"#utility.yul\":22357:22371   */\n      mstore\n        /* \"#utility.yul\":22401:22405   */\n      0x20\n        /* \"#utility.yul\":22398:22399   */\n      0x00\n        /* \"#utility.yul\":22388:22406   */\n      keccak256\n        /* \"#utility.yul\":22380:22406   */\n      swap1\n      pop\n        /* \"#utility.yul\":22272:22413   */\n      swap2\n      swap1\n      pop\n      jump\t// out\n        /* \"#utility.yul\":22419:22512   */\n    tag_222:\n        /* \"#utility.yul\":22456:22462   */\n      0x00\n        /* \"#utility.yul\":22503:22505   */\n      0x20\n        /* \"#utility.yul\":22498:22500   */\n      0x1f\n        /* \"#utility.yul\":22491:22496   */\n      dup4\n        /* \"#utility.yul\":22487:22501   */\n      add\n        /* \"#utility.yul\":22483:22506   */\n      div\n        /* \"#utility.yul\":22473:22506   */\n      swap1\n      pop\n        /* \"#utility.yul\":22419:22512   */\n      swap2\n      swap1\n      pop\n      jump\t// out\n        /* \"#utility.yul\":22518:22625   */\n    tag_223:\n        /* \"#utility.yul\":22562:22570   */\n      0x00\n        /* \"#utility.yul\":22612:22617   */\n      dup3\n        /* \"#utility.yul\":22606:22610   */\n      dup3\n        /* \"#utility.yul\":22602:22618   */\n      shl\n        /* \"#utility.yul\":22581:22618   */\n      swap1\n      pop\n        /* \"#utility.yul\":22518:22625   */\n      swap3\n      swap2\n      pop\n      pop\n      jump\t// out\n        /* \"#utility.yul\":22631:23024   */\n    tag_224:\n        /* \"#utility.yul\":22700:22706   */\n      0x00\n        /* \"#utility.yul\":22750:22751   */\n      0x08\n        /* \"#utility.yul\":22738:22748   */\n      dup4\n        /* \"#utility.yul\":22734:22752   */\n      mul\n        /* \"#utility.yul\":22773:22870   */\n      tag_443\n        /* \"#utility.yul\":22803:22869   */\n      0xffffffffffffffffffffffffffffffffffffffffffffffffffffffffffffffff\n        /* \"#utility.yul\":22792:22801   */\n      dup3\n        /* \"#utility.yul\":22773:22870   */\n      tag_223\n      jump\t// in\n    tag_443:\n        /* \"#utility.yul\":22891:22930   */\n      tag_444\n        /* \"#utility.yul\":22921:22929   */\n      dup7\n        /* \"#utility.yul\":22910:22919   */\n      dup4\n        /* \"#utility.yul\":22891:22930   */\n      tag_223\n      jump\t// in\n    tag_444:\n        /* \"#utility.yul\":22879:22930   */\n      swap6\n      pop\n        /* \"#utility.yul\":22963:22967   */\n      dup1\n        /* \"#utility.yul\":22959:22968   */\n      not\n        /* \"#utility.yul\":22952:22957   */\n      dup5\n        /* \"#utility.yul\":22948:22969   */\n      and\n        /* \"#utility.yul\":22939:22969   */\n      swap4\n      pop\n        /* \"#utility.yul\":23012:23016   */\n      dup1\n        /* \"#utility.yul\":23002:23010   */\n      dup7\n        /* \"#utility.yul\":22998:23017   */\n      and\n        /* \"#utility.yul\":22991:22996   */\n      dup5\n        /* \"#utility.yul\":22988:23018   */\n      or\n        /* \"#utility.yul\":22978:23018   */\n      swap3\n      pop\n        /* \"#utility.yul\":22707:23024   */\n      pop\n      pop\n        /* \"#utility.yul\":22631:23024   */\n      swap4\n      swap3\n      pop\n      pop\n      pop\n      jump\t// out\n        /* \"#utility.yul\":23030:23090   */\n    tag_225:\n        /* \"#utility.yul\":23058:23061   */\n      0x00\n        /* \"#utility.yul\":23079:23084   */\n      dup2\n        /* \"#utility.yul\":23072:23084   */\n      swap1\n      pop\n        /* \"#utility.yul\":23030:23090   */\n      swap2\n      swap1\n      pop\n      jump\t// out\n        /* \"#utility.yul\":23096:23238   */\n    tag_226:\n        /* \"#utility.yul\":23146:23155   */\n      0x00\n        /* \"#utility.yul\":23179:23232   */\n      tag_447\n        /* \"#utility.yul\":23197:23231   */\n      tag_448\n        /* \"#utility.yul\":23206:23230   */\n      tag_449\n        /* \"#utility.yul\":23224:23229   */\n      dup5\n        /* \"#utility.yul\":23206:23230   */\n      tag_162\n      jump\t// in\n    tag_449:\n        /* \"#utility.yul\":23197:23231   */\n      tag_225\n      jump\t// in\n    tag_448:\n        /* \"#utility.yul\":23179:23232   */\n      tag_162\n      jump\t// in\n    tag_447:\n        /* \"#utility.yul\":23166:23232   */\n      swap1\n      pop\n        /* \"#utility.yul\":23096:23238   */\n      swap2\n      swap1\n      pop\n      jump\t// out\n        /* \"#utility.yul\":23244:23319   */\n    tag_227:\n        /* \"#utility.yul\":23287:23290   */\n      0x00\n        /* \"#utility.yul\":23308:23313   */\n      dup2\n        /* \"#utility.yul\":23301:23313   */\n      swap1\n      pop\n        /* \"#utility.yul\":23244:23319   */\n      swap2\n      swap1\n      pop\n      jump\t// out\n        /* \"#utility.yul\":23325:23594   */\n    tag_228:\n        /* \"#utility.yul\":23435:23474   */\n      tag_452\n        /* \"#utility.yul\":23466:23473   */\n      dup4\n        /* \"#utility.yul\":23435:23474   */\n      tag_226\n      jump\t// in\n    tag_452:\n        /* \"#utility.yul\":23496:23587   */\n      tag_453\n        /* \"#utility.yul\":23545:23586   */\n      tag_454\n        /* \"#utility.yul\":23569:23585   */\n      dup3\n        /* \"#utility.yul\":23545:23586   */\n      tag_227\n      jump\t// in\n    tag_454:\n        /* \"#utility.yul\":23537:23543   */\n      dup5\n        /* \"#utility.yul\":23530:23534   */\n      dup5\n        /* \"#utility.yul\":23524:23535   */\n      sload\n        /* \"#utility.yul\":23496:23587   */\n      tag_224\n      jump\t// in\n    tag_453:\n        /* \"#utility.yul\":23490:23494   */\n      dup3\n        /* \"#utility.yul\":23483:23588   */\n      sstore\n        /* \"#utility.yul\":23401:23594   */\n      pop\n        /* \"#utility.yul\":23325:23594   */\n      pop\n      pop\n      pop\n      jump\t// out\n        /* \"#utility.yul\":23600:23673   */\n    tag_229:\n        /* \"#utility.yul\":23645:23648   */\n      0x00\n        /* \"#utility.yul\":23600:23673   */\n      swap1\n      jump\t// out\n        /* \"#utility.yul\":23679:23868   */\n    tag_230:\n        /* \"#utility.yul\":23756:23788   */\n      tag_457\n      tag_229\n      jump\t// in\n    tag_457:\n        /* \"#utility.yul\":23797:23862   */\n      tag_458\n        /* \"#utility.yul\":23855:23861   */\n      dup2\n        /* \"#utility.yul\":23847:23853   */\n      dup5\n        /* \"#utility.yul\":23841:23845   */\n      dup5\n        /* \"#utility.yul\":23797:23862   */\n      tag_228\n      jump\t// in\n    tag_458:\n        /* \"#utility.yul\":23732:23868   */\n      pop\n        /* \"#utility.yul\":23679:23868   */\n      pop\n      pop\n      jump\t// out\n        /* \"#utility.yul\":23874:24060   */\n    tag_231:\n        /* \"#utility.yul\":23934:24054   */\n    tag_460:\n        /* \"#utility.yul\":23951:23954   */\n      dup2\n        /* \"#utility.yul\":23944:23949   */\n      dup2\n        /* \"#utility.yul\":23941:23955   */\n      lt\n        /* \"#utility.yul\":23934:24054   */\n      iszero\n      tag_462\n      jumpi\n        /* \"#utility.yul\":24005:24044   */\n      tag_463\n        /* \"#utility.yul\":24042:24043   */\n      0x00\n        /* \"#utility.yul\":24035:24040   */\n      dup3\n        /* \"#utility.yul\":24005:24044   */\n      tag_230\n      jump\t// in\n    tag_463:\n        /* \"#utility.yul\":23978:23979   */\n      0x01\n        /* \"#utility.yul\":23971:23976   */\n      dup2\n        /* \"#utility.yul\":23967:23980   */\n      add\n        /* \"#utility.yul\":23958:23980   */\n      swap1\n      pop\n        /* \"#utility.yul\":23934:24054   */\n      jump(tag_460)\n    tag_462:\n        /* \"#utility.yul\":23874:24060   */\n      pop\n      pop\n      jump\t// out\n        /* \"#utility.yul\":24066:24609   */\n    tag_232:\n        /* \"#utility.yul\":24167:24169   */\n      0x1f\n        /* \"#utility.yul\":24162:24165   */\n      dup3\n        /* \"#utility.yul\":24159:24170   */\n      gt\n        /* \"#utility.yul\":24156:24602   */\n      iszero\n      tag_465\n      jumpi\n        /* \"#utility.yul\":24201:24239   */\n      tag_466\n        /* \"#utility.yul\":24233:24238   */\n      dup2\n        /* \"#utility.yul\":24201:24239   */\n      tag_221\n      jump\t// in\n    tag_466:\n        /* \"#utility.yul\":24285:24314   */\n      tag_467\n        /* \"#utility.yul\":24303:24313   */\n      dup5\n        /* \"#utility.yul\":24285:24314   */\n      tag_222\n      jump\t// in\n    tag_467:\n        /* \"#utility.yul\":24275:24283   */\n      dup2\n        /* \"#utility.yul\":24271:24315   */\n      add\n        /* \"#utility.yul\":24468:24470   */\n      0x20\n        /* \"#utility.yul\":24456:24466   */\n      dup6\n        /* \"#utility.yul\":24453:24471   */\n      lt\n        /* \"#utility.yul\":24450:24499   */\n      iszero\n      tag_468\n      jumpi\n        /* \"#utility.yul\":24489:24497   */\n      dup2\n        /* \"#utility.yul\":24474:24497   */\n      swap1\n      pop\n        /* \"#utility.yul\":24450:24499   */\n    tag_468:\n        /* \"#utility.yul\":24512:24592   */\n      tag_469\n        /* \"#utility.yul\":24568:24590   */\n      tag_470\n        /* \"#utility.yul\":24586:24589   */\n      dup6\n        /* \"#utility.yul\":24568:24590   */\n      tag_222\n      jump\t// in\n    tag_470:\n        /* \"#utility.yul\":24558:24566   */\n      dup4\n        /* \"#utility.yul\":24554:24591   */\n      add\n        /* \"#utility.yul\":24541:24552   */\n      dup3\n        /* \"#utility.yul\":24512:24592   */\n      tag_231\n      jump\t// in\n    tag_469:\n        /* \"#utility.yul\":24171:24602   */\n      pop\n      pop\n        /* \"#utility.yul\":24156:24602   */\n    tag_465:\n        /* \"#utility.yul\":24066:24609   */\n      pop\n      pop\n      pop\n      jump\t// out\n        /* \"#utility.yul\":24615:24732   */\n    tag_233:\n        /* \"#utility.yul\":24669:24677   */\n      0x00\n        /* \"#utility.yul\":24719:24724   */\n      dup3\n        /* \"#utility.yul\":24713:24717   */\n      dup3\n        /* \"#utility.yul\":24709:24725   */\n      shr\n        /* \"#utility.yul\":24688:24725   */\n      swap1\n      pop\n        /* \"#utility.yul\":24615:24732   */\n      swap3\n      swap2\n      pop\n      pop\n      jump\t// out\n        /* \"#utility.yul\":24738:24907   */\n    tag_234:\n        /* \"#utility.yul\":24782:24788   */\n      0x00\n        /* \"#utility.yul\":24815:24866   */\n      tag_473\n        /* \"#utility.yul\":24863:24864   */\n      0x00\n        /* \"#utility.yul\":24859:24865   */\n      not\n        /* \"#utility.yul\":24851:24856   */\n      dup5\n        /* \"#utility.yul\":24848:24849   */\n      0x08\n        /* \"#utility.yul\":24844:24857   */\n      mul\n        /* \"#utility.yul\":24815:24866   */\n      tag_233\n      jump\t// in\n    tag_473:\n        /* \"#utility.yul\":24811:24867   */\n      not\n        /* \"#utility.yul\":24896:24900   */\n      dup1\n        /* \"#utility.yul\":24890:24894   */\n      dup4\n        /* \"#utility.yul\":24886:24901   */\n      and\n        /* \"#utility.yul\":24876:24901   */\n      swap2\n      pop\n        /* \"#utility.yul\":24789:24907   */\n      pop\n        /* \"#utility.yul\":24738:24907   */\n      swap3\n      swap2\n      pop\n      pop\n      jump\t// out\n        /* \"#utility.yul\":24912:25207   */\n    tag_235:\n        /* \"#utility.yul\":24988:24992   */\n      0x00\n        /* \"#utility.yul\":25134:25163   */\n      tag_475\n        /* \"#utility.yul\":25159:25162   */\n      dup4\n        /* \"#utility.yul\":25153:25157   */\n      dup4\n        /* \"#utility.yul\":25134:25163   */\n      tag_234\n      jump\t// in\n    tag_475:\n        /* \"#utility.yul\":25126:25163   */\n      swap2\n      pop\n        /* \"#utility.yul\":25196:25199   */\n      dup3\n        /* \"#utility.yul\":25193:25194   */\n      0x02\n        /* \"#utility.yul\":25189:25200   */\n      mul\n        /* \"#utility.yul\":25183:25187   */\n      dup3\n        /* \"#utility.yul\":25180:25201   */\n      or\n        /* \"#utility.yul\":25172:25201   */\n      swap1\n      pop\n        /* \"#utility.yul\":24912:25207   */\n      swap3\n      swap2\n      pop\n      pop\n      jump\t// out\n        /* \"#utility.yul\":25212:26607   */\n    tag_85:\n        /* \"#utility.yul\":25329:25366   */\n      tag_477\n        /* \"#utility.yul\":25362:25365   */\n      dup3\n        /* \"#utility.yul\":25329:25366   */\n      tag_186\n      jump\t// in\n    tag_477:\n        /* \"#utility.yul\":25431:25449   */\n      0xffffffffffffffff\n        /* \"#utility.yul\":25423:25429   */\n      dup2\n        /* \"#utility.yul\":25420:25450   */\n      gt\n        /* \"#utility.yul\":25417:25473   */\n      iszero\n      tag_478\n      jumpi\n        /* \"#utility.yul\":25453:25471   */\n      tag_479\n      tag_100\n      jump\t// in\n    tag_479:\n        /* \"#utility.yul\":25417:25473   */\n    tag_478:\n        /* \"#utility.yul\":25497:25535   */\n      tag_480\n        /* \"#utility.yul\":25529:25533   */\n      dup3\n        /* \"#utility.yul\":25523:25534   */\n      sload\n        /* \"#utility.yul\":25497:25535   */\n      tag_54\n      jump\t// in\n    tag_480:\n        /* \"#utility.yul\":25582:25649   */\n      tag_481\n        /* \"#utility.yul\":25642:25648   */\n      dup3\n        /* \"#utility.yul\":25634:25640   */\n      dup3\n        /* \"#utility.yul\":25628:25632   */\n      dup6\n        /* \"#utility.yul\":25582:25649   */\n      tag_232\n      jump\t// in\n    tag_481:\n        /* \"#utility.yul\":25676:25677   */\n      0x00\n        /* \"#utility.yul\":25700:25704   */\n      0x20\n        /* \"#utility.yul\":25687:25704   */\n      swap1\n      pop\n        /* \"#utility.yul\":25732:25734   */\n      0x1f\n        /* \"#utility.yul\":25724:25730   */\n      dup4\n        /* \"#utility.yul\":25721:25735   */\n      gt\n        /* \"#utility.yul\":25749:25750   */\n      0x01\n        /* \"#utility.yul\":25744:26362   */\n      dup2\n      eq\n      tag_483\n      jumpi\n        /* \"#utility.yul\":26406:26407   */\n      0x00\n        /* \"#utility.yul\":26423:26429   */\n      dup5\n        /* \"#utility.yul\":26420:26497   */\n      iszero\n      tag_484\n      jumpi\n        /* \"#utility.yul\":26472:26481   */\n      dup3\n        /* \"#utility.yul\":26467:26470   */\n      dup8\n        /* \"#utility.yul\":26463:26482   */\n      add\n        /* \"#utility.yul\":26457:26483   */\n      mload\n        /* \"#utility.yul\":26448:26483   */\n      swap1\n      pop\n        /* \"#utility.yul\":26420:26497   */\n    tag_484:\n        /* \"#utility.yul\":26523:26590   */\n      tag_485\n        /* \"#utility.yul\":26583:26589   */\n      dup6\n        /* \"#utility.yul\":26576:26581   */\n      dup3\n        /* \"#utility.yul\":26523:26590   */\n      tag_235\n      jump\t// in\n    tag_485:\n        /* \"#utility.yul\":26517:26521   */\n      dup7\n        /* \"#utility.yul\":26510:26591   */\n      sstore\n        /* \"#utility.yul\":26379:26601   */\n      pop\n        /* \"#utility.yul\":25714:26601   */\n      jump(tag_482)\n        /* \"#utility.yul\":25744:26362   */\n    tag_483:\n        /* \"#utility.yul\":25796:25800   */\n      0x1f\n        /* \"#utility.yul\":25792:25801   */\n      not\n        /* \"#utility.yul\":25784:25790   */\n      dup5\n        /* \"#utility.yul\":25780:25802   */\n      and\n        /* \"#utility.yul\":25830:25867   */\n      tag_486\n        /* \"#utility.yul\":25862:25866   */\n      dup7\n        /* \"#utility.yul\":25830:25867   */\n      tag_221\n      jump\t// in\n    tag_486:\n        /* \"#utility.yul\":25889:25890   */\n      0x00\n        /* \"#utility.yul\":25903:26111   */\n    tag_487:\n        /* \"#utility.yul\":25917:25924   */\n      dup3\n        /* \"#utility.yul\":25914:25915   */\n      dup2\n        /* \"#utility.yul\":25911:25925   */\n      lt\n        /* \"#utility.yul\":25903:26111   */\n      iszero\n      tag_489\n      jumpi\n        /* \"#utility.yul\":25996:26005   */\n      dup5\n        /* \"#utility.yul\":25991:25994   */\n      dup10\n        /* \"#utility.yul\":25987:26006   */\n      add\n        /* \"#utility.yul\":25981:26007   */\n      mload\n        /* \"#utility.yul\":25973:25979   */\n      dup3\n        /* \"#utility.yul\":25966:26008   */\n      sstore\n        /* \"#utility.yul\":26047:26048   */\n      0x01\n        /* \"#utility.yul\":26039:26045   */\n      dup3\n        /* \"#utility.yul\":26035:26049   */\n      add\n        /* \"#utility.yul\":26025:26049   */\n      swap2\n      pop\n        /* \"#utility.yul\":26094:26096   */\n      0x20\n        /* \"#utility.yul\":26083:26092   */\n      dup6\n        /* \"#utility.yul\":26079:26097   */\n      add\n        /* \"#utility.yul\":26066:26097   */\n      swap5\n      pop\n        /* \"#utility.yul\":25940:25944   */\n      0x20\n        /* \"#utility.yul\":25937:25938   */\n      dup2\n        /* \"#utility.yul\":25933:25945   */\n      add\n        /* \"#utility.yul\":25928:25945   */\n      swap1\n      pop\n        /* \"#utility.yul\":25903:26111   */\n      jump(tag_487)\n    tag_489:\n        /* \"#utility.yul\":26139:26145   */\n      dup7\n        /* \"#utility.yul\":26130:26137   */\n      dup4\n        /* \"#utility.yul\":26127:26146   */\n      lt\n        /* \"#utility.yul\":26124:26303   */\n      iszero\n      tag_490\n      jumpi\n        /* \"#utility.yul\":26197:26206   */\n      dup5\n        /* \"#utility.yul\":26192:26195   */\n      dup10\n        /* \"#utility.yul\":26188:26207   */\n      add\n        /* \"#utility.yul\":26182:26208   */\n      mload\n        /* \"#utility.yul\":26240:26288   */\n      tag_491\n        /* \"#utility.yul\":26282:26286   */\n      0x1f\n        /* \"#utility.yul\":26274:26280   */\n      dup10\n        /* \"#utility.yul\":26270:26287   */\n      and\n        /* \"#utility.yul\":26259:26268   */\n      dup3\n        /* \"#utility.yul\":26240:26288   */\n      tag_234\n      jump\t// in\n    tag_491:\n        /* \"#utility.yul\":26232:26238   */\n      dup4\n        /* \"#utility.yul\":26225:26289   */\n      sstore\n        /* \"#utility.yul\":26147:26303   */\n      pop\n        /* \"#utility.yul\":26124:26303   */\n    tag_490:\n        /* \"#utility.yul\":26349:26350   */\n      0x01\n        /* \"#utility.yul\":26345:26346   */\n      0x02\n        /* \"#utility.yul\":26337:26343   */\n      dup9\n        /* \"#utility.yul\":26333:26347   */\n      mul\n        /* \"#utility.yul\":26329:26351   */\n      add\n        /* \"#utility.yul\":26323:26327   */\n      dup9\n        /* \"#utility.yul\":26316:26352   */\n      sstore\n        /* \"#utility.yul\":25751:26362   */\n      pop\n      pop\n      pop\n        /* \"#utility.yul\":25714:26601   */\n    tag_482:\n      pop\n        /* \"#utility.yul\":25304:26607   */\n      pop\n      pop\n      pop\n        /* \"#utility.yul\":25212:26607   */\n      pop\n      pop\n      jump\t// out\n        /* \"#utility.yul\":26613:26846   */\n    tag_89:\n        /* \"#utility.yul\":26652:26655   */\n      0x00\n        /* \"#utility.yul\":26675:26699   */\n      tag_493\n        /* \"#utility.yul\":26693:26698   */\n      dup3\n        /* \"#utility.yul\":26675:26699   */\n      tag_162\n      jump\t// in\n    tag_493:\n        /* \"#utility.yul\":26666:26699   */\n      swap2\n      pop\n        /* \"#utility.yul\":26721:26787   */\n      0xffffffffffffffffffffffffffffffffffffffffffffffffffffffffffffffff\n        /* \"#utility.yul\":26714:26719   */\n      dup3\n        /* \"#utility.yul\":26711:26788   */\n      sub\n        /* \"#utility.yul\":26708:26811   */\n      tag_494\n      jumpi\n        /* \"#utility.yul\":26791:26809   */\n      tag_495\n      tag_218\n      jump\t// in\n    tag_495:\n        /* \"#utility.yul\":26708:26811   */\n    tag_494:\n        /* \"#utility.yul\":26838:26839   */\n      0x01\n        /* \"#utility.yul\":26831:26836   */\n      dup3\n        /* \"#utility.yul\":26827:26840   */\n      add\n        /* \"#utility.yul\":26820:26840   */\n      swap1\n      pop\n        /* \"#utility.yul\":26613:26846   */\n      swap2\n      swap1\n      pop\n      jump\t// out\n        /* \"#utility.yul\":26852:27046   */\n    tag_91:\n        /* \"#utility.yul\":26892:26896   */\n      0x00\n        /* \"#utility.yul\":26912:26932   */\n      tag_497\n        /* \"#utility.yul\":26930:26931   */\n      dup3\n        /* \"#utility.yul\":26912:26932   */\n      tag_162\n      jump\t// in\n    tag_497:\n        /* \"#utility.yul\":26907:26932   */\n      swap2\n      pop\n        /* \"#utility.yul\":26946:26966   */\n      tag_498\n        /* \"#utility.yul\":26964:26965   */\n      dup4\n        /* \"#utility.yul\":26946:26966   */\n      tag_162\n      jump\t// in\n    tag_498:\n        /* \"#utility.yul\":26941:26966   */\n      swap3\n      pop\n        /* \"#utility.yul\":26990:26991   */\n      dup3\n        /* \"#utility.yul\":26987:26988   */\n      dup3\n        /* \"#utility.yul\":26983:26992   */\n      sub\n        /* \"#utility.yul\":26975:26992   */\n      swap1\n      pop\n        /* \"#utility.yul\":27014:27015   */\n      dup2\n        /* \"#utility.yul\":27008:27012   */\n      dup2\n        /* \"#utility.yul\":27005:27016   */\n      gt\n        /* \"#utility.yul\":27002:27039   */\n      iszero\n      tag_499\n      jumpi\n        /* \"#utility.yul\":27019:27037   */\n      tag_500\n      tag_218\n      jump\t// in\n    tag_500:\n        /* \"#utility.yul\":27002:27039   */\n    tag_499:\n        /* \"#utility.yul\":26852:27046   */\n      swap3\n      swap2\n      pop\n      pop\n      jump\t// out\n        /* \"#utility.yul\":27052:27232   */\n    tag_130:\n        /* \"#utility.yul\":27100:27177   */\n      0x4e487b7100000000000000000000000000000000000000000000000000000000\n        /* \"#utility.yul\":27097:27098   */\n      0x00\n        /* \"#utility.yul\":27090:27178   */\n      mstore\n        /* \"#utility.yul\":27197:27201   */\n      0x32\n        /* \"#utility.yul\":27194:27195   */\n      0x04\n        /* \"#utility.yul\":27187:27202   */\n      mstore\n        /* \"#utility.yul\":27221:27225   */\n      0x24\n        /* \"#utility.yul\":27218:27219   */\n      0x00\n        /* \"#utility.yul\":27211:27226   */\n      revert\n\n    auxdata: 0xa2646970667358221220c031fcb9e7ed19a98a8e2d828113660fb37afcb4f1c25a7c417293f76b08d71b64736f6c634300081a0033\n}\n",
				"bytecode": {
					"linkReferences": {},
					"object": "60806040525f6001553480156012575f80fd5b50611d95806100205f395ff3fe60806040526004361061006f575f3560e01c806342a4fda81161004d57806342a4fda81461011c5780639943e3a114610138578063a1e5084c14610174578063a6b03633146101b05761006f565b806307ca140d146100735780630fa91fa91461009d578063141961bc146100da575b5f80fd5b34801561007e575f80fd5b506100876101da565b6040516100949190611036565b60405180910390f35b3480156100a8575f80fd5b506100c360048036038101906100be919061108a565b6101e0565b6040516100d1929190611253565b60405180910390f35b3480156100e5575f80fd5b5061010060048036038101906100fb919061108a565b6102e7565b6040516101139796959493929190611307565b60405180910390f35b6101366004803603810190610131919061108a565b6104d5565b005b348015610143575f80fd5b5061015e600480360381019061015991906114df565b610625565b60405161016b9190611036565b60405180910390f35b34801561017f575f80fd5b5061019a600480360381019061019591906115bc565b610745565b6040516101a791906118a0565b60405180910390f35b3480156101bb575f80fd5b506101c4610c02565b6040516101d191906118a0565b60405180910390f35b60015481565b6060805f808481526020019081526020015f206007015f808581526020019081526020015f206008018180548060200260200160405190810160405280929190818152602001828054801561028757602002820191905f5260205f20905b815f9054906101000a900473ffffffffffffffffffffffffffffffffffffffff1673ffffffffffffffffffffffffffffffffffffffff168152602001906001019080831161023e575b50505050509150808054806020026020016040519081016040528092919081815260200182805480156102d757602002820191905f5260205f20905b8154815260200190600101908083116102c3575b5050505050905091509150915091565b5f602052805f5260405f205f91509050805f015f9054906101000a900473ffffffffffffffffffffffffffffffffffffffff169080600101805461032a906118ed565b80601f0160208091040260200160405190810160405280929190818152602001828054610356906118ed565b80156103a15780601f10610378576101008083540402835291602001916103a1565b820191905f5260205f20905b81548152906001019060200180831161038457829003601f168201915b5050505050908060020180546103b6906118ed565b80601f01602080910402602001604051908101604052809291908181526020018280546103e2906118ed565b801561042d5780601f106104045761010080835404028352916020019161042d565b820191905f5260205f20905b81548152906001019060200180831161041057829003601f168201915b505050505090806003015490806004015490806005015490806006018054610454906118ed565b80601f0160208091040260200160405190810160405280929190818152602001828054610480906118ed565b80156104cb5780601f106104a2576101008083540402835291602001916104cb565b820191905f5260205f20905b8154815290600101906020018083116104ae57829003601f168201915b5050505050905087565b5f3490505f805f8481526020019081526020015f2090508060070133908060018154018082558091505060019003905f5260205f20015f9091909190916101000a81548173ffffffffffffffffffffffffffffffffffffffff021916908373ffffffffffffffffffffffffffffffffffffffff1602179055508060080182908060018154018082558091505060019003905f5260205f20015f90919091909150555f815f015f9054906101000a900473ffffffffffffffffffffffffffffffffffffffff1673ffffffffffffffffffffffffffffffffffffffff16836040516105bd9061194a565b5f6040518083038185875af1925050503d805f81146105f7576040519150601f19603f3d011682016040523d82523d5f602084013e6105fc565b606091505b50509050801561061f57828260050154610616919061198b565b82600501819055505b50505050565b5f805f8060015481526020019081526020015f20905042816004015410610681576040517f08c379a000000000000000000000000000000000000000000000000000000000815260040161067890611a2e565b60405180910390fd5b87815f015f6101000a81548173ffffffffffffffffffffffffffffffffffffffff021916908373ffffffffffffffffffffffffffffffffffffffff160217905550868160010190816106d39190611be9565b50858160020190816106e59190611be9565b508481600301819055508381600401819055505f8160050181905550828160060190816107129190611be9565b5060015f81548092919061072590611cb8565b9190505550600180546107389190611cff565b9150509695505050505050565b60605f805b6001548110156107d4578373ffffffffffffffffffffffffffffffffffffffff165f808381526020019081526020015f205f015f9054906101000a900473ffffffffffffffffffffffffffffffffffffffff1673ffffffffffffffffffffffffffffffffffffffff16036107c75781806107c390611cb8565b9250505b808060010191505061074a565b505f8167ffffffffffffffff8111156107f0576107ef6113bb565b5b60405190808252806020026020018201604052801561082957816020015b610816610fc0565b81526020019060019003908161080e5790505b5090505f805b600154811015610bf6578573ffffffffffffffffffffffffffffffffffffffff165f808381526020019081526020015f205f015f9054906101000a900473ffffffffffffffffffffffffffffffffffffffff1673ffffffffffffffffffffffffffffffffffffffff1603610be9575f808281526020019081526020015f20604051806101200160405290815f82015f9054906101000a900473ffffffffffffffffffffffffffffffffffffffff1673ffffffffffffffffffffffffffffffffffffffff1673ffffffffffffffffffffffffffffffffffffffff16815260200160018201805461091d906118ed565b80601f0160208091040260200160405190810160405280929190818152602001828054610949906118ed565b80156109945780601f1061096b57610100808354040283529160200191610994565b820191905f5260205f20905b81548152906001019060200180831161097757829003601f168201915b505050505081526020016002820180546109ad906118ed565b80601f01602080910402602001604051908101604052809291908181526020018280546109d9906118ed565b8015610a245780601f106109fb57610100808354040283529160200191610a24565b820191905f5260205f20905b815481529060010190602001808311610a0757829003601f168201915b50505050508152602001600382015481526020016004820154815260200160058201548152602001600682018054610a5b906118ed565b80601f0160208091040260200160405190810160405280929190818152602001828054610a87906118ed565b8015610ad25780601f10610aa957610100808354040283529160200191610ad2565b820191905f5260205f20905b815481529060010190602001808311610ab557829003601f168201915b5050505050815260200160078201805480602002602001604051908101604052809291908181526020018280548015610b5d57602002820191905f5260205f20905b815f9054906101000a900473ffffffffffffffffffffffffffffffffffffffff1673ffffffffffffffffffffffffffffffffffffffff1681526020019060010190808311610b14575b5050505050815260200160088201805480602002602001604051908101604052809291908181526020018280548015610bb357602002820191905f5260205f20905b815481526020019060010190808311610b9f575b505050505081525050838381518110610bcf57610bce611d32565b5b60200260200101819052508180610be590611cb8565b9250505b808060010191505061082f565b50819350505050919050565b60605f60015467ffffffffffffffff811115610c2157610c206113bb565b5b604051908082528060200260200182016040528015610c5a57816020015b610c47610fc0565b815260200190600190039081610c3f5790505b5090505f5b600154811015610fb8575f805f8381526020019081526020015f20905080604051806101200160405290815f82015f9054906101000a900473ffffffffffffffffffffffffffffffffffffffff1673ffffffffffffffffffffffffffffffffffffffff1673ffffffffffffffffffffffffffffffffffffffff168152602001600182018054610ced906118ed565b80601f0160208091040260200160405190810160405280929190818152602001828054610d19906118ed565b8015610d645780601f10610d3b57610100808354040283529160200191610d64565b820191905f5260205f20905b815481529060010190602001808311610d4757829003601f168201915b50505050508152602001600282018054610d7d906118ed565b80601f0160208091040260200160405190810160405280929190818152602001828054610da9906118ed565b8015610df45780601f10610dcb57610100808354040283529160200191610df4565b820191905f5260205f20905b815481529060010190602001808311610dd757829003601f168201915b50505050508152602001600382015481526020016004820154815260200160058201548152602001600682018054610e2b906118ed565b80601f0160208091040260200160405190810160405280929190818152602001828054610e57906118ed565b8015610ea25780601f10610e7957610100808354040283529160200191610ea2565b820191905f5260205f20905b815481529060010190602001808311610e8557829003601f168201915b5050505050815260200160078201805480602002602001604051908101604052809291908181526020018280548015610f2d57602002820191905f5260205f20905b815f9054906101000a900473ffffffffffffffffffffffffffffffffffffffff1673ffffffffffffffffffffffffffffffffffffffff1681526020019060010190808311610ee4575b5050505050815260200160088201805480602002602001604051908101604052809291908181526020018280548015610f8357602002820191905f5260205f20905b815481526020019060010190808311610f6f575b505050505081525050838381518110610f9f57610f9e611d32565b5b6020026020010181905250508080600101915050610c5f565b508091505090565b6040518061012001604052805f73ffffffffffffffffffffffffffffffffffffffff16815260200160608152602001606081526020015f81526020015f81526020015f81526020016060815260200160608152602001606081525090565b5f819050919050565b6110308161101e565b82525050565b5f6020820190506110495f830184611027565b92915050565b5f604051905090565b5f80fd5b5f80fd5b6110698161101e565b8114611073575f80fd5b50565b5f8135905061108481611060565b92915050565b5f6020828403121561109f5761109e611058565b5b5f6110ac84828501611076565b91505092915050565b5f81519050919050565b5f82825260208201905092915050565b5f819050602082019050919050565b5f73ffffffffffffffffffffffffffffffffffffffff82169050919050565b5f611107826110de565b9050919050565b611117816110fd565b82525050565b5f611128838361110e565b60208301905092915050565b5f602082019050919050565b5f61114a826110b5565b61115481856110bf565b935061115f836110cf565b805f5b8381101561118f578151611176888261111d565b975061118183611134565b925050600181019050611162565b5085935050505092915050565b5f81519050919050565b5f82825260208201905092915050565b5f819050602082019050919050565b6111ce8161101e565b82525050565b5f6111df83836111c5565b60208301905092915050565b5f602082019050919050565b5f6112018261119c565b61120b81856111a6565b9350611216836111b6565b805f5b8381101561124657815161122d88826111d4565b9750611238836111eb565b925050600181019050611219565b5085935050505092915050565b5f6040820190508181035f83015261126b8185611140565b9050818103602083015261127f81846111f7565b90509392505050565b611291816110fd565b82525050565b5f81519050919050565b5f82825260208201905092915050565b8281835e5f83830152505050565b5f601f19601f8301169050919050565b5f6112d982611297565b6112e381856112a1565b93506112f38185602086016112b1565b6112fc816112bf565b840191505092915050565b5f60e08201905061131a5f83018a611288565b818103602083015261132c81896112cf565b9050818103604083015261134081886112cf565b905061134f6060830187611027565b61135c6080830186611027565b61136960a0830185611027565b81810360c083015261137b81846112cf565b905098975050505050505050565b611392816110fd565b811461139c575f80fd5b50565b5f813590506113ad81611389565b92915050565b5f80fd5b5f80fd5b7f4e487b71000000000000000000000000000000000000000000000000000000005f52604160045260245ffd5b6113f1826112bf565b810181811067ffffffffffffffff821117156114105761140f6113bb565b5b80604052505050565b5f61142261104f565b905061142e82826113e8565b919050565b5f67ffffffffffffffff82111561144d5761144c6113bb565b5b611456826112bf565b9050602081019050919050565b828183375f83830152505050565b5f61148361147e84611433565b611419565b90508281526020810184848401111561149f5761149e6113b7565b5b6114aa848285611463565b509392505050565b5f82601f8301126114c6576114c56113b3565b5b81356114d6848260208601611471565b91505092915050565b5f805f805f8060c087890312156114f9576114f8611058565b5b5f61150689828a0161139f565b965050602087013567ffffffffffffffff8111156115275761152661105c565b5b61153389828a016114b2565b955050604087013567ffffffffffffffff8111156115545761155361105c565b5b61156089828a016114b2565b945050606061157189828a01611076565b935050608061158289828a01611076565b92505060a087013567ffffffffffffffff8111156115a3576115a261105c565b5b6115af89828a016114b2565b9150509295509295509295565b5f602082840312156115d1576115d0611058565b5b5f6115de8482850161139f565b91505092915050565b5f81519050919050565b5f82825260208201905092915050565b5f819050602082019050919050565b5f82825260208201905092915050565b5f61162a82611297565b6116348185611610565b93506116448185602086016112b1565b61164d816112bf565b840191505092915050565b5f82825260208201905092915050565b5f611672826110b5565b61167c8185611658565b9350611687836110cf565b805f5b838110156116b757815161169e888261111d565b97506116a983611134565b92505060018101905061168a565b5085935050505092915050565b5f82825260208201905092915050565b5f6116de8261119c565b6116e881856116c4565b93506116f3836111b6565b805f5b8381101561172357815161170a88826111d4565b9750611715836111eb565b9250506001810190506116f6565b5085935050505092915050565b5f61012083015f8301516117465f86018261110e565b506020830151848203602086015261175e8282611620565b915050604083015184820360408601526117788282611620565b915050606083015161178d60608601826111c5565b5060808301516117a060808601826111c5565b5060a08301516117b360a08601826111c5565b5060c083015184820360c08601526117cb8282611620565b91505060e083015184820360e08601526117e58282611668565b91505061010083015184820361010086015261180182826116d4565b9150508091505092915050565b5f6118198383611730565b905092915050565b5f602082019050919050565b5f611837826115e7565b61184181856115f1565b93508360208202850161185385611601565b805f5b8581101561188e578484038952815161186f858261180e565b945061187a83611821565b925060208a01995050600181019050611856565b50829750879550505050505092915050565b5f6020820190508181035f8301526118b8818461182d565b905092915050565b7f4e487b71000000000000000000000000000000000000000000000000000000005f52602260045260245ffd5b5f600282049050600182168061190457607f821691505b602082108103611917576119166118c0565b5b50919050565b5f81905092915050565b50565b5f6119355f8361191d565b915061194082611927565b5f82019050919050565b5f6119548261192a565b9150819050919050565b7f4e487b71000000000000000000000000000000000000000000000000000000005f52601160045260245ffd5b5f6119958261101e565b91506119a08361101e565b92508282019050808211156119b8576119b761195e565b5b92915050565b7f54686520646561646c696e652073686f756c642062652061206461746520696e5f8201527f20746865206675747572652e0000000000000000000000000000000000000000602082015250565b5f611a18602c836112a1565b9150611a23826119be565b604082019050919050565b5f6020820190508181035f830152611a4581611a0c565b9050919050565b5f819050815f5260205f209050919050565b5f6020601f8301049050919050565b5f82821b905092915050565b5f60088302611aa87fffffffffffffffffffffffffffffffffffffffffffffffffffffffffffffffff82611a6d565b611ab28683611a6d565b95508019841693508086168417925050509392505050565b5f819050919050565b5f611aed611ae8611ae38461101e565b611aca565b61101e565b9050919050565b5f819050919050565b611b0683611ad3565b611b1a611b1282611af4565b848454611a79565b825550505050565b5f90565b611b2e611b22565b611b39818484611afd565b505050565b5b81811015611b5c57611b515f82611b26565b600181019050611b3f565b5050565b601f821115611ba157611b7281611a4c565b611b7b84611a5e565b81016020851015611b8a578190505b611b9e611b9685611a5e565b830182611b3e565b50505b505050565b5f82821c905092915050565b5f611bc15f1984600802611ba6565b1980831691505092915050565b5f611bd98383611bb2565b9150826002028217905092915050565b611bf282611297565b67ffffffffffffffff811115611c0b57611c0a6113bb565b5b611c1582546118ed565b611c20828285611b60565b5f60209050601f831160018114611c51575f8415611c3f578287015190505b611c498582611bce565b865550611cb0565b601f198416611c5f86611a4c565b5f5b82811015611c8657848901518255600182019150602085019450602081019050611c61565b86831015611ca35784890151611c9f601f891682611bb2565b8355505b6001600288020188555050505b505050505050565b5f611cc28261101e565b91507fffffffffffffffffffffffffffffffffffffffffffffffffffffffffffffffff8203611cf457611cf361195e565b5b600182019050919050565b5f611d098261101e565b9150611d148361101e565b9250828203905081811115611d2c57611d2b61195e565b5b92915050565b7f4e487b71000000000000000000000000000000000000000000000000000000005f52603260045260245ffdfea2646970667358221220c031fcb9e7ed19a98a8e2d828113660fb37afcb4f1c25a7c417293f76b08d71b64736f6c634300081a0033",
					"opcodes": "PUSH1 0x80 PUSH1 0x40 MSTORE PUSH0 PUSH1 0x1 SSTORE CALLVALUE DUP1 ISZERO PUSH1 0x12 JUMPI PUSH0 DUP1 REVERT JUMPDEST POP PUSH2 0x1D95 DUP1 PUSH2 0x20 PUSH0 CODECOPY PUSH0 RETURN INVALID PUSH1 0x80 PUSH1 0x40 MSTORE PUSH1 0x4 CALLDATASIZE LT PUSH2 0x6F JUMPI PUSH0 CALLDATALOAD PUSH1 0xE0 SHR DUP1 PUSH4 0x42A4FDA8 GT PUSH2 0x4D JUMPI DUP1 PUSH4 0x42A4FDA8 EQ PUSH2 0x11C JUMPI DUP1 PUSH4 0x9943E3A1 EQ PUSH2 0x138 JUMPI DUP1 PUSH4 0xA1E5084C EQ PUSH2 0x174 JUMPI DUP1 PUSH4 0xA6B03633 EQ PUSH2 0x1B0 JUMPI PUSH2 0x6F JUMP JUMPDEST DUP1 PUSH4 0x7CA140D EQ PUSH2 0x73 JUMPI DUP1 PUSH4 0xFA91FA9 EQ PUSH2 0x9D JUMPI DUP1 PUSH4 0x141961BC EQ PUSH2 0xDA JUMPI JUMPDEST PUSH0 DUP1 REVERT JUMPDEST CALLVALUE DUP1 ISZERO PUSH2 0x7E JUMPI PUSH0 DUP1 REVERT JUMPDEST POP PUSH2 0x87 PUSH2 0x1DA JUMP JUMPDEST PUSH1 0x40 MLOAD PUSH2 0x94 SWAP2 SWAP1 PUSH2 0x1036 JUMP JUMPDEST PUSH1 0x40 MLOAD DUP1 SWAP2 SUB SWAP1 RETURN JUMPDEST CALLVALUE DUP1 ISZERO PUSH2 0xA8 JUMPI PUSH0 DUP1 REVERT JUMPDEST POP PUSH2 0xC3 PUSH1 0x4 DUP1 CALLDATASIZE SUB DUP2 ADD SWAP1 PUSH2 0xBE SWAP2 SWAP1 PUSH2 0x108A JUMP JUMPDEST PUSH2 0x1E0 JUMP JUMPDEST PUSH1 0x40 MLOAD PUSH2 0xD1 SWAP3 SWAP2 SWAP1 PUSH2 0x1253 JUMP JUMPDEST PUSH1 0x40 MLOAD DUP1 SWAP2 SUB SWAP1 RETURN JUMPDEST CALLVALUE DUP1 ISZERO PUSH2 0xE5 JUMPI PUSH0 DUP1 REVERT JUMPDEST POP PUSH2 0x100 PUSH1 0x4 DUP1 CALLDATASIZE SUB DUP2 ADD SWAP1 PUSH2 0xFB SWAP2 SWAP1 PUSH2 0x108A JUMP JUMPDEST PUSH2 0x2E7 JUMP JUMPDEST PUSH1 0x40 MLOAD PUSH2 0x113 SWAP8 SWAP7 SWAP6 SWAP5 SWAP4 SWAP3 SWAP2 SWAP1 PUSH2 0x1307 JUMP JUMPDEST PUSH1 0x40 MLOAD DUP1 SWAP2 SUB SWAP1 RETURN JUMPDEST PUSH2 0x136 PUSH1 0x4 DUP1 CALLDATASIZE SUB DUP2 ADD SWAP1 PUSH2 0x131 SWAP2 SWAP1 PUSH2 0x108A JUMP JUMPDEST PUSH2 0x4D5 JUMP JUMPDEST STOP JUMPDEST CALLVALUE DUP1 ISZERO PUSH2 0x143 JUMPI PUSH0 DUP1 REVERT JUMPDEST POP PUSH2 0x15E PUSH1 0x4 DUP1 CALLDATASIZE SUB DUP2 ADD SWAP1 PUSH2 0x159 SWAP2 SWAP1 PUSH2 0x14DF JUMP JUMPDEST PUSH2 0x625 JUMP JUMPDEST PUSH1 0x40 MLOAD PUSH2 0x16B SWAP2 SWAP1 PUSH2 0x1036 JUMP JUMPDEST PUSH1 0x40 MLOAD DUP1 SWAP2 SUB SWAP1 RETURN JUMPDEST CALLVALUE DUP1 ISZERO PUSH2 0x17F JUMPI PUSH0 DUP1 REVERT JUMPDEST POP PUSH2 0x19A PUSH1 0x4 DUP1 CALLDATASIZE SUB DUP2 ADD SWAP1 PUSH2 0x195 SWAP2 SWAP1 PUSH2 0x15BC JUMP JUMPDEST PUSH2 0x745 JUMP JUMPDEST PUSH1 0x40 MLOAD PUSH2 0x1A7 SWAP2 SWAP1 PUSH2 0x18A0 JUMP JUMPDEST PUSH1 0x40 MLOAD DUP1 SWAP2 SUB SWAP1 RETURN JUMPDEST CALLVALUE DUP1 ISZERO PUSH2 0x1BB JUMPI PUSH0 DUP1 REVERT JUMPDEST POP PUSH2 0x1C4 PUSH2 0xC02 JUMP JUMPDEST PUSH1 0x40 MLOAD PUSH2 0x1D1 SWAP2 SWAP1 PUSH2 0x18A0 JUMP JUMPDEST PUSH1 0x40 MLOAD DUP1 SWAP2 SUB SWAP1 RETURN JUMPDEST PUSH1 0x1 SLOAD DUP2 JUMP JUMPDEST PUSH1 0x60 DUP1 PUSH0 DUP1 DUP5 DUP2 MSTORE PUSH1 0x20 ADD SWAP1 DUP2 MSTORE PUSH1 0x20 ADD PUSH0 KECCAK256 PUSH1 0x7 ADD PUSH0 DUP1 DUP6 DUP2 MSTORE PUSH1 0x20 ADD SWAP1 DUP2 MSTORE PUSH1 0x20 ADD PUSH0 KECCAK256 PUSH1 0x8 ADD DUP2 DUP1 SLOAD DUP1 PUSH1 0x20 MUL PUSH1 0x20 ADD PUSH1 0x40 MLOAD SWAP1 DUP2 ADD PUSH1 0x40 MSTORE DUP1 SWAP3 SWAP2 SWAP1 DUP2 DUP2 MSTORE PUSH1 0x20 ADD DUP3 DUP1 SLOAD DUP1 ISZERO PUSH2 0x287 JUMPI PUSH1 0x20 MUL DUP3 ADD SWAP2 SWAP1 PUSH0 MSTORE PUSH1 0x20 PUSH0 KECCAK256 SWAP1 JUMPDEST DUP2 PUSH0 SWAP1 SLOAD SWAP1 PUSH2 0x100 EXP SWAP1 DIV PUSH20 0xFFFFFFFFFFFFFFFFFFFFFFFFFFFFFFFFFFFFFFFF AND PUSH20 0xFFFFFFFFFFFFFFFFFFFFFFFFFFFFFFFFFFFFFFFF AND DUP2 MSTORE PUSH1 0x20 ADD SWAP1 PUSH1 0x1 ADD SWAP1 DUP1 DUP4 GT PUSH2 0x23E JUMPI JUMPDEST POP POP POP POP POP SWAP2 POP DUP1 DUP1 SLOAD DUP1 PUSH1 0x20 MUL PUSH1 0x20 ADD PUSH1 0x40 MLOAD SWAP1 DUP2 ADD PUSH1 0x40 MSTORE DUP1 SWAP3 SWAP2 SWAP1 DUP2 DUP2 MSTORE PUSH1 0x20 ADD DUP3 DUP1 SLOAD DUP1 ISZERO PUSH2 0x2D7 JUMPI PUSH1 0x20 MUL DUP3 ADD SWAP2 SWAP1 PUSH0 MSTORE PUSH1 0x20 PUSH0 KECCAK256 SWAP1 JUMPDEST DUP2 SLOAD DUP2 MSTORE PUSH1 0x20 ADD SWAP1 PUSH1 0x1 ADD SWAP1 DUP1 DUP4 GT PUSH2 0x2C3 JUMPI JUMPDEST POP POP POP POP POP SWAP1 POP SWAP2 POP SWAP2 POP SWAP2 POP SWAP2 JUMP JUMPDEST PUSH0 PUSH1 0x20 MSTORE DUP1 PUSH0 MSTORE PUSH1 0x40 PUSH0 KECCAK256 PUSH0 SWAP2 POP SWAP1 POP DUP1 PUSH0 ADD PUSH0 SWAP1 SLOAD SWAP1 PUSH2 0x100 EXP SWAP1 DIV PUSH20 0xFFFFFFFFFFFFFFFFFFFFFFFFFFFFFFFFFFFFFFFF AND SWAP1 DUP1 PUSH1 0x1 ADD DUP1 SLOAD PUSH2 0x32A SWAP1 PUSH2 0x18ED JUMP JUMPDEST DUP1 PUSH1 0x1F ADD PUSH1 0x20 DUP1 SWAP2 DIV MUL PUSH1 0x20 ADD PUSH1 0x40 MLOAD SWAP1 DUP2 ADD PUSH1 0x40 MSTORE DUP1 SWAP3 SWAP2 SWAP1 DUP2 DUP2 MSTORE PUSH1 0x20 ADD DUP3 DUP1 SLOAD PUSH2 0x356 SWAP1 PUSH2 0x18ED JUMP JUMPDEST DUP1 ISZERO PUSH2 0x3A1 JUMPI DUP1 PUSH1 0x1F LT PUSH2 0x378 JUMPI PUSH2 0x100 DUP1 DUP4 SLOAD DIV MUL DUP4 MSTORE SWAP2 PUSH1 0x20 ADD SWAP2 PUSH2 0x3A1 JUMP JUMPDEST DUP3 ADD SWAP2 SWAP1 PUSH0 MSTORE PUSH1 0x20 PUSH0 KECCAK256 SWAP1 JUMPDEST DUP2 SLOAD DUP2 MSTORE SWAP1 PUSH1 0x1 ADD SWAP1 PUSH1 0x20 ADD DUP1 DUP4 GT PUSH2 0x384 JUMPI DUP3 SWAP1 SUB PUSH1 0x1F AND DUP3 ADD SWAP2 JUMPDEST POP POP POP POP POP SWAP1 DUP1 PUSH1 0x2 ADD DUP1 SLOAD PUSH2 0x3B6 SWAP1 PUSH2 0x18ED JUMP JUMPDEST DUP1 PUSH1 0x1F ADD PUSH1 0x20 DUP1 SWAP2 DIV MUL PUSH1 0x20 ADD PUSH1 0x40 MLOAD SWAP1 DUP2 ADD PUSH1 0x40 MSTORE DUP1 SWAP3 SWAP2 SWAP1 DUP2 DUP2 MSTORE PUSH1 0x20 ADD DUP3 DUP1 SLOAD PUSH2 0x3E2 SWAP1 PUSH2 0x18ED JUMP JUMPDEST DUP1 ISZERO PUSH2 0x42D JUMPI DUP1 PUSH1 0x1F LT PUSH2 0x404 JUMPI PUSH2 0x100 DUP1 DUP4 SLOAD DIV MUL DUP4 MSTORE SWAP2 PUSH1 0x20 ADD SWAP2 PUSH2 0x42D JUMP JUMPDEST DUP3 ADD SWAP2 SWAP1 PUSH0 MSTORE PUSH1 0x20 PUSH0 KECCAK256 SWAP1 JUMPDEST DUP2 SLOAD DUP2 MSTORE SWAP1 PUSH1 0x1 ADD SWAP1 PUSH1 0x20 ADD DUP1 DUP4 GT PUSH2 0x410 JUMPI DUP3 SWAP1 SUB PUSH1 0x1F AND DUP3 ADD SWAP2 JUMPDEST POP POP POP POP POP SWAP1 DUP1 PUSH1 0x3 ADD SLOAD SWAP1 DUP1 PUSH1 0x4 ADD SLOAD SWAP1 DUP1 PUSH1 0x5 ADD SLOAD SWAP1 DUP1 PUSH1 0x6 ADD DUP1 SLOAD PUSH2 0x454 SWAP1 PUSH2 0x18ED JUMP JUMPDEST DUP1 PUSH1 0x1F ADD PUSH1 0x20 DUP1 SWAP2 DIV MUL PUSH1 0x20 ADD PUSH1 0x40 MLOAD SWAP1 DUP2 ADD PUSH1 0x40 MSTORE DUP1 SWAP3 SWAP2 SWAP1 DUP2 DUP2 MSTORE PUSH1 0x20 ADD DUP3 DUP1 SLOAD PUSH2 0x480 SWAP1 PUSH2 0x18ED JUMP JUMPDEST DUP1 ISZERO PUSH2 0x4CB JUMPI DUP1 PUSH1 0x1F LT PUSH2 0x4A2 JUMPI PUSH2 0x100 DUP1 DUP4 SLOAD DIV MUL DUP4 MSTORE SWAP2 PUSH1 0x20 ADD SWAP2 PUSH2 0x4CB JUMP JUMPDEST DUP3 ADD SWAP2 SWAP1 PUSH0 MSTORE PUSH1 0x20 PUSH0 KECCAK256 SWAP1 JUMPDEST DUP2 SLOAD DUP2 MSTORE SWAP1 PUSH1 0x1 ADD SWAP1 PUSH1 0x20 ADD DUP1 DUP4 GT PUSH2 0x4AE JUMPI DUP3 SWAP1 SUB PUSH1 0x1F AND DUP3 ADD SWAP2 JUMPDEST POP POP POP POP POP SWAP1 POP DUP8 JUMP JUMPDEST PUSH0 CALLVALUE SWAP1 POP PUSH0 DUP1 PUSH0 DUP5 DUP2 MSTORE PUSH1 0x20 ADD SWAP1 DUP2 MSTORE PUSH1 0x20 ADD PUSH0 KECCAK256 SWAP1 POP DUP1 PUSH1 0x7 ADD CALLER SWAP1 DUP1 PUSH1 0x1 DUP2 SLOAD ADD DUP1 DUP3 SSTORE DUP1 SWAP2 POP POP PUSH1 0x1 SWAP1 SUB SWAP1 PUSH0 MSTORE PUSH1 0x20 PUSH0 KECCAK256 ADD PUSH0 SWAP1 SWAP2 SWAP1 SWAP2 SWAP1 SWAP2 PUSH2 0x100 EXP DUP2 SLOAD DUP2 PUSH20 0xFFFFFFFFFFFFFFFFFFFFFFFFFFFFFFFFFFFFFFFF MUL NOT AND SWAP1 DUP4 PUSH20 0xFFFFFFFFFFFFFFFFFFFFFFFFFFFFFFFFFFFFFFFF AND MUL OR SWAP1 SSTORE POP DUP1 PUSH1 0x8 ADD DUP3 SWAP1 DUP1 PUSH1 0x1 DUP2 SLOAD ADD DUP1 DUP3 SSTORE DUP1 SWAP2 POP POP PUSH1 0x1 SWAP1 SUB SWAP1 PUSH0 MSTORE PUSH1 0x20 PUSH0 KECCAK256 ADD PUSH0 SWAP1 SWAP2 SWAP1 SWAP2 SWAP1 SWAP2 POP SSTORE PUSH0 DUP2 PUSH0 ADD PUSH0 SWAP1 SLOAD SWAP1 PUSH2 0x100 EXP SWAP1 DIV PUSH20 0xFFFFFFFFFFFFFFFFFFFFFFFFFFFFFFFFFFFFFFFF AND PUSH20 0xFFFFFFFFFFFFFFFFFFFFFFFFFFFFFFFFFFFFFFFF AND DUP4 PUSH1 0x40 MLOAD PUSH2 0x5BD SWAP1 PUSH2 0x194A JUMP JUMPDEST PUSH0 PUSH1 0x40 MLOAD DUP1 DUP4 SUB DUP2 DUP6 DUP8 GAS CALL SWAP3 POP POP POP RETURNDATASIZE DUP1 PUSH0 DUP2 EQ PUSH2 0x5F7 JUMPI PUSH1 0x40 MLOAD SWAP2 POP PUSH1 0x1F NOT PUSH1 0x3F RETURNDATASIZE ADD AND DUP3 ADD PUSH1 0x40 MSTORE RETURNDATASIZE DUP3 MSTORE RETURNDATASIZE PUSH0 PUSH1 0x20 DUP5 ADD RETURNDATACOPY PUSH2 0x5FC JUMP JUMPDEST PUSH1 0x60 SWAP2 POP JUMPDEST POP POP SWAP1 POP DUP1 ISZERO PUSH2 0x61F JUMPI DUP3 DUP3 PUSH1 0x5 ADD SLOAD PUSH2 0x616 SWAP2 SWAP1 PUSH2 0x198B JUMP JUMPDEST DUP3 PUSH1 0x5 ADD DUP2 SWAP1 SSTORE POP JUMPDEST POP POP POP POP JUMP JUMPDEST PUSH0 DUP1 PUSH0 DUP1 PUSH1 0x1 SLOAD DUP2 MSTORE PUSH1 0x20 ADD SWAP1 DUP2 MSTORE PUSH1 0x20 ADD PUSH0 KECCAK256 SWAP1 POP TIMESTAMP DUP2 PUSH1 0x4 ADD SLOAD LT PUSH2 0x681 JUMPI PUSH1 0x40 MLOAD PUSH32 0x8C379A000000000000000000000000000000000000000000000000000000000 DUP2 MSTORE PUSH1 0x4 ADD PUSH2 0x678 SWAP1 PUSH2 0x1A2E JUMP JUMPDEST PUSH1 0x40 MLOAD DUP1 SWAP2 SUB SWAP1 REVERT JUMPDEST DUP8 DUP2 PUSH0 ADD PUSH0 PUSH2 0x100 EXP DUP2 SLOAD DUP2 PUSH20 0xFFFFFFFFFFFFFFFFFFFFFFFFFFFFFFFFFFFFFFFF MUL NOT AND SWAP1 DUP4 PUSH20 0xFFFFFFFFFFFFFFFFFFFFFFFFFFFFFFFFFFFFFFFF AND MUL OR SWAP1 SSTORE POP DUP7 DUP2 PUSH1 0x1 ADD SWAP1 DUP2 PUSH2 0x6D3 SWAP2 SWAP1 PUSH2 0x1BE9 JUMP JUMPDEST POP DUP6 DUP2 PUSH1 0x2 ADD SWAP1 DUP2 PUSH2 0x6E5 SWAP2 SWAP1 PUSH2 0x1BE9 JUMP JUMPDEST POP DUP5 DUP2 PUSH1 0x3 ADD DUP2 SWAP1 SSTORE POP DUP4 DUP2 PUSH1 0x4 ADD DUP2 SWAP1 SSTORE POP PUSH0 DUP2 PUSH1 0x5 ADD DUP2 SWAP1 SSTORE POP DUP3 DUP2 PUSH1 0x6 ADD SWAP1 DUP2 PUSH2 0x712 SWAP2 SWAP1 PUSH2 0x1BE9 JUMP JUMPDEST POP PUSH1 0x1 PUSH0 DUP2 SLOAD DUP1 SWAP3 SWAP2 SWAP1 PUSH2 0x725 SWAP1 PUSH2 0x1CB8 JUMP JUMPDEST SWAP2 SWAP1 POP SSTORE POP PUSH1 0x1 DUP1 SLOAD PUSH2 0x738 SWAP2 SWAP1 PUSH2 0x1CFF JUMP JUMPDEST SWAP2 POP POP SWAP7 SWAP6 POP POP POP POP POP POP JUMP JUMPDEST PUSH1 0x60 PUSH0 DUP1 JUMPDEST PUSH1 0x1 SLOAD DUP2 LT ISZERO PUSH2 0x7D4 JUMPI DUP4 PUSH20 0xFFFFFFFFFFFFFFFFFFFFFFFFFFFFFFFFFFFFFFFF AND PUSH0 DUP1 DUP4 DUP2 MSTORE PUSH1 0x20 ADD SWAP1 DUP2 MSTORE PUSH1 0x20 ADD PUSH0 KECCAK256 PUSH0 ADD PUSH0 SWAP1 SLOAD SWAP1 PUSH2 0x100 EXP SWAP1 DIV PUSH20 0xFFFFFFFFFFFFFFFFFFFFFFFFFFFFFFFFFFFFFFFF AND PUSH20 0xFFFFFFFFFFFFFFFFFFFFFFFFFFFFFFFFFFFFFFFF AND SUB PUSH2 0x7C7 JUMPI DUP2 DUP1 PUSH2 0x7C3 SWAP1 PUSH2 0x1CB8 JUMP JUMPDEST SWAP3 POP POP JUMPDEST DUP1 DUP1 PUSH1 0x1 ADD SWAP2 POP POP PUSH2 0x74A JUMP JUMPDEST POP PUSH0 DUP2 PUSH8 0xFFFFFFFFFFFFFFFF DUP2 GT ISZERO PUSH2 0x7F0 JUMPI PUSH2 0x7EF PUSH2 0x13BB JUMP JUMPDEST JUMPDEST PUSH1 0x40 MLOAD SWAP1 DUP1 DUP3 MSTORE DUP1 PUSH1 0x20 MUL PUSH1 0x20 ADD DUP3 ADD PUSH1 0x40 MSTORE DUP1 ISZERO PUSH2 0x829 JUMPI DUP2 PUSH1 0x20 ADD JUMPDEST PUSH2 0x816 PUSH2 0xFC0 JUMP JUMPDEST DUP2 MSTORE PUSH1 0x20 ADD SWAP1 PUSH1 0x1 SWAP1 SUB SWAP1 DUP2 PUSH2 0x80E JUMPI SWAP1 POP JUMPDEST POP SWAP1 POP PUSH0 DUP1 JUMPDEST PUSH1 0x1 SLOAD DUP2 LT ISZERO PUSH2 0xBF6 JUMPI DUP6 PUSH20 0xFFFFFFFFFFFFFFFFFFFFFFFFFFFFFFFFFFFFFFFF AND PUSH0 DUP1 DUP4 DUP2 MSTORE PUSH1 0x20 ADD SWAP1 DUP2 MSTORE PUSH1 0x20 ADD PUSH0 KECCAK256 PUSH0 ADD PUSH0 SWAP1 SLOAD SWAP1 PUSH2 0x100 EXP SWAP1 DIV PUSH20 0xFFFFFFFFFFFFFFFFFFFFFFFFFFFFFFFFFFFFFFFF AND PUSH20 0xFFFFFFFFFFFFFFFFFFFFFFFFFFFFFFFFFFFFFFFF AND SUB PUSH2 0xBE9 JUMPI PUSH0 DUP1 DUP3 DUP2 MSTORE PUSH1 0x20 ADD SWAP1 DUP2 MSTORE PUSH1 0x20 ADD PUSH0 KECCAK256 PUSH1 0x40 MLOAD DUP1 PUSH2 0x120 ADD PUSH1 0x40 MSTORE SWAP1 DUP2 PUSH0 DUP3 ADD PUSH0 SWAP1 SLOAD SWAP1 PUSH2 0x100 EXP SWAP1 DIV PUSH20 0xFFFFFFFFFFFFFFFFFFFFFFFFFFFFFFFFFFFFFFFF AND PUSH20 0xFFFFFFFFFFFFFFFFFFFFFFFFFFFFFFFFFFFFFFFF AND PUSH20 0xFFFFFFFFFFFFFFFFFFFFFFFFFFFFFFFFFFFFFFFF AND DUP2 MSTORE PUSH1 0x20 ADD PUSH1 0x1 DUP3 ADD DUP1 SLOAD PUSH2 0x91D SWAP1 PUSH2 0x18ED JUMP JUMPDEST DUP1 PUSH1 0x1F ADD PUSH1 0x20 DUP1 SWAP2 DIV MUL PUSH1 0x20 ADD PUSH1 0x40 MLOAD SWAP1 DUP2 ADD PUSH1 0x40 MSTORE DUP1 SWAP3 SWAP2 SWAP1 DUP2 DUP2 MSTORE PUSH1 0x20 ADD DUP3 DUP1 SLOAD PUSH2 0x949 SWAP1 PUSH2 0x18ED JUMP JUMPDEST DUP1 ISZERO PUSH2 0x994 JUMPI DUP1 PUSH1 0x1F LT PUSH2 0x96B JUMPI PUSH2 0x100 DUP1 DUP4 SLOAD DIV MUL DUP4 MSTORE SWAP2 PUSH1 0x20 ADD SWAP2 PUSH2 0x994 JUMP JUMPDEST DUP3 ADD SWAP2 SWAP1 PUSH0 MSTORE PUSH1 0x20 PUSH0 KECCAK256 SWAP1 JUMPDEST DUP2 SLOAD DUP2 MSTORE SWAP1 PUSH1 0x1 ADD SWAP1 PUSH1 0x20 ADD DUP1 DUP4 GT PUSH2 0x977 JUMPI DUP3 SWAP1 SUB PUSH1 0x1F AND DUP3 ADD SWAP2 JUMPDEST POP POP POP POP POP DUP2 MSTORE PUSH1 0x20 ADD PUSH1 0x2 DUP3 ADD DUP1 SLOAD PUSH2 0x9AD SWAP1 PUSH2 0x18ED JUMP JUMPDEST DUP1 PUSH1 0x1F ADD PUSH1 0x20 DUP1 SWAP2 DIV MUL PUSH1 0x20 ADD PUSH1 0x40 MLOAD SWAP1 DUP2 ADD PUSH1 0x40 MSTORE DUP1 SWAP3 SWAP2 SWAP1 DUP2 DUP2 MSTORE PUSH1 0x20 ADD DUP3 DUP1 SLOAD PUSH2 0x9D9 SWAP1 PUSH2 0x18ED JUMP JUMPDEST DUP1 ISZERO PUSH2 0xA24 JUMPI DUP1 PUSH1 0x1F LT PUSH2 0x9FB JUMPI PUSH2 0x100 DUP1 DUP4 SLOAD DIV MUL DUP4 MSTORE SWAP2 PUSH1 0x20 ADD SWAP2 PUSH2 0xA24 JUMP JUMPDEST DUP3 ADD SWAP2 SWAP1 PUSH0 MSTORE PUSH1 0x20 PUSH0 KECCAK256 SWAP1 JUMPDEST DUP2 SLOAD DUP2 MSTORE SWAP1 PUSH1 0x1 ADD SWAP1 PUSH1 0x20 ADD DUP1 DUP4 GT PUSH2 0xA07 JUMPI DUP3 SWAP1 SUB PUSH1 0x1F AND DUP3 ADD SWAP2 JUMPDEST POP POP POP POP POP DUP2 MSTORE PUSH1 0x20 ADD PUSH1 0x3 DUP3 ADD SLOAD DUP2 MSTORE PUSH1 0x20 ADD PUSH1 0x4 DUP3 ADD SLOAD DUP2 MSTORE PUSH1 0x20 ADD PUSH1 0x5 DUP3 ADD SLOAD DUP2 MSTORE PUSH1 0x20 ADD PUSH1 0x6 DUP3 ADD DUP1 SLOAD PUSH2 0xA5B SWAP1 PUSH2 0x18ED JUMP JUMPDEST DUP1 PUSH1 0x1F ADD PUSH1 0x20 DUP1 SWAP2 DIV MUL PUSH1 0x20 ADD PUSH1 0x40 MLOAD SWAP1 DUP2 ADD PUSH1 0x40 MSTORE DUP1 SWAP3 SWAP2 SWAP1 DUP2 DUP2 MSTORE PUSH1 0x20 ADD DUP3 DUP1 SLOAD PUSH2 0xA87 SWAP1 PUSH2 0x18ED JUMP JUMPDEST DUP1 ISZERO PUSH2 0xAD2 JUMPI DUP1 PUSH1 0x1F LT PUSH2 0xAA9 JUMPI PUSH2 0x100 DUP1 DUP4 SLOAD DIV MUL DUP4 MSTORE SWAP2 PUSH1 0x20 ADD SWAP2 PUSH2 0xAD2 JUMP JUMPDEST DUP3 ADD SWAP2 SWAP1 PUSH0 MSTORE PUSH1 0x20 PUSH0 KECCAK256 SWAP1 JUMPDEST DUP2 SLOAD DUP2 MSTORE SWAP1 PUSH1 0x1 ADD SWAP1 PUSH1 0x20 ADD DUP1 DUP4 GT PUSH2 0xAB5 JUMPI DUP3 SWAP1 SUB PUSH1 0x1F AND DUP3 ADD SWAP2 JUMPDEST POP POP POP POP POP DUP2 MSTORE PUSH1 0x20 ADD PUSH1 0x7 DUP3 ADD DUP1 SLOAD DUP1 PUSH1 0x20 MUL PUSH1 0x20 ADD PUSH1 0x40 MLOAD SWAP1 DUP2 ADD PUSH1 0x40 MSTORE DUP1 SWAP3 SWAP2 SWAP1 DUP2 DUP2 MSTORE PUSH1 0x20 ADD DUP3 DUP1 SLOAD DUP1 ISZERO PUSH2 0xB5D JUMPI PUSH1 0x20 MUL DUP3 ADD SWAP2 SWAP1 PUSH0 MSTORE PUSH1 0x20 PUSH0 KECCAK256 SWAP1 JUMPDEST DUP2 PUSH0 SWAP1 SLOAD SWAP1 PUSH2 0x100 EXP SWAP1 DIV PUSH20 0xFFFFFFFFFFFFFFFFFFFFFFFFFFFFFFFFFFFFFFFF AND PUSH20 0xFFFFFFFFFFFFFFFFFFFFFFFFFFFFFFFFFFFFFFFF AND DUP2 MSTORE PUSH1 0x20 ADD SWAP1 PUSH1 0x1 ADD SWAP1 DUP1 DUP4 GT PUSH2 0xB14 JUMPI JUMPDEST POP POP POP POP POP DUP2 MSTORE PUSH1 0x20 ADD PUSH1 0x8 DUP3 ADD DUP1 SLOAD DUP1 PUSH1 0x20 MUL PUSH1 0x20 ADD PUSH1 0x40 MLOAD SWAP1 DUP2 ADD PUSH1 0x40 MSTORE DUP1 SWAP3 SWAP2 SWAP1 DUP2 DUP2 MSTORE PUSH1 0x20 ADD DUP3 DUP1 SLOAD DUP1 ISZERO PUSH2 0xBB3 JUMPI PUSH1 0x20 MUL DUP3 ADD SWAP2 SWAP1 PUSH0 MSTORE PUSH1 0x20 PUSH0 KECCAK256 SWAP1 JUMPDEST DUP2 SLOAD DUP2 MSTORE PUSH1 0x20 ADD SWAP1 PUSH1 0x1 ADD SWAP1 DUP1 DUP4 GT PUSH2 0xB9F JUMPI JUMPDEST POP POP POP POP POP DUP2 MSTORE POP POP DUP4 DUP4 DUP2 MLOAD DUP2 LT PUSH2 0xBCF JUMPI PUSH2 0xBCE PUSH2 0x1D32 JUMP JUMPDEST JUMPDEST PUSH1 0x20 MUL PUSH1 0x20 ADD ADD DUP2 SWAP1 MSTORE POP DUP2 DUP1 PUSH2 0xBE5 SWAP1 PUSH2 0x1CB8 JUMP JUMPDEST SWAP3 POP POP JUMPDEST DUP1 DUP1 PUSH1 0x1 ADD SWAP2 POP POP PUSH2 0x82F JUMP JUMPDEST POP DUP2 SWAP4 POP POP POP POP SWAP2 SWAP1 POP JUMP JUMPDEST PUSH1 0x60 PUSH0 PUSH1 0x1 SLOAD PUSH8 0xFFFFFFFFFFFFFFFF DUP2 GT ISZERO PUSH2 0xC21 JUMPI PUSH2 0xC20 PUSH2 0x13BB JUMP JUMPDEST JUMPDEST PUSH1 0x40 MLOAD SWAP1 DUP1 DUP3 MSTORE DUP1 PUSH1 0x20 MUL PUSH1 0x20 ADD DUP3 ADD PUSH1 0x40 MSTORE DUP1 ISZERO PUSH2 0xC5A JUMPI DUP2 PUSH1 0x20 ADD JUMPDEST PUSH2 0xC47 PUSH2 0xFC0 JUMP JUMPDEST DUP2 MSTORE PUSH1 0x20 ADD SWAP1 PUSH1 0x1 SWAP1 SUB SWAP1 DUP2 PUSH2 0xC3F JUMPI SWAP1 POP JUMPDEST POP SWAP1 POP PUSH0 JUMPDEST PUSH1 0x1 SLOAD DUP2 LT ISZERO PUSH2 0xFB8 JUMPI PUSH0 DUP1 PUSH0 DUP4 DUP2 MSTORE PUSH1 0x20 ADD SWAP1 DUP2 MSTORE PUSH1 0x20 ADD PUSH0 KECCAK256 SWAP1 POP DUP1 PUSH1 0x40 MLOAD DUP1 PUSH2 0x120 ADD PUSH1 0x40 MSTORE SWAP1 DUP2 PUSH0 DUP3 ADD PUSH0 SWAP1 SLOAD SWAP1 PUSH2 0x100 EXP SWAP1 DIV PUSH20 0xFFFFFFFFFFFFFFFFFFFFFFFFFFFFFFFFFFFFFFFF AND PUSH20 0xFFFFFFFFFFFFFFFFFFFFFFFFFFFFFFFFFFFFFFFF AND PUSH20 0xFFFFFFFFFFFFFFFFFFFFFFFFFFFFFFFFFFFFFFFF AND DUP2 MSTORE PUSH1 0x20 ADD PUSH1 0x1 DUP3 ADD DUP1 SLOAD PUSH2 0xCED SWAP1 PUSH2 0x18ED JUMP JUMPDEST DUP1 PUSH1 0x1F ADD PUSH1 0x20 DUP1 SWAP2 DIV MUL PUSH1 0x20 ADD PUSH1 0x40 MLOAD SWAP1 DUP2 ADD PUSH1 0x40 MSTORE DUP1 SWAP3 SWAP2 SWAP1 DUP2 DUP2 MSTORE PUSH1 0x20 ADD DUP3 DUP1 SLOAD PUSH2 0xD19 SWAP1 PUSH2 0x18ED JUMP JUMPDEST DUP1 ISZERO PUSH2 0xD64 JUMPI DUP1 PUSH1 0x1F LT PUSH2 0xD3B JUMPI PUSH2 0x100 DUP1 DUP4 SLOAD DIV MUL DUP4 MSTORE SWAP2 PUSH1 0x20 ADD SWAP2 PUSH2 0xD64 JUMP JUMPDEST DUP3 ADD SWAP2 SWAP1 PUSH0 MSTORE PUSH1 0x20 PUSH0 KECCAK256 SWAP1 JUMPDEST DUP2 SLOAD DUP2 MSTORE SWAP1 PUSH1 0x1 ADD SWAP1 PUSH1 0x20 ADD DUP1 DUP4 GT PUSH2 0xD47 JUMPI DUP3 SWAP1 SUB PUSH1 0x1F AND DUP3 ADD SWAP2 JUMPDEST POP POP POP POP POP DUP2 MSTORE PUSH1 0x20 ADD PUSH1 0x2 DUP3 ADD DUP1 SLOAD PUSH2 0xD7D SWAP1 PUSH2 0x18ED JUMP JUMPDEST DUP1 PUSH1 0x1F ADD PUSH1 0x20 DUP1 SWAP2 DIV MUL PUSH1 0x20 ADD PUSH1 0x40 MLOAD SWAP1 DUP2 ADD PUSH1 0x40 MSTORE DUP1 SWAP3 SWAP2 SWAP1 DUP2 DUP2 MSTORE PUSH1 0x20 ADD DUP3 DUP1 SLOAD PUSH2 0xDA9 SWAP1 PUSH2 0x18ED JUMP JUMPDEST DUP1 ISZERO PUSH2 0xDF4 JUMPI DUP1 PUSH1 0x1F LT PUSH2 0xDCB JUMPI PUSH2 0x100 DUP1 DUP4 SLOAD DIV MUL DUP4 MSTORE SWAP2 PUSH1 0x20 ADD SWAP2 PUSH2 0xDF4 JUMP JUMPDEST DUP3 ADD SWAP2 SWAP1 PUSH0 MSTORE PUSH1 0x20 PUSH0 KECCAK256 SWAP1 JUMPDEST DUP2 SLOAD DUP2 MSTORE SWAP1 PUSH1 0x1 ADD SWAP1 PUSH1 0x20 ADD DUP1 DUP4 GT PUSH2 0xDD7 JUMPI DUP3 SWAP1 SUB PUSH1 0x1F AND DUP3 ADD SWAP2 JUMPDEST POP POP POP POP POP DUP2 MSTORE PUSH1 0x20 ADD PUSH1 0x3 DUP3 ADD SLOAD DUP2 MSTORE PUSH1 0x20 ADD PUSH1 0x4 DUP3 ADD SLOAD DUP2 MSTORE PUSH1 0x20 ADD PUSH1 0x5 DUP3 ADD SLOAD DUP2 MSTORE PUSH1 0x20 ADD PUSH1 0x6 DUP3 ADD DUP1 SLOAD PUSH2 0xE2B SWAP1 PUSH2 0x18ED JUMP JUMPDEST DUP1 PUSH1 0x1F ADD PUSH1 0x20 DUP1 SWAP2 DIV MUL PUSH1 0x20 ADD PUSH1 0x40 MLOAD SWAP1 DUP2 ADD PUSH1 0x40 MSTORE DUP1 SWAP3 SWAP2 SWAP1 DUP2 DUP2 MSTORE PUSH1 0x20 ADD DUP3 DUP1 SLOAD PUSH2 0xE57 SWAP1 PUSH2 0x18ED JUMP JUMPDEST DUP1 ISZERO PUSH2 0xEA2 JUMPI DUP1 PUSH1 0x1F LT PUSH2 0xE79 JUMPI PUSH2 0x100 DUP1 DUP4 SLOAD DIV MUL DUP4 MSTORE SWAP2 PUSH1 0x20 ADD SWAP2 PUSH2 0xEA2 JUMP JUMPDEST DUP3 ADD SWAP2 SWAP1 PUSH0 MSTORE PUSH1 0x20 PUSH0 KECCAK256 SWAP1 JUMPDEST DUP2 SLOAD DUP2 MSTORE SWAP1 PUSH1 0x1 ADD SWAP1 PUSH1 0x20 ADD DUP1 DUP4 GT PUSH2 0xE85 JUMPI DUP3 SWAP1 SUB PUSH1 0x1F AND DUP3 ADD SWAP2 JUMPDEST POP POP POP POP POP DUP2 MSTORE PUSH1 0x20 ADD PUSH1 0x7 DUP3 ADD DUP1 SLOAD DUP1 PUSH1 0x20 MUL PUSH1 0x20 ADD PUSH1 0x40 MLOAD SWAP1 DUP2 ADD PUSH1 0x40 MSTORE DUP1 SWAP3 SWAP2 SWAP1 DUP2 DUP2 MSTORE PUSH1 0x20 ADD DUP3 DUP1 SLOAD DUP1 ISZERO PUSH2 0xF2D JUMPI PUSH1 0x20 MUL DUP3 ADD SWAP2 SWAP1 PUSH0 MSTORE PUSH1 0x20 PUSH0 KECCAK256 SWAP1 JUMPDEST DUP2 PUSH0 SWAP1 SLOAD SWAP1 PUSH2 0x100 EXP SWAP1 DIV PUSH20 0xFFFFFFFFFFFFFFFFFFFFFFFFFFFFFFFFFFFFFFFF AND PUSH20 0xFFFFFFFFFFFFFFFFFFFFFFFFFFFFFFFFFFFFFFFF AND DUP2 MSTORE PUSH1 0x20 ADD SWAP1 PUSH1 0x1 ADD SWAP1 DUP1 DUP4 GT PUSH2 0xEE4 JUMPI JUMPDEST POP POP POP POP POP DUP2 MSTORE PUSH1 0x20 ADD PUSH1 0x8 DUP3 ADD DUP1 SLOAD DUP1 PUSH1 0x20 MUL PUSH1 0x20 ADD PUSH1 0x40 MLOAD SWAP1 DUP2 ADD PUSH1 0x40 MSTORE DUP1 SWAP3 SWAP2 SWAP1 DUP2 DUP2 MSTORE PUSH1 0x20 ADD DUP3 DUP1 SLOAD DUP1 ISZERO PUSH2 0xF83 JUMPI PUSH1 0x20 MUL DUP3 ADD SWAP2 SWAP1 PUSH0 MSTORE PUSH1 0x20 PUSH0 KECCAK256 SWAP1 JUMPDEST DUP2 SLOAD DUP2 MSTORE PUSH1 0x20 ADD SWAP1 PUSH1 0x1 ADD SWAP1 DUP1 DUP4 GT PUSH2 0xF6F JUMPI JUMPDEST POP POP POP POP POP DUP2 MSTORE POP POP DUP4 DUP4 DUP2 MLOAD DUP2 LT PUSH2 0xF9F JUMPI PUSH2 0xF9E PUSH2 0x1D32 JUMP JUMPDEST JUMPDEST PUSH1 0x20 MUL PUSH1 0x20 ADD ADD DUP2 SWAP1 MSTORE POP POP DUP1 DUP1 PUSH1 0x1 ADD SWAP2 POP POP PUSH2 0xC5F JUMP JUMPDEST POP DUP1 SWAP2 POP POP SWAP1 JUMP JUMPDEST PUSH1 0x40 MLOAD DUP1 PUSH2 0x120 ADD PUSH1 0x40 MSTORE DUP1 PUSH0 PUSH20 0xFFFFFFFFFFFFFFFFFFFFFFFFFFFFFFFFFFFFFFFF AND DUP2 MSTORE PUSH1 0x20 ADD PUSH1 0x60 DUP2 MSTORE PUSH1 0x20 ADD PUSH1 0x60 DUP2 MSTORE PUSH1 0x20 ADD PUSH0 DUP2 MSTORE PUSH1 0x20 ADD PUSH0 DUP2 MSTORE PUSH1 0x20 ADD PUSH0 DUP2 MSTORE PUSH1 0x20 ADD PUSH1 0x60 DUP2 MSTORE PUSH1 0x20 ADD PUSH1 0x60 DUP2 MSTORE PUSH1 0x20 ADD PUSH1 0x60 DUP2 MSTORE POP SWAP1 JUMP JUMPDEST PUSH0 DUP2 SWAP1 POP SWAP2 SWAP1 POP JUMP JUMPDEST PUSH2 0x1030 DUP2 PUSH2 0x101E JUMP JUMPDEST DUP3 MSTORE POP POP JUMP JUMPDEST PUSH0 PUSH1 0x20 DUP3 ADD SWAP1 POP PUSH2 0x1049 PUSH0 DUP4 ADD DUP5 PUSH2 0x1027 JUMP JUMPDEST SWAP3 SWAP2 POP POP JUMP JUMPDEST PUSH0 PUSH1 0x40 MLOAD SWAP1 POP SWAP1 JUMP JUMPDEST PUSH0 DUP1 REVERT JUMPDEST PUSH0 DUP1 REVERT JUMPDEST PUSH2 0x1069 DUP2 PUSH2 0x101E JUMP JUMPDEST DUP2 EQ PUSH2 0x1073 JUMPI PUSH0 DUP1 REVERT JUMPDEST POP JUMP JUMPDEST PUSH0 DUP2 CALLDATALOAD SWAP1 POP PUSH2 0x1084 DUP2 PUSH2 0x1060 JUMP JUMPDEST SWAP3 SWAP2 POP POP JUMP JUMPDEST PUSH0 PUSH1 0x20 DUP3 DUP5 SUB SLT ISZERO PUSH2 0x109F JUMPI PUSH2 0x109E PUSH2 0x1058 JUMP JUMPDEST JUMPDEST PUSH0 PUSH2 0x10AC DUP5 DUP3 DUP6 ADD PUSH2 0x1076 JUMP JUMPDEST SWAP2 POP POP SWAP3 SWAP2 POP POP JUMP JUMPDEST PUSH0 DUP2 MLOAD SWAP1 POP SWAP2 SWAP1 POP JUMP JUMPDEST PUSH0 DUP3 DUP3 MSTORE PUSH1 0x20 DUP3 ADD SWAP1 POP SWAP3 SWAP2 POP POP JUMP JUMPDEST PUSH0 DUP2 SWAP1 POP PUSH1 0x20 DUP3 ADD SWAP1 POP SWAP2 SWAP1 POP JUMP JUMPDEST PUSH0 PUSH20 0xFFFFFFFFFFFFFFFFFFFFFFFFFFFFFFFFFFFFFFFF DUP3 AND SWAP1 POP SWAP2 SWAP1 POP JUMP JUMPDEST PUSH0 PUSH2 0x1107 DUP3 PUSH2 0x10DE JUMP JUMPDEST SWAP1 POP SWAP2 SWAP1 POP JUMP JUMPDEST PUSH2 0x1117 DUP2 PUSH2 0x10FD JUMP JUMPDEST DUP3 MSTORE POP POP JUMP JUMPDEST PUSH0 PUSH2 0x1128 DUP4 DUP4 PUSH2 0x110E JUMP JUMPDEST PUSH1 0x20 DUP4 ADD SWAP1 POP SWAP3 SWAP2 POP POP JUMP JUMPDEST PUSH0 PUSH1 0x20 DUP3 ADD SWAP1 POP SWAP2 SWAP1 POP JUMP JUMPDEST PUSH0 PUSH2 0x114A DUP3 PUSH2 0x10B5 JUMP JUMPDEST PUSH2 0x1154 DUP2 DUP6 PUSH2 0x10BF JUMP JUMPDEST SWAP4 POP PUSH2 0x115F DUP4 PUSH2 0x10CF JUMP JUMPDEST DUP1 PUSH0 JUMPDEST DUP4 DUP2 LT ISZERO PUSH2 0x118F JUMPI DUP2 MLOAD PUSH2 0x1176 DUP9 DUP3 PUSH2 0x111D JUMP JUMPDEST SWAP8 POP PUSH2 0x1181 DUP4 PUSH2 0x1134 JUMP JUMPDEST SWAP3 POP POP PUSH1 0x1 DUP2 ADD SWAP1 POP PUSH2 0x1162 JUMP JUMPDEST POP DUP6 SWAP4 POP POP POP POP SWAP3 SWAP2 POP POP JUMP JUMPDEST PUSH0 DUP2 MLOAD SWAP1 POP SWAP2 SWAP1 POP JUMP JUMPDEST PUSH0 DUP3 DUP3 MSTORE PUSH1 0x20 DUP3 ADD SWAP1 POP SWAP3 SWAP2 POP POP JUMP JUMPDEST PUSH0 DUP2 SWAP1 POP PUSH1 0x20 DUP3 ADD SWAP1 POP SWAP2 SWAP1 POP JUMP JUMPDEST PUSH2 0x11CE DUP2 PUSH2 0x101E JUMP JUMPDEST DUP3 MSTORE POP POP JUMP JUMPDEST PUSH0 PUSH2 0x11DF DUP4 DUP4 PUSH2 0x11C5 JUMP JUMPDEST PUSH1 0x20 DUP4 ADD SWAP1 POP SWAP3 SWAP2 POP POP JUMP JUMPDEST PUSH0 PUSH1 0x20 DUP3 ADD SWAP1 POP SWAP2 SWAP1 POP JUMP JUMPDEST PUSH0 PUSH2 0x1201 DUP3 PUSH2 0x119C JUMP JUMPDEST PUSH2 0x120B DUP2 DUP6 PUSH2 0x11A6 JUMP JUMPDEST SWAP4 POP PUSH2 0x1216 DUP4 PUSH2 0x11B6 JUMP JUMPDEST DUP1 PUSH0 JUMPDEST DUP4 DUP2 LT ISZERO PUSH2 0x1246 JUMPI DUP2 MLOAD PUSH2 0x122D DUP9 DUP3 PUSH2 0x11D4 JUMP JUMPDEST SWAP8 POP PUSH2 0x1238 DUP4 PUSH2 0x11EB JUMP JUMPDEST SWAP3 POP POP PUSH1 0x1 DUP2 ADD SWAP1 POP PUSH2 0x1219 JUMP JUMPDEST POP DUP6 SWAP4 POP POP POP POP SWAP3 SWAP2 POP POP JUMP JUMPDEST PUSH0 PUSH1 0x40 DUP3 ADD SWAP1 POP DUP2 DUP2 SUB PUSH0 DUP4 ADD MSTORE PUSH2 0x126B DUP2 DUP6 PUSH2 0x1140 JUMP JUMPDEST SWAP1 POP DUP2 DUP2 SUB PUSH1 0x20 DUP4 ADD MSTORE PUSH2 0x127F DUP2 DUP5 PUSH2 0x11F7 JUMP JUMPDEST SWAP1 POP SWAP4 SWAP3 POP POP POP JUMP JUMPDEST PUSH2 0x1291 DUP2 PUSH2 0x10FD JUMP JUMPDEST DUP3 MSTORE POP POP JUMP JUMPDEST PUSH0 DUP2 MLOAD SWAP1 POP SWAP2 SWAP1 POP JUMP JUMPDEST PUSH0 DUP3 DUP3 MSTORE PUSH1 0x20 DUP3 ADD SWAP1 POP SWAP3 SWAP2 POP POP JUMP JUMPDEST DUP3 DUP2 DUP4 MCOPY PUSH0 DUP4 DUP4 ADD MSTORE POP POP POP JUMP JUMPDEST PUSH0 PUSH1 0x1F NOT PUSH1 0x1F DUP4 ADD AND SWAP1 POP SWAP2 SWAP1 POP JUMP JUMPDEST PUSH0 PUSH2 0x12D9 DUP3 PUSH2 0x1297 JUMP JUMPDEST PUSH2 0x12E3 DUP2 DUP6 PUSH2 0x12A1 JUMP JUMPDEST SWAP4 POP PUSH2 0x12F3 DUP2 DUP6 PUSH1 0x20 DUP7 ADD PUSH2 0x12B1 JUMP JUMPDEST PUSH2 0x12FC DUP2 PUSH2 0x12BF JUMP JUMPDEST DUP5 ADD SWAP2 POP POP SWAP3 SWAP2 POP POP JUMP JUMPDEST PUSH0 PUSH1 0xE0 DUP3 ADD SWAP1 POP PUSH2 0x131A PUSH0 DUP4 ADD DUP11 PUSH2 0x1288 JUMP JUMPDEST DUP2 DUP2 SUB PUSH1 0x20 DUP4 ADD MSTORE PUSH2 0x132C DUP2 DUP10 PUSH2 0x12CF JUMP JUMPDEST SWAP1 POP DUP2 DUP2 SUB PUSH1 0x40 DUP4 ADD MSTORE PUSH2 0x1340 DUP2 DUP9 PUSH2 0x12CF JUMP JUMPDEST SWAP1 POP PUSH2 0x134F PUSH1 0x60 DUP4 ADD DUP8 PUSH2 0x1027 JUMP JUMPDEST PUSH2 0x135C PUSH1 0x80 DUP4 ADD DUP7 PUSH2 0x1027 JUMP JUMPDEST PUSH2 0x1369 PUSH1 0xA0 DUP4 ADD DUP6 PUSH2 0x1027 JUMP JUMPDEST DUP2 DUP2 SUB PUSH1 0xC0 DUP4 ADD MSTORE PUSH2 0x137B DUP2 DUP5 PUSH2 0x12CF JUMP JUMPDEST SWAP1 POP SWAP9 SWAP8 POP POP POP POP POP POP POP POP JUMP JUMPDEST PUSH2 0x1392 DUP2 PUSH2 0x10FD JUMP JUMPDEST DUP2 EQ PUSH2 0x139C JUMPI PUSH0 DUP1 REVERT JUMPDEST POP JUMP JUMPDEST PUSH0 DUP2 CALLDATALOAD SWAP1 POP PUSH2 0x13AD DUP2 PUSH2 0x1389 JUMP JUMPDEST SWAP3 SWAP2 POP POP JUMP JUMPDEST PUSH0 DUP1 REVERT JUMPDEST PUSH0 DUP1 REVERT JUMPDEST PUSH32 0x4E487B7100000000000000000000000000000000000000000000000000000000 PUSH0 MSTORE PUSH1 0x41 PUSH1 0x4 MSTORE PUSH1 0x24 PUSH0 REVERT JUMPDEST PUSH2 0x13F1 DUP3 PUSH2 0x12BF JUMP JUMPDEST DUP2 ADD DUP2 DUP2 LT PUSH8 0xFFFFFFFFFFFFFFFF DUP3 GT OR ISZERO PUSH2 0x1410 JUMPI PUSH2 0x140F PUSH2 0x13BB JUMP JUMPDEST JUMPDEST DUP1 PUSH1 0x40 MSTORE POP POP POP JUMP JUMPDEST PUSH0 PUSH2 0x1422 PUSH2 0x104F JUMP JUMPDEST SWAP1 POP PUSH2 0x142E DUP3 DUP3 PUSH2 0x13E8 JUMP JUMPDEST SWAP2 SWAP1 POP JUMP JUMPDEST PUSH0 PUSH8 0xFFFFFFFFFFFFFFFF DUP3 GT ISZERO PUSH2 0x144D JUMPI PUSH2 0x144C PUSH2 0x13BB JUMP JUMPDEST JUMPDEST PUSH2 0x1456 DUP3 PUSH2 0x12BF JUMP JUMPDEST SWAP1 POP PUSH1 0x20 DUP2 ADD SWAP1 POP SWAP2 SWAP1 POP JUMP JUMPDEST DUP3 DUP2 DUP4 CALLDATACOPY PUSH0 DUP4 DUP4 ADD MSTORE POP POP POP JUMP JUMPDEST PUSH0 PUSH2 0x1483 PUSH2 0x147E DUP5 PUSH2 0x1433 JUMP JUMPDEST PUSH2 0x1419 JUMP JUMPDEST SWAP1 POP DUP3 DUP2 MSTORE PUSH1 0x20 DUP2 ADD DUP5 DUP5 DUP5 ADD GT ISZERO PUSH2 0x149F JUMPI PUSH2 0x149E PUSH2 0x13B7 JUMP JUMPDEST JUMPDEST PUSH2 0x14AA DUP5 DUP3 DUP6 PUSH2 0x1463 JUMP JUMPDEST POP SWAP4 SWAP3 POP POP POP JUMP JUMPDEST PUSH0 DUP3 PUSH1 0x1F DUP4 ADD SLT PUSH2 0x14C6 JUMPI PUSH2 0x14C5 PUSH2 0x13B3 JUMP JUMPDEST JUMPDEST DUP2 CALLDATALOAD PUSH2 0x14D6 DUP5 DUP3 PUSH1 0x20 DUP7 ADD PUSH2 0x1471 JUMP JUMPDEST SWAP2 POP POP SWAP3 SWAP2 POP POP JUMP JUMPDEST PUSH0 DUP1 PUSH0 DUP1 PUSH0 DUP1 PUSH1 0xC0 DUP8 DUP10 SUB SLT ISZERO PUSH2 0x14F9 JUMPI PUSH2 0x14F8 PUSH2 0x1058 JUMP JUMPDEST JUMPDEST PUSH0 PUSH2 0x1506 DUP10 DUP3 DUP11 ADD PUSH2 0x139F JUMP JUMPDEST SWAP7 POP POP PUSH1 0x20 DUP8 ADD CALLDATALOAD PUSH8 0xFFFFFFFFFFFFFFFF DUP2 GT ISZERO PUSH2 0x1527 JUMPI PUSH2 0x1526 PUSH2 0x105C JUMP JUMPDEST JUMPDEST PUSH2 0x1533 DUP10 DUP3 DUP11 ADD PUSH2 0x14B2 JUMP JUMPDEST SWAP6 POP POP PUSH1 0x40 DUP8 ADD CALLDATALOAD PUSH8 0xFFFFFFFFFFFFFFFF DUP2 GT ISZERO PUSH2 0x1554 JUMPI PUSH2 0x1553 PUSH2 0x105C JUMP JUMPDEST JUMPDEST PUSH2 0x1560 DUP10 DUP3 DUP11 ADD PUSH2 0x14B2 JUMP JUMPDEST SWAP5 POP POP PUSH1 0x60 PUSH2 0x1571 DUP10 DUP3 DUP11 ADD PUSH2 0x1076 JUMP JUMPDEST SWAP4 POP POP PUSH1 0x80 PUSH2 0x1582 DUP10 DUP3 DUP11 ADD PUSH2 0x1076 JUMP JUMPDEST SWAP3 POP POP PUSH1 0xA0 DUP8 ADD CALLDATALOAD PUSH8 0xFFFFFFFFFFFFFFFF DUP2 GT ISZERO PUSH2 0x15A3 JUMPI PUSH2 0x15A2 PUSH2 0x105C JUMP JUMPDEST JUMPDEST PUSH2 0x15AF DUP10 DUP3 DUP11 ADD PUSH2 0x14B2 JUMP JUMPDEST SWAP2 POP POP SWAP3 SWAP6 POP SWAP3 SWAP6 POP SWAP3 SWAP6 JUMP JUMPDEST PUSH0 PUSH1 0x20 DUP3 DUP5 SUB SLT ISZERO PUSH2 0x15D1 JUMPI PUSH2 0x15D0 PUSH2 0x1058 JUMP JUMPDEST JUMPDEST PUSH0 PUSH2 0x15DE DUP5 DUP3 DUP6 ADD PUSH2 0x139F JUMP JUMPDEST SWAP2 POP POP SWAP3 SWAP2 POP POP JUMP JUMPDEST PUSH0 DUP2 MLOAD SWAP1 POP SWAP2 SWAP1 POP JUMP JUMPDEST PUSH0 DUP3 DUP3 MSTORE PUSH1 0x20 DUP3 ADD SWAP1 POP SWAP3 SWAP2 POP POP JUMP JUMPDEST PUSH0 DUP2 SWAP1 POP PUSH1 0x20 DUP3 ADD SWAP1 POP SWAP2 SWAP1 POP JUMP JUMPDEST PUSH0 DUP3 DUP3 MSTORE PUSH1 0x20 DUP3 ADD SWAP1 POP SWAP3 SWAP2 POP POP JUMP JUMPDEST PUSH0 PUSH2 0x162A DUP3 PUSH2 0x1297 JUMP JUMPDEST PUSH2 0x1634 DUP2 DUP6 PUSH2 0x1610 JUMP JUMPDEST SWAP4 POP PUSH2 0x1644 DUP2 DUP6 PUSH1 0x20 DUP7 ADD PUSH2 0x12B1 JUMP JUMPDEST PUSH2 0x164D DUP2 PUSH2 0x12BF JUMP JUMPDEST DUP5 ADD SWAP2 POP POP SWAP3 SWAP2 POP POP JUMP JUMPDEST PUSH0 DUP3 DUP3 MSTORE PUSH1 0x20 DUP3 ADD SWAP1 POP SWAP3 SWAP2 POP POP JUMP JUMPDEST PUSH0 PUSH2 0x1672 DUP3 PUSH2 0x10B5 JUMP JUMPDEST PUSH2 0x167C DUP2 DUP6 PUSH2 0x1658 JUMP JUMPDEST SWAP4 POP PUSH2 0x1687 DUP4 PUSH2 0x10CF JUMP JUMPDEST DUP1 PUSH0 JUMPDEST DUP4 DUP2 LT ISZERO PUSH2 0x16B7 JUMPI DUP2 MLOAD PUSH2 0x169E DUP9 DUP3 PUSH2 0x111D JUMP JUMPDEST SWAP8 POP PUSH2 0x16A9 DUP4 PUSH2 0x1134 JUMP JUMPDEST SWAP3 POP POP PUSH1 0x1 DUP2 ADD SWAP1 POP PUSH2 0x168A JUMP JUMPDEST POP DUP6 SWAP4 POP POP POP POP SWAP3 SWAP2 POP POP JUMP JUMPDEST PUSH0 DUP3 DUP3 MSTORE PUSH1 0x20 DUP3 ADD SWAP1 POP SWAP3 SWAP2 POP POP JUMP JUMPDEST PUSH0 PUSH2 0x16DE DUP3 PUSH2 0x119C JUMP JUMPDEST PUSH2 0x16E8 DUP2 DUP6 PUSH2 0x16C4 JUMP JUMPDEST SWAP4 POP PUSH2 0x16F3 DUP4 PUSH2 0x11B6 JUMP JUMPDEST DUP1 PUSH0 JUMPDEST DUP4 DUP2 LT ISZERO PUSH2 0x1723 JUMPI DUP2 MLOAD PUSH2 0x170A DUP9 DUP3 PUSH2 0x11D4 JUMP JUMPDEST SWAP8 POP PUSH2 0x1715 DUP4 PUSH2 0x11EB JUMP JUMPDEST SWAP3 POP POP PUSH1 0x1 DUP2 ADD SWAP1 POP PUSH2 0x16F6 JUMP JUMPDEST POP DUP6 SWAP4 POP POP POP POP SWAP3 SWAP2 POP POP JUMP JUMPDEST PUSH0 PUSH2 0x120 DUP4 ADD PUSH0 DUP4 ADD MLOAD PUSH2 0x1746 PUSH0 DUP7 ADD DUP3 PUSH2 0x110E JUMP JUMPDEST POP PUSH1 0x20 DUP4 ADD MLOAD DUP5 DUP3 SUB PUSH1 0x20 DUP7 ADD MSTORE PUSH2 0x175E DUP3 DUP3 PUSH2 0x1620 JUMP JUMPDEST SWAP2 POP POP PUSH1 0x40 DUP4 ADD MLOAD DUP5 DUP3 SUB PUSH1 0x40 DUP7 ADD MSTORE PUSH2 0x1778 DUP3 DUP3 PUSH2 0x1620 JUMP JUMPDEST SWAP2 POP POP PUSH1 0x60 DUP4 ADD MLOAD PUSH2 0x178D PUSH1 0x60 DUP7 ADD DUP3 PUSH2 0x11C5 JUMP JUMPDEST POP PUSH1 0x80 DUP4 ADD MLOAD PUSH2 0x17A0 PUSH1 0x80 DUP7 ADD DUP3 PUSH2 0x11C5 JUMP JUMPDEST POP PUSH1 0xA0 DUP4 ADD MLOAD PUSH2 0x17B3 PUSH1 0xA0 DUP7 ADD DUP3 PUSH2 0x11C5 JUMP JUMPDEST POP PUSH1 0xC0 DUP4 ADD MLOAD DUP5 DUP3 SUB PUSH1 0xC0 DUP7 ADD MSTORE PUSH2 0x17CB DUP3 DUP3 PUSH2 0x1620 JUMP JUMPDEST SWAP2 POP POP PUSH1 0xE0 DUP4 ADD MLOAD DUP5 DUP3 SUB PUSH1 0xE0 DUP7 ADD MSTORE PUSH2 0x17E5 DUP3 DUP3 PUSH2 0x1668 JUMP JUMPDEST SWAP2 POP POP PUSH2 0x100 DUP4 ADD MLOAD DUP5 DUP3 SUB PUSH2 0x100 DUP7 ADD MSTORE PUSH2 0x1801 DUP3 DUP3 PUSH2 0x16D4 JUMP JUMPDEST SWAP2 POP POP DUP1 SWAP2 POP POP SWAP3 SWAP2 POP POP JUMP JUMPDEST PUSH0 PUSH2 0x1819 DUP4 DUP4 PUSH2 0x1730 JUMP JUMPDEST SWAP1 POP SWAP3 SWAP2 POP POP JUMP JUMPDEST PUSH0 PUSH1 0x20 DUP3 ADD SWAP1 POP SWAP2 SWAP1 POP JUMP JUMPDEST PUSH0 PUSH2 0x1837 DUP3 PUSH2 0x15E7 JUMP JUMPDEST PUSH2 0x1841 DUP2 DUP6 PUSH2 0x15F1 JUMP JUMPDEST SWAP4 POP DUP4 PUSH1 0x20 DUP3 MUL DUP6 ADD PUSH2 0x1853 DUP6 PUSH2 0x1601 JUMP JUMPDEST DUP1 PUSH0 JUMPDEST DUP6 DUP2 LT ISZERO PUSH2 0x188E JUMPI DUP5 DUP5 SUB DUP10 MSTORE DUP2 MLOAD PUSH2 0x186F DUP6 DUP3 PUSH2 0x180E JUMP JUMPDEST SWAP5 POP PUSH2 0x187A DUP4 PUSH2 0x1821 JUMP JUMPDEST SWAP3 POP PUSH1 0x20 DUP11 ADD SWAP10 POP POP PUSH1 0x1 DUP2 ADD SWAP1 POP PUSH2 0x1856 JUMP JUMPDEST POP DUP3 SWAP8 POP DUP8 SWAP6 POP POP POP POP POP POP SWAP3 SWAP2 POP POP JUMP JUMPDEST PUSH0 PUSH1 0x20 DUP3 ADD SWAP1 POP DUP2 DUP2 SUB PUSH0 DUP4 ADD MSTORE PUSH2 0x18B8 DUP2 DUP5 PUSH2 0x182D JUMP JUMPDEST SWAP1 POP SWAP3 SWAP2 POP POP JUMP JUMPDEST PUSH32 0x4E487B7100000000000000000000000000000000000000000000000000000000 PUSH0 MSTORE PUSH1 0x22 PUSH1 0x4 MSTORE PUSH1 0x24 PUSH0 REVERT JUMPDEST PUSH0 PUSH1 0x2 DUP3 DIV SWAP1 POP PUSH1 0x1 DUP3 AND DUP1 PUSH2 0x1904 JUMPI PUSH1 0x7F DUP3 AND SWAP2 POP JUMPDEST PUSH1 0x20 DUP3 LT DUP2 SUB PUSH2 0x1917 JUMPI PUSH2 0x1916 PUSH2 0x18C0 JUMP JUMPDEST JUMPDEST POP SWAP2 SWAP1 POP JUMP JUMPDEST PUSH0 DUP2 SWAP1 POP SWAP3 SWAP2 POP POP JUMP JUMPDEST POP JUMP JUMPDEST PUSH0 PUSH2 0x1935 PUSH0 DUP4 PUSH2 0x191D JUMP JUMPDEST SWAP2 POP PUSH2 0x1940 DUP3 PUSH2 0x1927 JUMP JUMPDEST PUSH0 DUP3 ADD SWAP1 POP SWAP2 SWAP1 POP JUMP JUMPDEST PUSH0 PUSH2 0x1954 DUP3 PUSH2 0x192A JUMP JUMPDEST SWAP2 POP DUP2 SWAP1 POP SWAP2 SWAP1 POP JUMP JUMPDEST PUSH32 0x4E487B7100000000000000000000000000000000000000000000000000000000 PUSH0 MSTORE PUSH1 0x11 PUSH1 0x4 MSTORE PUSH1 0x24 PUSH0 REVERT JUMPDEST PUSH0 PUSH2 0x1995 DUP3 PUSH2 0x101E JUMP JUMPDEST SWAP2 POP PUSH2 0x19A0 DUP4 PUSH2 0x101E JUMP JUMPDEST SWAP3 POP DUP3 DUP3 ADD SWAP1 POP DUP1 DUP3 GT ISZERO PUSH2 0x19B8 JUMPI PUSH2 0x19B7 PUSH2 0x195E JUMP JUMPDEST JUMPDEST SWAP3 SWAP2 POP POP JUMP JUMPDEST PUSH32 0x54686520646561646C696E652073686F756C642062652061206461746520696E PUSH0 DUP3 ADD MSTORE PUSH32 0x20746865206675747572652E0000000000000000000000000000000000000000 PUSH1 0x20 DUP3 ADD MSTORE POP JUMP JUMPDEST PUSH0 PUSH2 0x1A18 PUSH1 0x2C DUP4 PUSH2 0x12A1 JUMP JUMPDEST SWAP2 POP PUSH2 0x1A23 DUP3 PUSH2 0x19BE JUMP JUMPDEST PUSH1 0x40 DUP3 ADD SWAP1 POP SWAP2 SWAP1 POP JUMP JUMPDEST PUSH0 PUSH1 0x20 DUP3 ADD SWAP1 POP DUP2 DUP2 SUB PUSH0 DUP4 ADD MSTORE PUSH2 0x1A45 DUP2 PUSH2 0x1A0C JUMP JUMPDEST SWAP1 POP SWAP2 SWAP1 POP JUMP JUMPDEST PUSH0 DUP2 SWAP1 POP DUP2 PUSH0 MSTORE PUSH1 0x20 PUSH0 KECCAK256 SWAP1 POP SWAP2 SWAP1 POP JUMP JUMPDEST PUSH0 PUSH1 0x20 PUSH1 0x1F DUP4 ADD DIV SWAP1 POP SWAP2 SWAP1 POP JUMP JUMPDEST PUSH0 DUP3 DUP3 SHL SWAP1 POP SWAP3 SWAP2 POP POP JUMP JUMPDEST PUSH0 PUSH1 0x8 DUP4 MUL PUSH2 0x1AA8 PUSH32 0xFFFFFFFFFFFFFFFFFFFFFFFFFFFFFFFFFFFFFFFFFFFFFFFFFFFFFFFFFFFFFFFF DUP3 PUSH2 0x1A6D JUMP JUMPDEST PUSH2 0x1AB2 DUP7 DUP4 PUSH2 0x1A6D JUMP JUMPDEST SWAP6 POP DUP1 NOT DUP5 AND SWAP4 POP DUP1 DUP7 AND DUP5 OR SWAP3 POP POP POP SWAP4 SWAP3 POP POP POP JUMP JUMPDEST PUSH0 DUP2 SWAP1 POP SWAP2 SWAP1 POP JUMP JUMPDEST PUSH0 PUSH2 0x1AED PUSH2 0x1AE8 PUSH2 0x1AE3 DUP5 PUSH2 0x101E JUMP JUMPDEST PUSH2 0x1ACA JUMP JUMPDEST PUSH2 0x101E JUMP JUMPDEST SWAP1 POP SWAP2 SWAP1 POP JUMP JUMPDEST PUSH0 DUP2 SWAP1 POP SWAP2 SWAP1 POP JUMP JUMPDEST PUSH2 0x1B06 DUP4 PUSH2 0x1AD3 JUMP JUMPDEST PUSH2 0x1B1A PUSH2 0x1B12 DUP3 PUSH2 0x1AF4 JUMP JUMPDEST DUP5 DUP5 SLOAD PUSH2 0x1A79 JUMP JUMPDEST DUP3 SSTORE POP POP POP POP JUMP JUMPDEST PUSH0 SWAP1 JUMP JUMPDEST PUSH2 0x1B2E PUSH2 0x1B22 JUMP JUMPDEST PUSH2 0x1B39 DUP2 DUP5 DUP5 PUSH2 0x1AFD JUMP JUMPDEST POP POP POP JUMP JUMPDEST JUMPDEST DUP2 DUP2 LT ISZERO PUSH2 0x1B5C JUMPI PUSH2 0x1B51 PUSH0 DUP3 PUSH2 0x1B26 JUMP JUMPDEST PUSH1 0x1 DUP2 ADD SWAP1 POP PUSH2 0x1B3F JUMP JUMPDEST POP POP JUMP JUMPDEST PUSH1 0x1F DUP3 GT ISZERO PUSH2 0x1BA1 JUMPI PUSH2 0x1B72 DUP2 PUSH2 0x1A4C JUMP JUMPDEST PUSH2 0x1B7B DUP5 PUSH2 0x1A5E JUMP JUMPDEST DUP2 ADD PUSH1 0x20 DUP6 LT ISZERO PUSH2 0x1B8A JUMPI DUP2 SWAP1 POP JUMPDEST PUSH2 0x1B9E PUSH2 0x1B96 DUP6 PUSH2 0x1A5E JUMP JUMPDEST DUP4 ADD DUP3 PUSH2 0x1B3E JUMP JUMPDEST POP POP JUMPDEST POP POP POP JUMP JUMPDEST PUSH0 DUP3 DUP3 SHR SWAP1 POP SWAP3 SWAP2 POP POP JUMP JUMPDEST PUSH0 PUSH2 0x1BC1 PUSH0 NOT DUP5 PUSH1 0x8 MUL PUSH2 0x1BA6 JUMP JUMPDEST NOT DUP1 DUP4 AND SWAP2 POP POP SWAP3 SWAP2 POP POP JUMP JUMPDEST PUSH0 PUSH2 0x1BD9 DUP4 DUP4 PUSH2 0x1BB2 JUMP JUMPDEST SWAP2 POP DUP3 PUSH1 0x2 MUL DUP3 OR SWAP1 POP SWAP3 SWAP2 POP POP JUMP JUMPDEST PUSH2 0x1BF2 DUP3 PUSH2 0x1297 JUMP JUMPDEST PUSH8 0xFFFFFFFFFFFFFFFF DUP2 GT ISZERO PUSH2 0x1C0B JUMPI PUSH2 0x1C0A PUSH2 0x13BB JUMP JUMPDEST JUMPDEST PUSH2 0x1C15 DUP3 SLOAD PUSH2 0x18ED JUMP JUMPDEST PUSH2 0x1C20 DUP3 DUP3 DUP6 PUSH2 0x1B60 JUMP JUMPDEST PUSH0 PUSH1 0x20 SWAP1 POP PUSH1 0x1F DUP4 GT PUSH1 0x1 DUP2 EQ PUSH2 0x1C51 JUMPI PUSH0 DUP5 ISZERO PUSH2 0x1C3F JUMPI DUP3 DUP8 ADD MLOAD SWAP1 POP JUMPDEST PUSH2 0x1C49 DUP6 DUP3 PUSH2 0x1BCE JUMP JUMPDEST DUP7 SSTORE POP PUSH2 0x1CB0 JUMP JUMPDEST PUSH1 0x1F NOT DUP5 AND PUSH2 0x1C5F DUP7 PUSH2 0x1A4C JUMP JUMPDEST PUSH0 JUMPDEST DUP3 DUP2 LT ISZERO PUSH2 0x1C86 JUMPI DUP5 DUP10 ADD MLOAD DUP3 SSTORE PUSH1 0x1 DUP3 ADD SWAP2 POP PUSH1 0x20 DUP6 ADD SWAP5 POP PUSH1 0x20 DUP2 ADD SWAP1 POP PUSH2 0x1C61 JUMP JUMPDEST DUP7 DUP4 LT ISZERO PUSH2 0x1CA3 JUMPI DUP5 DUP10 ADD MLOAD PUSH2 0x1C9F PUSH1 0x1F DUP10 AND DUP3 PUSH2 0x1BB2 JUMP JUMPDEST DUP4 SSTORE POP JUMPDEST PUSH1 0x1 PUSH1 0x2 DUP9 MUL ADD DUP9 SSTORE POP POP POP JUMPDEST POP POP POP POP POP POP JUMP JUMPDEST PUSH0 PUSH2 0x1CC2 DUP3 PUSH2 0x101E JUMP JUMPDEST SWAP2 POP PUSH32 0xFFFFFFFFFFFFFFFFFFFFFFFFFFFFFFFFFFFFFFFFFFFFFFFFFFFFFFFFFFFFFFFF DUP3 SUB PUSH2 0x1CF4 JUMPI PUSH2 0x1CF3 PUSH2 0x195E JUMP JUMPDEST JUMPDEST PUSH1 0x1 DUP3 ADD SWAP1 POP SWAP2 SWAP1 POP JUMP JUMPDEST PUSH0 PUSH2 0x1D09 DUP3 PUSH2 0x101E JUMP JUMPDEST SWAP2 POP PUSH2 0x1D14 DUP4 PUSH2 0x101E JUMP JUMPDEST SWAP3 POP DUP3 DUP3 SUB SWAP1 POP DUP2 DUP2 GT ISZERO PUSH2 0x1D2C JUMPI PUSH2 0x1D2B PUSH2 0x195E JUMP JUMPDEST JUMPDEST SWAP3 SWAP2 POP POP JUMP JUMPDEST PUSH32 0x4E487B7100000000000000000000000000000000000000000000000000000000 PUSH0 MSTORE PUSH1 0x32 PUSH1 0x4 MSTORE PUSH1 0x24 PUSH0 REVERT INVALID LOG2 PUSH5 0x6970667358 0x22 SLT KECCAK256 0xC0 BALANCE 0xFC 0xB9 0xE7 0xED NOT 0xA9 DUP11 DUP15 0x2D DUP3 DUP2 SGT PUSH7 0xFB37AFCB4F1C2 GAS PUSH29 0x417293F76B08D71B64736F6C634300081A003300000000000000000000 "
				},
				"gasEstimates": {
					"creation": {
						"codeDepositCost": "1514600",
						"executionCost": "6585",
						"totalCost": "1521185"
					},
					"external": {
						"campaigns(uint256)": "infinite",
						"createCampaign(address,string,string,uint256,uint256,string)": "infinite",
						"donateToCampaign(uint256)": "infinite",
						"getCampaigns()": "infinite",
						"getDonators(uint256)": "infinite",
						"getUserCampaigns(address)": "infinite",
						"numberOfCampaigns()": "2426"
					}
				},
				"methodIdentifiers": {
					"campaigns(uint256)": "141961bc",
					"createCampaign(address,string,string,uint256,uint256,string)": "9943e3a1",
					"donateToCampaign(uint256)": "42a4fda8",
					"getCampaigns()": "a6b03633",
					"getDonators(uint256)": "0fa91fa9",
					"getUserCampaigns(address)": "a1e5084c",
					"numberOfCampaigns()": "07ca140d"
				}
			},
			"storageLayout": {
				"storage": [
					{
						"astId": 27,
						"contract": "contracts/CrowdFunding.sol:CrowdFunding",
						"label": "campaigns",
						"offset": 0,
						"slot": "0",
						"type": "t_mapping(t_uint256,t_struct(Campaign)22_storage)"
					},
					{
						"astId": 30,
						"contract": "contracts/CrowdFunding.sol:CrowdFunding",
						"label": "numberOfCampaigns",
						"offset": 0,
						"slot": "1",
						"type": "t_uint256"
					}
				],
				"types": {
					"t_address": {
						"encoding": "inplace",
						"label": "address",
						"numberOfBytes": "20"
					},
					"t_array(t_address)dyn_storage": {
						"base": "t_address",
						"encoding": "dynamic_array",
						"label": "address[]",
						"numberOfBytes": "32"
					},
					"t_array(t_uint256)dyn_storage": {
						"base": "t_uint256",
						"encoding": "dynamic_array",
						"label": "uint256[]",
						"numberOfBytes": "32"
					},
					"t_mapping(t_uint256,t_struct(Campaign)22_storage)": {
						"encoding": "mapping",
						"key": "t_uint256",
						"label": "mapping(uint256 => struct CrowdFunding.Campaign)",
						"numberOfBytes": "32",
						"value": "t_struct(Campaign)22_storage"
					},
					"t_string_storage": {
						"encoding": "bytes",
						"label": "string",
						"numberOfBytes": "32"
					},
					"t_struct(Campaign)22_storage": {
						"encoding": "inplace",
						"label": "struct CrowdFunding.Campaign",
						"members": [
							{
								"astId": 3,
								"contract": "contracts/CrowdFunding.sol:CrowdFunding",
								"label": "owner",
								"offset": 0,
								"slot": "0",
								"type": "t_address"
							},
							{
								"astId": 5,
								"contract": "contracts/CrowdFunding.sol:CrowdFunding",
								"label": "title",
								"offset": 0,
								"slot": "1",
								"type": "t_string_storage"
							},
							{
								"astId": 7,
								"contract": "contracts/CrowdFunding.sol:CrowdFunding",
								"label": "description",
								"offset": 0,
								"slot": "2",
								"type": "t_string_storage"
							},
							{
								"astId": 9,
								"contract": "contracts/CrowdFunding.sol:CrowdFunding",
								"label": "target",
								"offset": 0,
								"slot": "3",
								"type": "t_uint256"
							},
							{
								"astId": 11,
								"contract": "contracts/CrowdFunding.sol:CrowdFunding",
								"label": "deadline",
								"offset": 0,
								"slot": "4",
								"type": "t_uint256"
							},
							{
								"astId": 13,
								"contract": "contracts/CrowdFunding.sol:CrowdFunding",
								"label": "amountCollected",
								"offset": 0,
								"slot": "5",
								"type": "t_uint256"
							},
							{
								"astId": 15,
								"contract": "contracts/CrowdFunding.sol:CrowdFunding",
								"label": "image",
								"offset": 0,
								"slot": "6",
								"type": "t_string_storage"
							},
							{
								"astId": 18,
								"contract": "contracts/CrowdFunding.sol:CrowdFunding",
								"label": "donators",
								"offset": 0,
								"slot": "7",
								"type": "t_array(t_address)dyn_storage"
							},
							{
								"astId": 21,
								"contract": "contracts/CrowdFunding.sol:CrowdFunding",
								"label": "donations",
								"offset": 0,
								"slot": "8",
								"type": "t_array(t_uint256)dyn_storage"
							}
						],
						"numberOfBytes": "288"
					},
					"t_uint256": {
						"encoding": "inplace",
						"label": "uint256",
						"numberOfBytes": "32"
					}
				}
			},
			"userdoc": {
				"kind": "user",
				"methods": {},
				"version": 1
			}
		}
	}
}